{
  "abi": [
    {
      "inputs": [
        {
          "internalType": "uint256",
          "name": "_minimum",
          "type": "uint256"
        }
      ],
      "name": "createCampaign",
      "outputs": [],
      "stateMutability": "nonpayable",
      "type": "function"
    },
    {
      "inputs": [
        {
          "internalType": "uint256",
          "name": "",
          "type": "uint256"
        }
      ],
      "name": "deployedCampaigns",
      "outputs": [
        {
          "internalType": "address",
          "name": "",
          "type": "address"
        }
      ],
      "stateMutability": "view",
      "type": "function"
    },
    {
      "inputs": [],
      "name": "getDeployedContracts",
      "outputs": [
        {
          "internalType": "address[]",
          "name": "",
          "type": "address[]"
        }
      ],
      "stateMutability": "view",
      "type": "function"
    }
  ],
  "devdoc": {
    "kind": "dev",
    "methods": {},
    "version": 1
  },
  "evm": {
    "assembly": "    /* \"Campaign.sol\":98:814  contract CampaignFactory {... */\n  mstore(0x40, 0x80)\n  callvalue\n  dup1\n  iszero\n  tag_1\n  jumpi\n  0x00\n  dup1\n  revert\ntag_1:\n  pop\n  dataSize(sub_0)\n  dup1\n  dataOffset(sub_0)\n  0x00\n  codecopy\n  0x00\n  return\nstop\n\nsub_0: assembly {\n        /* \"Campaign.sol\":98:814  contract CampaignFactory {... */\n      mstore(0x40, 0x80)\n      callvalue\n      dup1\n      iszero\n      tag_1\n      jumpi\n      0x00\n      dup1\n      revert\n    tag_1:\n      pop\n      jumpi(tag_2, lt(calldatasize, 0x04))\n      shr(0xe0, calldataload(0x00))\n      dup1\n      0x339d50a5\n      eq\n      tag_3\n      jumpi\n      dup1\n      0xa3303a75\n      eq\n      tag_4\n      jumpi\n      dup1\n      0xaa9a068f\n      eq\n      tag_5\n      jumpi\n    tag_2:\n      0x00\n      dup1\n      revert\n        /* \"Campaign.sol\":157:191  address[] public deployedCampaigns */\n    tag_3:\n      tag_6\n      0x04\n      dup1\n      calldatasize\n      sub\n      dup2\n      add\n      swap1\n      tag_7\n      swap2\n      swap1\n      tag_8\n      jump\t// in\n    tag_7:\n      tag_9\n      jump\t// in\n    tag_6:\n      mload(0x40)\n      tag_10\n      swap2\n      swap1\n      tag_11\n      jump\t// in\n    tag_10:\n      mload(0x40)\n      dup1\n      swap2\n      sub\n      swap1\n      return\n        /* \"Campaign.sol\":225:637  function createCampaign(uint256 _minimum) public {... */\n    tag_4:\n      tag_12\n      0x04\n      dup1\n      calldatasize\n      sub\n      dup2\n      add\n      swap1\n      tag_13\n      swap2\n      swap1\n      tag_8\n      jump\t// in\n    tag_13:\n      tag_14\n      jump\t// in\n    tag_12:\n      stop\n        /* \"Campaign.sol\":697:811  function getDeployedContracts() public view returns (address[] memory) {... */\n    tag_5:\n      tag_15\n      tag_16\n      jump\t// in\n    tag_15:\n      mload(0x40)\n      tag_17\n      swap2\n      swap1\n      tag_18\n      jump\t// in\n    tag_17:\n      mload(0x40)\n      dup1\n      swap2\n      sub\n      swap1\n      return\n        /* \"Campaign.sol\":157:191  address[] public deployedCampaigns */\n    tag_9:\n      0x00\n      dup2\n      dup2\n      sload\n      dup2\n      lt\n      tag_19\n      jumpi\n      0x00\n      dup1\n      revert\n    tag_19:\n      swap1\n      0x00\n      mstore\n      keccak256(0x00, 0x20)\n      add\n      0x00\n      swap2\n      pop\n      sload\n      swap1\n      0x0100\n      exp\n      swap1\n      div\n      0xffffffffffffffffffffffffffffffffffffffff\n      and\n      dup2\n      jump\t// out\n        /* \"Campaign.sol\":225:637  function createCampaign(uint256 _minimum) public {... */\n    tag_14:\n        /* \"Campaign.sol\":446:465  address newCampaign */\n      0x00\n        /* \"Campaign.sol\":489:497  _minimum */\n      dup2\n        /* \"Campaign.sol\":499:509  msg.sender */\n      caller\n        /* \"Campaign.sol\":476:510  new Campaign(_minimum, msg.sender) */\n      mload(0x40)\n      tag_22\n      swap1\n      tag_23\n      jump\t// in\n    tag_22:\n      tag_24\n      swap3\n      swap2\n      swap1\n      tag_25\n      jump\t// in\n    tag_24:\n      mload(0x40)\n      dup1\n      swap2\n      sub\n      swap1\n      0x00\n      create\n      dup1\n      iszero\n      dup1\n      iszero\n      tag_26\n      jumpi\n      returndatasize\n      0x00\n      dup1\n      returndatacopy\n      revert(0x00, returndatasize)\n    tag_26:\n      pop\n        /* \"Campaign.sol\":446:511  address newCampaign = address(new Campaign(_minimum, msg.sender)) */\n      swap1\n      pop\n        /* \"Campaign.sol\":594:611  deployedCampaigns */\n      0x00\n        /* \"Campaign.sol\":617:628  newCampaign */\n      dup2\n        /* \"Campaign.sol\":594:629  deployedCampaigns.push(newCampaign) */\n      swap1\n      dup1\n      0x01\n      dup2\n      sload\n      add\n      dup1\n      dup3\n      sstore\n      dup1\n      swap2\n      pop\n      pop\n      0x01\n      swap1\n      sub\n      swap1\n      0x00\n      mstore\n      keccak256(0x00, 0x20)\n      add\n      0x00\n      swap1\n      swap2\n      swap1\n      swap2\n      swap1\n      swap2\n      0x0100\n      exp\n      dup2\n      sload\n      dup2\n      0xffffffffffffffffffffffffffffffffffffffff\n      mul\n      not\n      and\n      swap1\n      dup4\n      0xffffffffffffffffffffffffffffffffffffffff\n      and\n      mul\n      or\n      swap1\n      sstore\n      pop\n        /* \"Campaign.sol\":274:637  {... */\n      pop\n        /* \"Campaign.sol\":225:637  function createCampaign(uint256 _minimum) public {... */\n      pop\n      jump\t// out\n        /* \"Campaign.sol\":697:811  function getDeployedContracts() public view returns (address[] memory) {... */\n    tag_16:\n        /* \"Campaign.sol\":750:766  address[] memory */\n      0x60\n        /* \"Campaign.sol\":786:803  deployedCampaigns */\n      0x00\n        /* \"Campaign.sol\":779:803  return deployedCampaigns */\n      dup1\n      sload\n      dup1\n      0x20\n      mul\n      0x20\n      add\n      mload(0x40)\n      swap1\n      dup2\n      add\n      0x40\n      mstore\n      dup1\n      swap3\n      swap2\n      swap1\n      dup2\n      dup2\n      mstore\n      0x20\n      add\n      dup3\n      dup1\n      sload\n      dup1\n      iszero\n      tag_29\n      jumpi\n      0x20\n      mul\n      dup3\n      add\n      swap2\n      swap1\n      0x00\n      mstore\n      keccak256(0x00, 0x20)\n      swap1\n    tag_30:\n      dup2\n      0x00\n      swap1\n      sload\n      swap1\n      0x0100\n      exp\n      swap1\n      div\n      0xffffffffffffffffffffffffffffffffffffffff\n      and\n      0xffffffffffffffffffffffffffffffffffffffff\n      and\n      dup2\n      mstore\n      0x20\n      add\n      swap1\n      0x01\n      add\n      swap1\n      dup1\n      dup4\n      gt\n      tag_30\n      jumpi\n    tag_29:\n      pop\n      pop\n      pop\n      pop\n      pop\n      swap1\n      pop\n        /* \"Campaign.sol\":697:811  function getDeployedContracts() public view returns (address[] memory) {... */\n      swap1\n      jump\t// out\n    tag_23:\n      dataSize(sub_0)\n      dup1\n      dataOffset(sub_0)\n      dup4\n      codecopy\n      add\n      swap1\n      jump\t// out\n        /* \"#utility.yul\":88:205   */\n    tag_32:\n        /* \"#utility.yul\":197:198   */\n      0x00\n        /* \"#utility.yul\":194:195   */\n      dup1\n        /* \"#utility.yul\":187:199   */\n      revert\n        /* \"#utility.yul\":334:411   */\n    tag_34:\n        /* \"#utility.yul\":371:378   */\n      0x00\n        /* \"#utility.yul\":400:405   */\n      dup2\n        /* \"#utility.yul\":389:405   */\n      swap1\n      pop\n        /* \"#utility.yul\":334:411   */\n      swap2\n      swap1\n      pop\n      jump\t// out\n        /* \"#utility.yul\":417:539   */\n    tag_35:\n        /* \"#utility.yul\":490:514   */\n      tag_54\n        /* \"#utility.yul\":508:513   */\n      dup2\n        /* \"#utility.yul\":490:514   */\n      tag_34\n      jump\t// in\n    tag_54:\n        /* \"#utility.yul\":483:488   */\n      dup2\n        /* \"#utility.yul\":480:515   */\n      eq\n        /* \"#utility.yul\":470:533   */\n      tag_55\n      jumpi\n        /* \"#utility.yul\":529:530   */\n      0x00\n        /* \"#utility.yul\":526:527   */\n      dup1\n        /* \"#utility.yul\":519:531   */\n      revert\n        /* \"#utility.yul\":470:533   */\n    tag_55:\n        /* \"#utility.yul\":417:539   */\n      pop\n      jump\t// out\n        /* \"#utility.yul\":545:684   */\n    tag_36:\n        /* \"#utility.yul\":591:596   */\n      0x00\n        /* \"#utility.yul\":629:635   */\n      dup2\n        /* \"#utility.yul\":616:636   */\n      calldataload\n        /* \"#utility.yul\":607:636   */\n      swap1\n      pop\n        /* \"#utility.yul\":645:678   */\n      tag_57\n        /* \"#utility.yul\":672:677   */\n      dup2\n        /* \"#utility.yul\":645:678   */\n      tag_35\n      jump\t// in\n    tag_57:\n        /* \"#utility.yul\":545:684   */\n      swap3\n      swap2\n      pop\n      pop\n      jump\t// out\n        /* \"#utility.yul\":690:1019   */\n    tag_8:\n        /* \"#utility.yul\":749:755   */\n      0x00\n        /* \"#utility.yul\":798:800   */\n      0x20\n        /* \"#utility.yul\":786:795   */\n      dup3\n        /* \"#utility.yul\":777:784   */\n      dup5\n        /* \"#utility.yul\":773:796   */\n      sub\n        /* \"#utility.yul\":769:801   */\n      slt\n        /* \"#utility.yul\":766:885   */\n      iszero\n      tag_59\n      jumpi\n        /* \"#utility.yul\":804:883   */\n      tag_60\n      tag_32\n      jump\t// in\n    tag_60:\n        /* \"#utility.yul\":766:885   */\n    tag_59:\n        /* \"#utility.yul\":924:925   */\n      0x00\n        /* \"#utility.yul\":949:1002   */\n      tag_61\n        /* \"#utility.yul\":994:1001   */\n      dup5\n        /* \"#utility.yul\":985:991   */\n      dup3\n        /* \"#utility.yul\":974:983   */\n      dup6\n        /* \"#utility.yul\":970:992   */\n      add\n        /* \"#utility.yul\":949:1002   */\n      tag_36\n      jump\t// in\n    tag_61:\n        /* \"#utility.yul\":939:1002   */\n      swap2\n      pop\n        /* \"#utility.yul\":895:1012   */\n      pop\n        /* \"#utility.yul\":690:1019   */\n      swap3\n      swap2\n      pop\n      pop\n      jump\t// out\n        /* \"#utility.yul\":1025:1151   */\n    tag_37:\n        /* \"#utility.yul\":1062:1069   */\n      0x00\n        /* \"#utility.yul\":1102:1144   */\n      0xffffffffffffffffffffffffffffffffffffffff\n        /* \"#utility.yul\":1095:1100   */\n      dup3\n        /* \"#utility.yul\":1091:1145   */\n      and\n        /* \"#utility.yul\":1080:1145   */\n      swap1\n      pop\n        /* \"#utility.yul\":1025:1151   */\n      swap2\n      swap1\n      pop\n      jump\t// out\n        /* \"#utility.yul\":1157:1253   */\n    tag_38:\n        /* \"#utility.yul\":1194:1201   */\n      0x00\n        /* \"#utility.yul\":1223:1247   */\n      tag_64\n        /* \"#utility.yul\":1241:1246   */\n      dup3\n        /* \"#utility.yul\":1223:1247   */\n      tag_37\n      jump\t// in\n    tag_64:\n        /* \"#utility.yul\":1212:1247   */\n      swap1\n      pop\n        /* \"#utility.yul\":1157:1253   */\n      swap2\n      swap1\n      pop\n      jump\t// out\n        /* \"#utility.yul\":1259:1377   */\n    tag_39:\n        /* \"#utility.yul\":1346:1370   */\n      tag_66\n        /* \"#utility.yul\":1364:1369   */\n      dup2\n        /* \"#utility.yul\":1346:1370   */\n      tag_38\n      jump\t// in\n    tag_66:\n        /* \"#utility.yul\":1341:1344   */\n      dup3\n        /* \"#utility.yul\":1334:1371   */\n      mstore\n        /* \"#utility.yul\":1259:1377   */\n      pop\n      pop\n      jump\t// out\n        /* \"#utility.yul\":1383:1605   */\n    tag_11:\n        /* \"#utility.yul\":1476:1480   */\n      0x00\n        /* \"#utility.yul\":1514:1516   */\n      0x20\n        /* \"#utility.yul\":1503:1512   */\n      dup3\n        /* \"#utility.yul\":1499:1517   */\n      add\n        /* \"#utility.yul\":1491:1517   */\n      swap1\n      pop\n        /* \"#utility.yul\":1527:1598   */\n      tag_68\n        /* \"#utility.yul\":1595:1596   */\n      0x00\n        /* \"#utility.yul\":1584:1593   */\n      dup4\n        /* \"#utility.yul\":1580:1597   */\n      add\n        /* \"#utility.yul\":1571:1577   */\n      dup5\n        /* \"#utility.yul\":1527:1598   */\n      tag_39\n      jump\t// in\n    tag_68:\n        /* \"#utility.yul\":1383:1605   */\n      swap3\n      swap2\n      pop\n      pop\n      jump\t// out\n        /* \"#utility.yul\":1611:1725   */\n    tag_40:\n        /* \"#utility.yul\":1678:1684   */\n      0x00\n        /* \"#utility.yul\":1712:1717   */\n      dup2\n        /* \"#utility.yul\":1706:1718   */\n      mload\n        /* \"#utility.yul\":1696:1718   */\n      swap1\n      pop\n        /* \"#utility.yul\":1611:1725   */\n      swap2\n      swap1\n      pop\n      jump\t// out\n        /* \"#utility.yul\":1731:1915   */\n    tag_41:\n        /* \"#utility.yul\":1830:1841   */\n      0x00\n        /* \"#utility.yul\":1864:1870   */\n      dup3\n        /* \"#utility.yul\":1859:1862   */\n      dup3\n        /* \"#utility.yul\":1852:1871   */\n      mstore\n        /* \"#utility.yul\":1904:1908   */\n      0x20\n        /* \"#utility.yul\":1899:1902   */\n      dup3\n        /* \"#utility.yul\":1895:1909   */\n      add\n        /* \"#utility.yul\":1880:1909   */\n      swap1\n      pop\n        /* \"#utility.yul\":1731:1915   */\n      swap3\n      swap2\n      pop\n      pop\n      jump\t// out\n        /* \"#utility.yul\":1921:2053   */\n    tag_42:\n        /* \"#utility.yul\":1988:1992   */\n      0x00\n        /* \"#utility.yul\":2011:2014   */\n      dup2\n        /* \"#utility.yul\":2003:2014   */\n      swap1\n      pop\n        /* \"#utility.yul\":2041:2045   */\n      0x20\n        /* \"#utility.yul\":2036:2039   */\n      dup3\n        /* \"#utility.yul\":2032:2046   */\n      add\n        /* \"#utility.yul\":2024:2046   */\n      swap1\n      pop\n        /* \"#utility.yul\":1921:2053   */\n      swap2\n      swap1\n      pop\n      jump\t// out\n        /* \"#utility.yul\":2059:2167   */\n    tag_43:\n        /* \"#utility.yul\":2136:2160   */\n      tag_73\n        /* \"#utility.yul\":2154:2159   */\n      dup2\n        /* \"#utility.yul\":2136:2160   */\n      tag_38\n      jump\t// in\n    tag_73:\n        /* \"#utility.yul\":2131:2134   */\n      dup3\n        /* \"#utility.yul\":2124:2161   */\n      mstore\n        /* \"#utility.yul\":2059:2167   */\n      pop\n      pop\n      jump\t// out\n        /* \"#utility.yul\":2173:2352   */\n    tag_44:\n        /* \"#utility.yul\":2242:2252   */\n      0x00\n        /* \"#utility.yul\":2263:2309   */\n      tag_75\n        /* \"#utility.yul\":2305:2308   */\n      dup4\n        /* \"#utility.yul\":2297:2303   */\n      dup4\n        /* \"#utility.yul\":2263:2309   */\n      tag_43\n      jump\t// in\n    tag_75:\n        /* \"#utility.yul\":2341:2345   */\n      0x20\n        /* \"#utility.yul\":2336:2339   */\n      dup4\n        /* \"#utility.yul\":2332:2346   */\n      add\n        /* \"#utility.yul\":2318:2346   */\n      swap1\n      pop\n        /* \"#utility.yul\":2173:2352   */\n      swap3\n      swap2\n      pop\n      pop\n      jump\t// out\n        /* \"#utility.yul\":2358:2471   */\n    tag_45:\n        /* \"#utility.yul\":2428:2432   */\n      0x00\n        /* \"#utility.yul\":2460:2464   */\n      0x20\n        /* \"#utility.yul\":2455:2458   */\n      dup3\n        /* \"#utility.yul\":2451:2465   */\n      add\n        /* \"#utility.yul\":2443:2465   */\n      swap1\n      pop\n        /* \"#utility.yul\":2358:2471   */\n      swap2\n      swap1\n      pop\n      jump\t// out\n        /* \"#utility.yul\":2507:3239   */\n    tag_46:\n        /* \"#utility.yul\":2626:2629   */\n      0x00\n        /* \"#utility.yul\":2655:2709   */\n      tag_78\n        /* \"#utility.yul\":2703:2708   */\n      dup3\n        /* \"#utility.yul\":2655:2709   */\n      tag_40\n      jump\t// in\n    tag_78:\n        /* \"#utility.yul\":2725:2811   */\n      tag_79\n        /* \"#utility.yul\":2804:2810   */\n      dup2\n        /* \"#utility.yul\":2799:2802   */\n      dup6\n        /* \"#utility.yul\":2725:2811   */\n      tag_41\n      jump\t// in\n    tag_79:\n        /* \"#utility.yul\":2718:2811   */\n      swap4\n      pop\n        /* \"#utility.yul\":2835:2891   */\n      tag_80\n        /* \"#utility.yul\":2885:2890   */\n      dup4\n        /* \"#utility.yul\":2835:2891   */\n      tag_42\n      jump\t// in\n    tag_80:\n        /* \"#utility.yul\":2914:2921   */\n      dup1\n        /* \"#utility.yul\":2945:2946   */\n      0x00\n        /* \"#utility.yul\":2930:3214   */\n    tag_81:\n        /* \"#utility.yul\":2955:2961   */\n      dup4\n        /* \"#utility.yul\":2952:2953   */\n      dup2\n        /* \"#utility.yul\":2949:2962   */\n      lt\n        /* \"#utility.yul\":2930:3214   */\n      iszero\n      tag_83\n      jumpi\n        /* \"#utility.yul\":3031:3037   */\n      dup2\n        /* \"#utility.yul\":3025:3038   */\n      mload\n        /* \"#utility.yul\":3058:3121   */\n      tag_84\n        /* \"#utility.yul\":3117:3120   */\n      dup9\n        /* \"#utility.yul\":3102:3115   */\n      dup3\n        /* \"#utility.yul\":3058:3121   */\n      tag_44\n      jump\t// in\n    tag_84:\n        /* \"#utility.yul\":3051:3121   */\n      swap8\n      pop\n        /* \"#utility.yul\":3144:3204   */\n      tag_85\n        /* \"#utility.yul\":3197:3203   */\n      dup4\n        /* \"#utility.yul\":3144:3204   */\n      tag_45\n      jump\t// in\n    tag_85:\n        /* \"#utility.yul\":3134:3204   */\n      swap3\n      pop\n        /* \"#utility.yul\":2990:3214   */\n      pop\n        /* \"#utility.yul\":2977:2978   */\n      0x01\n        /* \"#utility.yul\":2974:2975   */\n      dup2\n        /* \"#utility.yul\":2970:2979   */\n      add\n        /* \"#utility.yul\":2965:2979   */\n      swap1\n      pop\n        /* \"#utility.yul\":2930:3214   */\n      jump(tag_81)\n    tag_83:\n        /* \"#utility.yul\":2934:2948   */\n      pop\n        /* \"#utility.yul\":3230:3233   */\n      dup6\n        /* \"#utility.yul\":3223:3233   */\n      swap4\n      pop\n        /* \"#utility.yul\":2631:3239   */\n      pop\n      pop\n      pop\n        /* \"#utility.yul\":2507:3239   */\n      swap3\n      swap2\n      pop\n      pop\n      jump\t// out\n        /* \"#utility.yul\":3245:3618   */\n    tag_18:\n        /* \"#utility.yul\":3388:3392   */\n      0x00\n        /* \"#utility.yul\":3426:3428   */\n      0x20\n        /* \"#utility.yul\":3415:3424   */\n      dup3\n        /* \"#utility.yul\":3411:3429   */\n      add\n        /* \"#utility.yul\":3403:3429   */\n      swap1\n      pop\n        /* \"#utility.yul\":3475:3484   */\n      dup2\n        /* \"#utility.yul\":3469:3473   */\n      dup2\n        /* \"#utility.yul\":3465:3485   */\n      sub\n        /* \"#utility.yul\":3461:3462   */\n      0x00\n        /* \"#utility.yul\":3450:3459   */\n      dup4\n        /* \"#utility.yul\":3446:3463   */\n      add\n        /* \"#utility.yul\":3439:3486   */\n      mstore\n        /* \"#utility.yul\":3503:3611   */\n      tag_87\n        /* \"#utility.yul\":3606:3610   */\n      dup2\n        /* \"#utility.yul\":3597:3603   */\n      dup5\n        /* \"#utility.yul\":3503:3611   */\n      tag_46\n      jump\t// in\n    tag_87:\n        /* \"#utility.yul\":3495:3611   */\n      swap1\n      pop\n        /* \"#utility.yul\":3245:3618   */\n      swap3\n      swap2\n      pop\n      pop\n      jump\t// out\n        /* \"#utility.yul\":3624:3742   */\n    tag_47:\n        /* \"#utility.yul\":3711:3735   */\n      tag_89\n        /* \"#utility.yul\":3729:3734   */\n      dup2\n        /* \"#utility.yul\":3711:3735   */\n      tag_34\n      jump\t// in\n    tag_89:\n        /* \"#utility.yul\":3706:3709   */\n      dup3\n        /* \"#utility.yul\":3699:3736   */\n      mstore\n        /* \"#utility.yul\":3624:3742   */\n      pop\n      pop\n      jump\t// out\n        /* \"#utility.yul\":3748:4080   */\n    tag_25:\n        /* \"#utility.yul\":3869:3873   */\n      0x00\n        /* \"#utility.yul\":3907:3909   */\n      0x40\n        /* \"#utility.yul\":3896:3905   */\n      dup3\n        /* \"#utility.yul\":3892:3910   */\n      add\n        /* \"#utility.yul\":3884:3910   */\n      swap1\n      pop\n        /* \"#utility.yul\":3920:3991   */\n      tag_91\n        /* \"#utility.yul\":3988:3989   */\n      0x00\n        /* \"#utility.yul\":3977:3986   */\n      dup4\n        /* \"#utility.yul\":3973:3990   */\n      add\n        /* \"#utility.yul\":3964:3970   */\n      dup6\n        /* \"#utility.yul\":3920:3991   */\n      tag_47\n      jump\t// in\n    tag_91:\n        /* \"#utility.yul\":4001:4073   */\n      tag_92\n        /* \"#utility.yul\":4069:4071   */\n      0x20\n        /* \"#utility.yul\":4058:4067   */\n      dup4\n        /* \"#utility.yul\":4054:4072   */\n      add\n        /* \"#utility.yul\":4045:4051   */\n      dup5\n        /* \"#utility.yul\":4001:4073   */\n      tag_39\n      jump\t// in\n    tag_92:\n        /* \"#utility.yul\":3748:4080   */\n      swap4\n      swap3\n      pop\n      pop\n      pop\n      jump\t// out\n    stop\n\n    sub_0: assembly {\n            /* \"Campaign.sol\":846:6531  contract Campaign {... */\n          mstore(0x40, 0x80)\n            /* \"Campaign.sol\":3341:3564  constructor(uint256 _minimum, address _creator) {... */\n          callvalue\n          dup1\n          iszero\n          tag_1\n          jumpi\n          0x00\n          dup1\n          revert\n        tag_1:\n          pop\n          mload(0x40)\n          sub(codesize, bytecodeSize)\n          dup1\n          bytecodeSize\n          dup4\n          codecopy\n          dup2\n          dup2\n          add\n          0x40\n          mstore\n          dup2\n          add\n          swap1\n          tag_2\n          swap2\n          swap1\n          tag_3\n          jump\t// in\n        tag_2:\n            /* \"Campaign.sol\":3455:3463  _minimum */\n          dup2\n            /* \"Campaign.sol\":3433:3452  minimumContribution */\n          0x02\n            /* \"Campaign.sol\":3433:3463  minimumContribution = _minimum */\n          dup2\n          swap1\n          sstore\n          pop\n            /* \"Campaign.sol\":3547:3555  _creator */\n          dup1\n            /* \"Campaign.sol\":3529:3536  manager */\n          0x00\n          dup1\n            /* \"Campaign.sol\":3529:3556  manager = payable(_creator) */\n          0x0100\n          exp\n          dup2\n          sload\n          dup2\n          0xffffffffffffffffffffffffffffffffffffffff\n          mul\n          not\n          and\n          swap1\n          dup4\n          0xffffffffffffffffffffffffffffffffffffffff\n          and\n          mul\n          or\n          swap1\n          sstore\n          pop\n            /* \"Campaign.sol\":3341:3564  constructor(uint256 _minimum, address _creator) {... */\n          pop\n          pop\n            /* \"Campaign.sol\":846:6531  contract Campaign {... */\n          jump(tag_6)\n            /* \"#utility.yul\":88:205   */\n        tag_8:\n            /* \"#utility.yul\":197:198   */\n          0x00\n            /* \"#utility.yul\":194:195   */\n          dup1\n            /* \"#utility.yul\":187:199   */\n          revert\n            /* \"#utility.yul\":334:411   */\n        tag_10:\n            /* \"#utility.yul\":371:378   */\n          0x00\n            /* \"#utility.yul\":400:405   */\n          dup2\n            /* \"#utility.yul\":389:405   */\n          swap1\n          pop\n            /* \"#utility.yul\":334:411   */\n          swap2\n          swap1\n          pop\n          jump\t// out\n            /* \"#utility.yul\":417:539   */\n        tag_11:\n            /* \"#utility.yul\":490:514   */\n          tag_23\n            /* \"#utility.yul\":508:513   */\n          dup2\n            /* \"#utility.yul\":490:514   */\n          tag_10\n          jump\t// in\n        tag_23:\n            /* \"#utility.yul\":483:488   */\n          dup2\n            /* \"#utility.yul\":480:515   */\n          eq\n            /* \"#utility.yul\":470:533   */\n          tag_24\n          jumpi\n            /* \"#utility.yul\":529:530   */\n          0x00\n            /* \"#utility.yul\":526:527   */\n          dup1\n            /* \"#utility.yul\":519:531   */\n          revert\n            /* \"#utility.yul\":470:533   */\n        tag_24:\n            /* \"#utility.yul\":417:539   */\n          pop\n          jump\t// out\n            /* \"#utility.yul\":545:688   */\n        tag_12:\n            /* \"#utility.yul\":602:607   */\n          0x00\n            /* \"#utility.yul\":633:639   */\n          dup2\n            /* \"#utility.yul\":627:640   */\n          mload\n            /* \"#utility.yul\":618:640   */\n          swap1\n          pop\n            /* \"#utility.yul\":649:682   */\n          tag_26\n            /* \"#utility.yul\":676:681   */\n          dup2\n            /* \"#utility.yul\":649:682   */\n          tag_11\n          jump\t// in\n        tag_26:\n            /* \"#utility.yul\":545:688   */\n          swap3\n          swap2\n          pop\n          pop\n          jump\t// out\n            /* \"#utility.yul\":694:820   */\n        tag_13:\n            /* \"#utility.yul\":731:738   */\n          0x00\n            /* \"#utility.yul\":771:813   */\n          0xffffffffffffffffffffffffffffffffffffffff\n            /* \"#utility.yul\":764:769   */\n          dup3\n            /* \"#utility.yul\":760:814   */\n          and\n            /* \"#utility.yul\":749:814   */\n          swap1\n          pop\n            /* \"#utility.yul\":694:820   */\n          swap2\n          swap1\n          pop\n          jump\t// out\n            /* \"#utility.yul\":826:922   */\n        tag_14:\n            /* \"#utility.yul\":863:870   */\n          0x00\n            /* \"#utility.yul\":892:916   */\n          tag_29\n            /* \"#utility.yul\":910:915   */\n          dup3\n            /* \"#utility.yul\":892:916   */\n          tag_13\n          jump\t// in\n        tag_29:\n            /* \"#utility.yul\":881:916   */\n          swap1\n          pop\n            /* \"#utility.yul\":826:922   */\n          swap2\n          swap1\n          pop\n          jump\t// out\n            /* \"#utility.yul\":928:1050   */\n        tag_15:\n            /* \"#utility.yul\":1001:1025   */\n          tag_31\n            /* \"#utility.yul\":1019:1024   */\n          dup2\n            /* \"#utility.yul\":1001:1025   */\n          tag_14\n          jump\t// in\n        tag_31:\n            /* \"#utility.yul\":994:999   */\n          dup2\n            /* \"#utility.yul\":991:1026   */\n          eq\n            /* \"#utility.yul\":981:1044   */\n          tag_32\n          jumpi\n            /* \"#utility.yul\":1040:1041   */\n          0x00\n            /* \"#utility.yul\":1037:1038   */\n          dup1\n            /* \"#utility.yul\":1030:1042   */\n          revert\n            /* \"#utility.yul\":981:1044   */\n        tag_32:\n            /* \"#utility.yul\":928:1050   */\n          pop\n          jump\t// out\n            /* \"#utility.yul\":1056:1199   */\n        tag_16:\n            /* \"#utility.yul\":1113:1118   */\n          0x00\n            /* \"#utility.yul\":1144:1150   */\n          dup2\n            /* \"#utility.yul\":1138:1151   */\n          mload\n            /* \"#utility.yul\":1129:1151   */\n          swap1\n          pop\n            /* \"#utility.yul\":1160:1193   */\n          tag_34\n            /* \"#utility.yul\":1187:1192   */\n          dup2\n            /* \"#utility.yul\":1160:1193   */\n          tag_15\n          jump\t// in\n        tag_34:\n            /* \"#utility.yul\":1056:1199   */\n          swap3\n          swap2\n          pop\n          pop\n          jump\t// out\n            /* \"#utility.yul\":1205:1712   */\n        tag_3:\n            /* \"#utility.yul\":1284:1290   */\n          0x00\n            /* \"#utility.yul\":1292:1298   */\n          dup1\n            /* \"#utility.yul\":1341:1343   */\n          0x40\n            /* \"#utility.yul\":1329:1338   */\n          dup4\n            /* \"#utility.yul\":1320:1327   */\n          dup6\n            /* \"#utility.yul\":1316:1339   */\n          sub\n            /* \"#utility.yul\":1312:1344   */\n          slt\n            /* \"#utility.yul\":1309:1428   */\n          iszero\n          tag_36\n          jumpi\n            /* \"#utility.yul\":1347:1426   */\n          tag_37\n          tag_8\n          jump\t// in\n        tag_37:\n            /* \"#utility.yul\":1309:1428   */\n        tag_36:\n            /* \"#utility.yul\":1467:1468   */\n          0x00\n            /* \"#utility.yul\":1492:1556   */\n          tag_38\n            /* \"#utility.yul\":1548:1555   */\n          dup6\n            /* \"#utility.yul\":1539:1545   */\n          dup3\n            /* \"#utility.yul\":1528:1537   */\n          dup7\n            /* \"#utility.yul\":1524:1546   */\n          add\n            /* \"#utility.yul\":1492:1556   */\n          tag_12\n          jump\t// in\n        tag_38:\n            /* \"#utility.yul\":1482:1556   */\n          swap3\n          pop\n            /* \"#utility.yul\":1438:1566   */\n          pop\n            /* \"#utility.yul\":1605:1607   */\n          0x20\n            /* \"#utility.yul\":1631:1695   */\n          tag_39\n            /* \"#utility.yul\":1687:1694   */\n          dup6\n            /* \"#utility.yul\":1678:1684   */\n          dup3\n            /* \"#utility.yul\":1667:1676   */\n          dup7\n            /* \"#utility.yul\":1663:1685   */\n          add\n            /* \"#utility.yul\":1631:1695   */\n          tag_16\n          jump\t// in\n        tag_39:\n            /* \"#utility.yul\":1621:1695   */\n          swap2\n          pop\n            /* \"#utility.yul\":1576:1705   */\n          pop\n            /* \"#utility.yul\":1205:1712   */\n          swap3\n          pop\n          swap3\n          swap1\n          pop\n          jump\t// out\n            /* \"Campaign.sol\":846:6531  contract Campaign {... */\n        tag_6:\n          dataSize(sub_0)\n          dup1\n          dataOffset(sub_0)\n          0x00\n          codecopy\n          0x00\n          return\n        stop\n\n        sub_0: assembly {\n                /* \"Campaign.sol\":846:6531  contract Campaign {... */\n              mstore(0x40, 0x80)\n              jumpi(tag_1, lt(calldatasize, 0x04))\n              shr(0xe0, calldataload(0x00))\n              dup1\n              0x8a9cfd55\n              gt\n              tag_12\n              jumpi\n              dup1\n              0x8a9cfd55\n              eq\n              tag_7\n              jumpi\n              dup1\n              0x937e09b1\n              eq\n              tag_8\n              jumpi\n              dup1\n              0x9fb42b1f\n              eq\n              tag_9\n              jumpi\n              dup1\n              0xd7bb99ba\n              eq\n              tag_10\n              jumpi\n              dup1\n              0xd7d1bbdb\n              eq\n              tag_11\n              jumpi\n              jump(tag_1)\n            tag_12:\n              dup1\n              0x03441006\n              eq\n              tag_2\n              jumpi\n              dup1\n              0x0a144391\n              eq\n              tag_3\n              jumpi\n              dup1\n              0x481c6a75\n              eq\n              tag_4\n              jumpi\n              dup1\n              0x81d12c58\n              eq\n              tag_5\n              jumpi\n              dup1\n              0x82fde093\n              eq\n              tag_6\n              jumpi\n            tag_1:\n              0x00\n              dup1\n              revert\n                /* \"Campaign.sol\":6007:6528  function finalizeRequest(uint256 _requestIndex) public restricted {... */\n            tag_2:\n              callvalue\n              dup1\n              iszero\n              tag_13\n              jumpi\n              0x00\n              dup1\n              revert\n            tag_13:\n              pop\n              tag_14\n              0x04\n              dup1\n              calldatasize\n              sub\n              dup2\n              add\n              swap1\n              tag_15\n              swap2\n              swap1\n              tag_16\n              jump\t// in\n            tag_15:\n              tag_17\n              jump\t// in\n            tag_14:\n              stop\n                /* \"Campaign.sol\":1232:1273  mapping(address => bool) public approvers */\n            tag_3:\n              callvalue\n              dup1\n              iszero\n              tag_18\n              jumpi\n              0x00\n              dup1\n              revert\n            tag_18:\n              pop\n              tag_19\n              0x04\n              dup1\n              calldatasize\n              sub\n              dup2\n              add\n              swap1\n              tag_20\n              swap2\n              swap1\n              tag_21\n              jump\t// in\n            tag_20:\n              tag_22\n              jump\t// in\n            tag_19:\n              mload(0x40)\n              tag_23\n              swap2\n              swap1\n              tag_24\n              jump\t// in\n            tag_23:\n              mload(0x40)\n              dup1\n              swap2\n              sub\n              swap1\n              return\n                /* \"Campaign.sol\":923:953  address payable public manager */\n            tag_4:\n              callvalue\n              dup1\n              iszero\n              tag_25\n              jumpi\n              0x00\n              dup1\n              revert\n            tag_25:\n              pop\n              tag_26\n              tag_27\n              jump\t// in\n            tag_26:\n              mload(0x40)\n              tag_28\n              swap2\n              swap1\n              tag_29\n              jump\t// in\n            tag_28:\n              mload(0x40)\n              dup1\n              swap2\n              sub\n              swap1\n              return\n                /* \"Campaign.sol\":2785:2828  mapping(uint256 => Request) public requests */\n            tag_5:\n              callvalue\n              dup1\n              iszero\n              tag_30\n              jumpi\n              0x00\n              dup1\n              revert\n            tag_30:\n              pop\n              tag_31\n              0x04\n              dup1\n              calldatasize\n              sub\n              dup2\n              add\n              swap1\n              tag_32\n              swap2\n              swap1\n              tag_16\n              jump\t// in\n            tag_32:\n              tag_33\n              jump\t// in\n            tag_31:\n              mload(0x40)\n              tag_34\n              swap6\n              swap5\n              swap4\n              swap3\n              swap2\n              swap1\n              tag_35\n              jump\t// in\n            tag_34:\n              mload(0x40)\n              dup1\n              swap2\n              sub\n              swap1\n              return\n                /* \"Campaign.sol\":2881:2910  uint256 public approversCount */\n            tag_6:\n              callvalue\n              dup1\n              iszero\n              tag_36\n              jumpi\n              0x00\n              dup1\n              revert\n            tag_36:\n              pop\n              tag_37\n              tag_38\n              jump\t// in\n            tag_37:\n              mload(0x40)\n              tag_39\n              swap2\n              swap1\n              tag_40\n              jump\t// in\n            tag_39:\n              mload(0x40)\n              dup1\n              swap2\n              sub\n              swap1\n              return\n                /* \"Campaign.sol\":4424:4945  function createRequest(... */\n            tag_7:\n              callvalue\n              dup1\n              iszero\n              tag_41\n              jumpi\n              0x00\n              dup1\n              revert\n            tag_41:\n              pop\n              tag_42\n              0x04\n              dup1\n              calldatasize\n              sub\n              dup2\n              add\n              swap1\n              tag_43\n              swap2\n              swap1\n              tag_44\n              jump\t// in\n            tag_43:\n              tag_45\n              jump\t// in\n            tag_42:\n              stop\n                /* \"Campaign.sol\":1749:1783  uint256 public minimumContribution */\n            tag_8:\n              callvalue\n              dup1\n              iszero\n              tag_46\n              jumpi\n              0x00\n              dup1\n              revert\n            tag_46:\n              pop\n              tag_47\n              tag_48\n              jump\t// in\n            tag_47:\n              mload(0x40)\n              tag_49\n              swap2\n              swap1\n              tag_40\n              jump\t// in\n            tag_49:\n              mload(0x40)\n              dup1\n              swap2\n              sub\n              swap1\n              return\n                /* \"Campaign.sol\":2470:2496  uint256 public numRequests */\n            tag_9:\n              callvalue\n              dup1\n              iszero\n              tag_50\n              jumpi\n              0x00\n              dup1\n              revert\n            tag_50:\n              pop\n              tag_51\n              tag_52\n              jump\t// in\n            tag_51:\n              mload(0x40)\n              tag_53\n              swap2\n              swap1\n              tag_40\n              jump\t// in\n            tag_53:\n              mload(0x40)\n              dup1\n              swap2\n              sub\n              swap1\n              return\n                /* \"Campaign.sol\":3709:4317  function contribute() public payable {... */\n            tag_10:\n              tag_54\n              tag_55\n              jump\t// in\n            tag_54:\n              stop\n                /* \"Campaign.sol\":5148:5966  function approveRequest(uint256 _index) public {... */\n            tag_11:\n              callvalue\n              dup1\n              iszero\n              tag_56\n              jumpi\n              0x00\n              dup1\n              revert\n            tag_56:\n              pop\n              tag_57\n              0x04\n              dup1\n              calldatasize\n              sub\n              dup2\n              add\n              swap1\n              tag_58\n              swap2\n              swap1\n              tag_16\n              jump\t// in\n            tag_58:\n              tag_59\n              jump\t// in\n            tag_57:\n              stop\n                /* \"Campaign.sol\":6007:6528  function finalizeRequest(uint256 _requestIndex) public restricted {... */\n            tag_17:\n                /* \"Campaign.sol\":3021:3028  manager */\n              0x00\n              dup1\n              sload\n              swap1\n              0x0100\n              exp\n              swap1\n              div\n              0xffffffffffffffffffffffffffffffffffffffff\n              and\n                /* \"Campaign.sol\":3007:3028  msg.sender == manager */\n              0xffffffffffffffffffffffffffffffffffffffff\n              and\n                /* \"Campaign.sol\":3007:3017  msg.sender */\n              caller\n                /* \"Campaign.sol\":3007:3028  msg.sender == manager */\n              0xffffffffffffffffffffffffffffffffffffffff\n              and\n              eq\n                /* \"Campaign.sol\":2999:3029  require(msg.sender == manager) */\n              tag_61\n              jumpi\n              0x00\n              dup1\n              revert\n            tag_61:\n                /* \"Campaign.sol\":6084:6107  Request storage request */\n              0x00\n                /* \"Campaign.sol\":6110:6118  requests */\n              0x04\n                /* \"Campaign.sol\":6110:6133  requests[_requestIndex] */\n              0x00\n                /* \"Campaign.sol\":6119:6132  _requestIndex */\n              dup4\n                /* \"Campaign.sol\":6110:6133  requests[_requestIndex] */\n              dup2\n              mstore\n              0x20\n              add\n              swap1\n              dup2\n              mstore\n              0x20\n              add\n              0x00\n              keccak256\n                /* \"Campaign.sol\":6084:6133  Request storage request = requests[_requestIndex] */\n              swap1\n              pop\n                /* \"Campaign.sol\":6250:6251  2 */\n              0x02\n                /* \"Campaign.sol\":6233:6247  approversCount */\n              sload(0x05)\n                /* \"Campaign.sol\":6233:6251  approversCount / 2 */\n              tag_63\n              swap2\n              swap1\n              tag_64\n              jump\t// in\n            tag_63:\n                /* \"Campaign.sol\":6208:6215  request */\n              dup2\n                /* \"Campaign.sol\":6208:6229  request.approvalCount */\n              0x03\n              add\n              sload\n                /* \"Campaign.sol\":6208:6252  request.approvalCount > (approversCount / 2) */\n              gt\n                /* \"Campaign.sol\":6200:6253  require(request.approvalCount > (approversCount / 2)) */\n              tag_65\n              jumpi\n              0x00\n              dup1\n              revert\n            tag_65:\n                /* \"Campaign.sol\":6328:6335  request */\n              dup1\n                /* \"Campaign.sol\":6328:6344  request.complete */\n              0x02\n              add\n              0x14\n              swap1\n              sload\n              swap1\n              0x0100\n              exp\n              swap1\n              div\n              0xff\n              and\n                /* \"Campaign.sol\":6327:6344  !request.complete */\n              iszero\n                /* \"Campaign.sol\":6319:6345  require(!request.complete) */\n              tag_66\n              jumpi\n              0x00\n              dup1\n              revert\n            tag_66:\n                /* \"Campaign.sol\":6404:6411  request */\n              dup1\n                /* \"Campaign.sol\":6404:6421  request.recipient */\n              0x02\n              add\n              0x00\n              swap1\n              sload\n              swap1\n              0x0100\n              exp\n              swap1\n              div\n              0xffffffffffffffffffffffffffffffffffffffff\n              and\n                /* \"Campaign.sol\":6404:6430  request.recipient.transfer */\n              0xffffffffffffffffffffffffffffffffffffffff\n              and\n                /* \"Campaign.sol\":6404:6445  request.recipient.transfer(request.value) */\n              0x08fc\n                /* \"Campaign.sol\":6431:6438  request */\n              dup3\n                /* \"Campaign.sol\":6431:6444  request.value */\n              0x01\n              add\n              sload\n                /* \"Campaign.sol\":6404:6445  request.recipient.transfer(request.value) */\n              swap1\n              dup2\n              iszero\n              mul\n              swap1\n              mload(0x40)\n              0x00\n              mload(0x40)\n              dup1\n              dup4\n              sub\n              dup2\n              dup6\n              dup9\n              dup9\n              call\n              swap4\n              pop\n              pop\n              pop\n              pop\n              iszero\n              dup1\n              iszero\n              tag_68\n              jumpi\n              returndatasize\n              0x00\n              dup1\n              returndatacopy\n              revert(0x00, returndatasize)\n            tag_68:\n              pop\n                /* \"Campaign.sol\":6516:6520  true */\n              0x01\n                /* \"Campaign.sol\":6497:6504  request */\n              dup2\n                /* \"Campaign.sol\":6497:6513  request.complete */\n              0x02\n              add\n              0x14\n                /* \"Campaign.sol\":6497:6520  request.complete = true */\n              0x0100\n              exp\n              dup2\n              sload\n              dup2\n              0xff\n              mul\n              not\n              and\n              swap1\n              dup4\n              iszero\n              iszero\n              mul\n              or\n              swap1\n              sstore\n              pop\n                /* \"Campaign.sol\":6073:6528  {... */\n              pop\n                /* \"Campaign.sol\":6007:6528  function finalizeRequest(uint256 _requestIndex) public restricted {... */\n              pop\n              jump\t// out\n                /* \"Campaign.sol\":1232:1273  mapping(address => bool) public approvers */\n            tag_22:\n              mstore(0x20, 0x01)\n              dup1\n              0x00\n              mstore\n              keccak256(0x00, 0x40)\n              0x00\n              swap2\n              pop\n              sload\n              swap1\n              0x0100\n              exp\n              swap1\n              div\n              0xff\n              and\n              dup2\n              jump\t// out\n                /* \"Campaign.sol\":923:953  address payable public manager */\n            tag_27:\n              0x00\n              dup1\n              sload\n              swap1\n              0x0100\n              exp\n              swap1\n              div\n              0xffffffffffffffffffffffffffffffffffffffff\n              and\n              dup2\n              jump\t// out\n                /* \"Campaign.sol\":2785:2828  mapping(uint256 => Request) public requests */\n            tag_33:\n              mstore(0x20, 0x04)\n              dup1\n              0x00\n              mstore\n              keccak256(0x00, 0x40)\n              0x00\n              swap2\n              pop\n              swap1\n              pop\n              dup1\n              0x00\n              add\n              dup1\n              sload\n              tag_69\n              swap1\n              tag_70\n              jump\t// in\n            tag_69:\n              dup1\n              0x1f\n              add\n              0x20\n              dup1\n              swap2\n              div\n              mul\n              0x20\n              add\n              mload(0x40)\n              swap1\n              dup2\n              add\n              0x40\n              mstore\n              dup1\n              swap3\n              swap2\n              swap1\n              dup2\n              dup2\n              mstore\n              0x20\n              add\n              dup3\n              dup1\n              sload\n              tag_71\n              swap1\n              tag_70\n              jump\t// in\n            tag_71:\n              dup1\n              iszero\n              tag_72\n              jumpi\n              dup1\n              0x1f\n              lt\n              tag_73\n              jumpi\n              0x0100\n              dup1\n              dup4\n              sload\n              div\n              mul\n              dup4\n              mstore\n              swap2\n              0x20\n              add\n              swap2\n              jump(tag_72)\n            tag_73:\n              dup3\n              add\n              swap2\n              swap1\n              0x00\n              mstore\n              keccak256(0x00, 0x20)\n              swap1\n            tag_74:\n              dup2\n              sload\n              dup2\n              mstore\n              swap1\n              0x01\n              add\n              swap1\n              0x20\n              add\n              dup1\n              dup4\n              gt\n              tag_74\n              jumpi\n              dup3\n              swap1\n              sub\n              0x1f\n              and\n              dup3\n              add\n              swap2\n            tag_72:\n              pop\n              pop\n              pop\n              pop\n              pop\n              swap1\n              dup1\n              0x01\n              add\n              sload\n              swap1\n              dup1\n              0x02\n              add\n              0x00\n              swap1\n              sload\n              swap1\n              0x0100\n              exp\n              swap1\n              div\n              0xffffffffffffffffffffffffffffffffffffffff\n              and\n              swap1\n              dup1\n              0x02\n              add\n              0x14\n              swap1\n              sload\n              swap1\n              0x0100\n              exp\n              swap1\n              div\n              0xff\n              and\n              swap1\n              dup1\n              0x03\n              add\n              sload\n              swap1\n              pop\n              dup6\n              jump\t// out\n                /* \"Campaign.sol\":2881:2910  uint256 public approversCount */\n            tag_38:\n              sload(0x05)\n              dup2\n              jump\t// out\n                /* \"Campaign.sol\":4424:4945  function createRequest(... */\n            tag_45:\n                /* \"Campaign.sol\":3021:3028  manager */\n              0x00\n              dup1\n              sload\n              swap1\n              0x0100\n              exp\n              swap1\n              div\n              0xffffffffffffffffffffffffffffffffffffffff\n              and\n                /* \"Campaign.sol\":3007:3028  msg.sender == manager */\n              0xffffffffffffffffffffffffffffffffffffffff\n              and\n                /* \"Campaign.sol\":3007:3017  msg.sender */\n              caller\n                /* \"Campaign.sol\":3007:3028  msg.sender == manager */\n              0xffffffffffffffffffffffffffffffffffffffff\n              and\n              eq\n                /* \"Campaign.sol\":2999:3029  require(msg.sender == manager) */\n              tag_76\n              jumpi\n              0x00\n              dup1\n              revert\n            tag_76:\n                /* \"Campaign.sol\":4638:4664  Request storage newRequest */\n              0x00\n                /* \"Campaign.sol\":4667:4675  requests */\n              0x04\n                /* \"Campaign.sol\":4667:4690  requests[numRequests++] */\n              0x00\n                /* \"Campaign.sol\":4676:4687  numRequests */\n              0x03\n              0x00\n                /* \"Campaign.sol\":4676:4689  numRequests++ */\n              dup2\n              sload\n              dup1\n              swap3\n              swap2\n              swap1\n              tag_78\n              swap1\n              tag_79\n              jump\t// in\n            tag_78:\n              swap2\n              swap1\n              pop\n              sstore\n                /* \"Campaign.sol\":4667:4690  requests[numRequests++] */\n              dup2\n              mstore\n              0x20\n              add\n              swap1\n              dup2\n              mstore\n              0x20\n              add\n              0x00\n              keccak256\n                /* \"Campaign.sol\":4638:4690  Request storage newRequest = requests[numRequests++] */\n              swap1\n              pop\n                /* \"Campaign.sol\":4768:4780  _description */\n              dup5\n              dup5\n                /* \"Campaign.sol\":4743:4753  newRequest */\n              dup3\n                /* \"Campaign.sol\":4743:4765  newRequest.description */\n              0x00\n              add\n                /* \"Campaign.sol\":4743:4780  newRequest.description = _description */\n              swap2\n              swap1\n              tag_80\n              swap3\n              swap2\n              swap1\n              tag_81\n              jump\t// in\n            tag_80:\n              pop\n                /* \"Campaign.sol\":4810:4816  _value */\n              dup3\n                /* \"Campaign.sol\":4791:4801  newRequest */\n              dup2\n                /* \"Campaign.sol\":4791:4807  newRequest.value */\n              0x01\n              add\n                /* \"Campaign.sol\":4791:4816  newRequest.value = _value */\n              dup2\n              swap1\n              sstore\n              pop\n                /* \"Campaign.sol\":4850:4860  _recipient */\n              dup2\n                /* \"Campaign.sol\":4827:4837  newRequest */\n              dup2\n                /* \"Campaign.sol\":4827:4847  newRequest.recipient */\n              0x02\n              add\n              0x00\n                /* \"Campaign.sol\":4827:4860  newRequest.recipient = _recipient */\n              0x0100\n              exp\n              dup2\n              sload\n              dup2\n              0xffffffffffffffffffffffffffffffffffffffff\n              mul\n              not\n              and\n              swap1\n              dup4\n              0xffffffffffffffffffffffffffffffffffffffff\n              and\n              mul\n              or\n              swap1\n              sstore\n              pop\n                /* \"Campaign.sol\":4893:4898  false */\n              0x00\n                /* \"Campaign.sol\":4871:4881  newRequest */\n              dup2\n                /* \"Campaign.sol\":4871:4890  newRequest.complete */\n              0x02\n              add\n              0x14\n                /* \"Campaign.sol\":4871:4898  newRequest.complete = false */\n              0x0100\n              exp\n              dup2\n              sload\n              dup2\n              0xff\n              mul\n              not\n              and\n              swap1\n              dup4\n              iszero\n              iszero\n              mul\n              or\n              swap1\n              sstore\n              pop\n                /* \"Campaign.sol\":4936:4937  0 */\n              0x00\n                /* \"Campaign.sol\":4909:4919  newRequest */\n              dup2\n                /* \"Campaign.sol\":4909:4933  newRequest.approvalCount */\n              0x03\n              add\n                /* \"Campaign.sol\":4909:4937  newRequest.approvalCount = 0 */\n              dup2\n              swap1\n              sstore\n              pop\n                /* \"Campaign.sol\":4573:4945  {... */\n              pop\n                /* \"Campaign.sol\":4424:4945  function createRequest(... */\n              pop\n              pop\n              pop\n              pop\n              jump\t// out\n                /* \"Campaign.sol\":1749:1783  uint256 public minimumContribution */\n            tag_48:\n              sload(0x02)\n              dup2\n              jump\t// out\n                /* \"Campaign.sol\":2470:2496  uint256 public numRequests */\n            tag_52:\n              sload(0x03)\n              dup2\n              jump\t// out\n                /* \"Campaign.sol\":3709:4317  function contribute() public payable {... */\n            tag_55:\n                /* \"Campaign.sol\":3915:3934  minimumContribution */\n              sload(0x02)\n                /* \"Campaign.sol\":3903:3912  msg.value */\n              callvalue\n                /* \"Campaign.sol\":3903:3934  msg.value > minimumContribution */\n              gt\n                /* \"Campaign.sol\":3895:3935  require(msg.value > minimumContribution) */\n              tag_83\n              jumpi\n              0x00\n              dup1\n              revert\n            tag_83:\n                /* \"Campaign.sol\":4037:4041  true */\n              0x01\n                /* \"Campaign.sol\":4013:4022  approvers */\n              dup1\n                /* \"Campaign.sol\":4013:4034  approvers[msg.sender] */\n              0x00\n                /* \"Campaign.sol\":4023:4033  msg.sender */\n              caller\n                /* \"Campaign.sol\":4013:4034  approvers[msg.sender] */\n              0xffffffffffffffffffffffffffffffffffffffff\n              and\n              0xffffffffffffffffffffffffffffffffffffffff\n              and\n              dup2\n              mstore\n              0x20\n              add\n              swap1\n              dup2\n              mstore\n              0x20\n              add\n              0x00\n              keccak256\n              0x00\n                /* \"Campaign.sol\":4013:4041  approvers[msg.sender] = true */\n              0x0100\n              exp\n              dup2\n              sload\n              dup2\n              0xff\n              mul\n              not\n              and\n              swap1\n              dup4\n              iszero\n              iszero\n              mul\n              or\n              swap1\n              sstore\n              pop\n                /* \"Campaign.sol\":4167:4181  approversCount */\n              0x05\n              0x00\n                /* \"Campaign.sol\":4167:4183  approversCount++ */\n              dup2\n              sload\n              dup1\n              swap3\n              swap2\n              swap1\n              tag_84\n              swap1\n              tag_79\n              jump\t// in\n            tag_84:\n              swap2\n              swap1\n              pop\n              sstore\n              pop\n                /* \"Campaign.sol\":3709:4317  function contribute() public payable {... */\n              jump\t// out\n                /* \"Campaign.sol\":5148:5966  function approveRequest(uint256 _index) public {... */\n            tag_59:\n                /* \"Campaign.sol\":5363:5386  Request storage request */\n              0x00\n                /* \"Campaign.sol\":5389:5397  requests */\n              0x04\n                /* \"Campaign.sol\":5389:5405  requests[_index] */\n              0x00\n                /* \"Campaign.sol\":5398:5404  _index */\n              dup4\n                /* \"Campaign.sol\":5389:5405  requests[_index] */\n              dup2\n              mstore\n              0x20\n              add\n              swap1\n              dup2\n              mstore\n              0x20\n              add\n              0x00\n              keccak256\n                /* \"Campaign.sol\":5363:5405  Request storage request = requests[_index] */\n              swap1\n              pop\n                /* \"Campaign.sol\":5500:5509  approvers */\n              0x01\n                /* \"Campaign.sol\":5500:5521  approvers[msg.sender] */\n              0x00\n                /* \"Campaign.sol\":5510:5520  msg.sender */\n              caller\n                /* \"Campaign.sol\":5500:5521  approvers[msg.sender] */\n              0xffffffffffffffffffffffffffffffffffffffff\n              and\n              0xffffffffffffffffffffffffffffffffffffffff\n              and\n              dup2\n              mstore\n              0x20\n              add\n              swap1\n              dup2\n              mstore\n              0x20\n              add\n              0x00\n              keccak256\n              0x00\n              swap1\n              sload\n              swap1\n              0x0100\n              exp\n              swap1\n              div\n              0xff\n              and\n                /* \"Campaign.sol\":5492:5522  require(approvers[msg.sender]) */\n              tag_86\n              jumpi\n              0x00\n              dup1\n              revert\n            tag_86:\n                /* \"Campaign.sol\":5757:5764  request */\n              dup1\n                /* \"Campaign.sol\":5757:5774  request.approvals */\n              0x04\n              add\n                /* \"Campaign.sol\":5757:5786  request.approvals[msg.sender] */\n              0x00\n                /* \"Campaign.sol\":5775:5785  msg.sender */\n              caller\n                /* \"Campaign.sol\":5757:5786  request.approvals[msg.sender] */\n              0xffffffffffffffffffffffffffffffffffffffff\n              and\n              0xffffffffffffffffffffffffffffffffffffffff\n              and\n              dup2\n              mstore\n              0x20\n              add\n              swap1\n              dup2\n              mstore\n              0x20\n              add\n              0x00\n              keccak256\n              0x00\n              swap1\n              sload\n              swap1\n              0x0100\n              exp\n              swap1\n              div\n              0xff\n              and\n                /* \"Campaign.sol\":5756:5786  !request.approvals[msg.sender] */\n              iszero\n                /* \"Campaign.sol\":5748:5787  require(!request.approvals[msg.sender]) */\n              tag_87\n              jumpi\n              0x00\n              dup1\n              revert\n            tag_87:\n                /* \"Campaign.sol\":5884:5888  true */\n              0x01\n                /* \"Campaign.sol\":5852:5859  request */\n              dup2\n                /* \"Campaign.sol\":5852:5869  request.approvals */\n              0x04\n              add\n                /* \"Campaign.sol\":5852:5881  request.approvals[msg.sender] */\n              0x00\n                /* \"Campaign.sol\":5870:5880  msg.sender */\n              caller\n                /* \"Campaign.sol\":5852:5881  request.approvals[msg.sender] */\n              0xffffffffffffffffffffffffffffffffffffffff\n              and\n              0xffffffffffffffffffffffffffffffffffffffff\n              and\n              dup2\n              mstore\n              0x20\n              add\n              swap1\n              dup2\n              mstore\n              0x20\n              add\n              0x00\n              keccak256\n              0x00\n                /* \"Campaign.sol\":5852:5888  request.approvals[msg.sender] = true */\n              0x0100\n              exp\n              dup2\n              sload\n              dup2\n              0xff\n              mul\n              not\n              and\n              swap1\n              dup4\n              iszero\n              iszero\n              mul\n              or\n              swap1\n              sstore\n              pop\n                /* \"Campaign.sol\":5935:5942  request */\n              dup1\n                /* \"Campaign.sol\":5935:5956  request.approvalCount */\n              0x03\n              add\n              0x00\n                /* \"Campaign.sol\":5935:5958  request.approvalCount++ */\n              dup2\n              sload\n              dup1\n              swap3\n              swap2\n              swap1\n              tag_88\n              swap1\n              tag_79\n              jump\t// in\n            tag_88:\n              swap2\n              swap1\n              pop\n              sstore\n              pop\n                /* \"Campaign.sol\":5195:5966  {... */\n              pop\n                /* \"Campaign.sol\":5148:5966  function approveRequest(uint256 _index) public {... */\n              pop\n              jump\t// out\n            tag_81:\n              dup3\n              dup1\n              sload\n              tag_89\n              swap1\n              tag_70\n              jump\t// in\n            tag_89:\n              swap1\n              0x00\n              mstore\n              keccak256(0x00, 0x20)\n              swap1\n              0x1f\n              add\n              0x20\n              swap1\n              div\n              dup2\n              add\n              swap3\n              dup3\n              tag_91\n              jumpi\n              0x00\n              dup6\n              sstore\n              jump(tag_90)\n            tag_91:\n              dup3\n              0x1f\n              lt\n              tag_92\n              jumpi\n              dup1\n              calldataload\n              not(0xff)\n              and\n              dup4\n              dup1\n              add\n              or\n              dup6\n              sstore\n              jump(tag_90)\n            tag_92:\n              dup3\n              dup1\n              add\n              0x01\n              add\n              dup6\n              sstore\n              dup3\n              iszero\n              tag_90\n              jumpi\n              swap2\n              dup3\n              add\n            tag_93:\n              dup3\n              dup2\n              gt\n              iszero\n              tag_94\n              jumpi\n              dup3\n              calldataload\n              dup3\n              sstore\n              swap2\n              0x20\n              add\n              swap2\n              swap1\n              0x01\n              add\n              swap1\n              jump(tag_93)\n            tag_94:\n            tag_90:\n              pop\n              swap1\n              pop\n              tag_95\n              swap2\n              swap1\n              tag_96\n              jump\t// in\n            tag_95:\n              pop\n              swap1\n              jump\t// out\n            tag_96:\n            tag_97:\n              dup1\n              dup3\n              gt\n              iszero\n              tag_98\n              jumpi\n              0x00\n              dup2\n              0x00\n              swap1\n              sstore\n              pop\n              0x01\n              add\n              jump(tag_97)\n            tag_98:\n              pop\n              swap1\n              jump\t// out\n                /* \"#utility.yul\":88:205   */\n            tag_100:\n                /* \"#utility.yul\":197:198   */\n              0x00\n                /* \"#utility.yul\":194:195   */\n              dup1\n                /* \"#utility.yul\":187:199   */\n              revert\n                /* \"#utility.yul\":211:328   */\n            tag_101:\n                /* \"#utility.yul\":320:321   */\n              0x00\n                /* \"#utility.yul\":317:318   */\n              dup1\n                /* \"#utility.yul\":310:322   */\n              revert\n                /* \"#utility.yul\":334:411   */\n            tag_102:\n                /* \"#utility.yul\":371:378   */\n              0x00\n                /* \"#utility.yul\":400:405   */\n              dup2\n                /* \"#utility.yul\":389:405   */\n              swap1\n              pop\n                /* \"#utility.yul\":334:411   */\n              swap2\n              swap1\n              pop\n              jump\t// out\n                /* \"#utility.yul\":417:539   */\n            tag_103:\n                /* \"#utility.yul\":490:514   */\n              tag_134\n                /* \"#utility.yul\":508:513   */\n              dup2\n                /* \"#utility.yul\":490:514   */\n              tag_102\n              jump\t// in\n            tag_134:\n                /* \"#utility.yul\":483:488   */\n              dup2\n                /* \"#utility.yul\":480:515   */\n              eq\n                /* \"#utility.yul\":470:533   */\n              tag_135\n              jumpi\n                /* \"#utility.yul\":529:530   */\n              0x00\n                /* \"#utility.yul\":526:527   */\n              dup1\n                /* \"#utility.yul\":519:531   */\n              revert\n                /* \"#utility.yul\":470:533   */\n            tag_135:\n                /* \"#utility.yul\":417:539   */\n              pop\n              jump\t// out\n                /* \"#utility.yul\":545:684   */\n            tag_104:\n                /* \"#utility.yul\":591:596   */\n              0x00\n                /* \"#utility.yul\":629:635   */\n              dup2\n                /* \"#utility.yul\":616:636   */\n              calldataload\n                /* \"#utility.yul\":607:636   */\n              swap1\n              pop\n                /* \"#utility.yul\":645:678   */\n              tag_137\n                /* \"#utility.yul\":672:677   */\n              dup2\n                /* \"#utility.yul\":645:678   */\n              tag_103\n              jump\t// in\n            tag_137:\n                /* \"#utility.yul\":545:684   */\n              swap3\n              swap2\n              pop\n              pop\n              jump\t// out\n                /* \"#utility.yul\":690:1019   */\n            tag_16:\n                /* \"#utility.yul\":749:755   */\n              0x00\n                /* \"#utility.yul\":798:800   */\n              0x20\n                /* \"#utility.yul\":786:795   */\n              dup3\n                /* \"#utility.yul\":777:784   */\n              dup5\n                /* \"#utility.yul\":773:796   */\n              sub\n                /* \"#utility.yul\":769:801   */\n              slt\n                /* \"#utility.yul\":766:885   */\n              iszero\n              tag_139\n              jumpi\n                /* \"#utility.yul\":804:883   */\n              tag_140\n              tag_100\n              jump\t// in\n            tag_140:\n                /* \"#utility.yul\":766:885   */\n            tag_139:\n                /* \"#utility.yul\":924:925   */\n              0x00\n                /* \"#utility.yul\":949:1002   */\n              tag_141\n                /* \"#utility.yul\":994:1001   */\n              dup5\n                /* \"#utility.yul\":985:991   */\n              dup3\n                /* \"#utility.yul\":974:983   */\n              dup6\n                /* \"#utility.yul\":970:992   */\n              add\n                /* \"#utility.yul\":949:1002   */\n              tag_104\n              jump\t// in\n            tag_141:\n                /* \"#utility.yul\":939:1002   */\n              swap2\n              pop\n                /* \"#utility.yul\":895:1012   */\n              pop\n                /* \"#utility.yul\":690:1019   */\n              swap3\n              swap2\n              pop\n              pop\n              jump\t// out\n                /* \"#utility.yul\":1025:1151   */\n            tag_105:\n                /* \"#utility.yul\":1062:1069   */\n              0x00\n                /* \"#utility.yul\":1102:1144   */\n              0xffffffffffffffffffffffffffffffffffffffff\n                /* \"#utility.yul\":1095:1100   */\n              dup3\n                /* \"#utility.yul\":1091:1145   */\n              and\n                /* \"#utility.yul\":1080:1145   */\n              swap1\n              pop\n                /* \"#utility.yul\":1025:1151   */\n              swap2\n              swap1\n              pop\n              jump\t// out\n                /* \"#utility.yul\":1157:1253   */\n            tag_106:\n                /* \"#utility.yul\":1194:1201   */\n              0x00\n                /* \"#utility.yul\":1223:1247   */\n              tag_144\n                /* \"#utility.yul\":1241:1246   */\n              dup3\n                /* \"#utility.yul\":1223:1247   */\n              tag_105\n              jump\t// in\n            tag_144:\n                /* \"#utility.yul\":1212:1247   */\n              swap1\n              pop\n                /* \"#utility.yul\":1157:1253   */\n              swap2\n              swap1\n              pop\n              jump\t// out\n                /* \"#utility.yul\":1259:1381   */\n            tag_107:\n                /* \"#utility.yul\":1332:1356   */\n              tag_146\n                /* \"#utility.yul\":1350:1355   */\n              dup2\n                /* \"#utility.yul\":1332:1356   */\n              tag_106\n              jump\t// in\n            tag_146:\n                /* \"#utility.yul\":1325:1330   */\n              dup2\n                /* \"#utility.yul\":1322:1357   */\n              eq\n                /* \"#utility.yul\":1312:1375   */\n              tag_147\n              jumpi\n                /* \"#utility.yul\":1371:1372   */\n              0x00\n                /* \"#utility.yul\":1368:1369   */\n              dup1\n                /* \"#utility.yul\":1361:1373   */\n              revert\n                /* \"#utility.yul\":1312:1375   */\n            tag_147:\n                /* \"#utility.yul\":1259:1381   */\n              pop\n              jump\t// out\n                /* \"#utility.yul\":1387:1526   */\n            tag_108:\n                /* \"#utility.yul\":1433:1438   */\n              0x00\n                /* \"#utility.yul\":1471:1477   */\n              dup2\n                /* \"#utility.yul\":1458:1478   */\n              calldataload\n                /* \"#utility.yul\":1449:1478   */\n              swap1\n              pop\n                /* \"#utility.yul\":1487:1520   */\n              tag_149\n                /* \"#utility.yul\":1514:1519   */\n              dup2\n                /* \"#utility.yul\":1487:1520   */\n              tag_107\n              jump\t// in\n            tag_149:\n                /* \"#utility.yul\":1387:1526   */\n              swap3\n              swap2\n              pop\n              pop\n              jump\t// out\n                /* \"#utility.yul\":1532:1861   */\n            tag_21:\n                /* \"#utility.yul\":1591:1597   */\n              0x00\n                /* \"#utility.yul\":1640:1642   */\n              0x20\n                /* \"#utility.yul\":1628:1637   */\n              dup3\n                /* \"#utility.yul\":1619:1626   */\n              dup5\n                /* \"#utility.yul\":1615:1638   */\n              sub\n                /* \"#utility.yul\":1611:1643   */\n              slt\n                /* \"#utility.yul\":1608:1727   */\n              iszero\n              tag_151\n              jumpi\n                /* \"#utility.yul\":1646:1725   */\n              tag_152\n              tag_100\n              jump\t// in\n            tag_152:\n                /* \"#utility.yul\":1608:1727   */\n            tag_151:\n                /* \"#utility.yul\":1766:1767   */\n              0x00\n                /* \"#utility.yul\":1791:1844   */\n              tag_153\n                /* \"#utility.yul\":1836:1843   */\n              dup5\n                /* \"#utility.yul\":1827:1833   */\n              dup3\n                /* \"#utility.yul\":1816:1825   */\n              dup6\n                /* \"#utility.yul\":1812:1834   */\n              add\n                /* \"#utility.yul\":1791:1844   */\n              tag_108\n              jump\t// in\n            tag_153:\n                /* \"#utility.yul\":1781:1844   */\n              swap2\n              pop\n                /* \"#utility.yul\":1737:1854   */\n              pop\n                /* \"#utility.yul\":1532:1861   */\n              swap3\n              swap2\n              pop\n              pop\n              jump\t// out\n                /* \"#utility.yul\":1867:1957   */\n            tag_109:\n                /* \"#utility.yul\":1901:1908   */\n              0x00\n                /* \"#utility.yul\":1944:1949   */\n              dup2\n                /* \"#utility.yul\":1937:1950   */\n              iszero\n                /* \"#utility.yul\":1930:1951   */\n              iszero\n                /* \"#utility.yul\":1919:1951   */\n              swap1\n              pop\n                /* \"#utility.yul\":1867:1957   */\n              swap2\n              swap1\n              pop\n              jump\t// out\n                /* \"#utility.yul\":1963:2072   */\n            tag_110:\n                /* \"#utility.yul\":2044:2065   */\n              tag_156\n                /* \"#utility.yul\":2059:2064   */\n              dup2\n                /* \"#utility.yul\":2044:2065   */\n              tag_109\n              jump\t// in\n            tag_156:\n                /* \"#utility.yul\":2039:2042   */\n              dup3\n                /* \"#utility.yul\":2032:2066   */\n              mstore\n                /* \"#utility.yul\":1963:2072   */\n              pop\n              pop\n              jump\t// out\n                /* \"#utility.yul\":2078:2288   */\n            tag_24:\n                /* \"#utility.yul\":2165:2169   */\n              0x00\n                /* \"#utility.yul\":2203:2205   */\n              0x20\n                /* \"#utility.yul\":2192:2201   */\n              dup3\n                /* \"#utility.yul\":2188:2206   */\n              add\n                /* \"#utility.yul\":2180:2206   */\n              swap1\n              pop\n                /* \"#utility.yul\":2216:2281   */\n              tag_158\n                /* \"#utility.yul\":2278:2279   */\n              0x00\n                /* \"#utility.yul\":2267:2276   */\n              dup4\n                /* \"#utility.yul\":2263:2280   */\n              add\n                /* \"#utility.yul\":2254:2260   */\n              dup5\n                /* \"#utility.yul\":2216:2281   */\n              tag_110\n              jump\t// in\n            tag_158:\n                /* \"#utility.yul\":2078:2288   */\n              swap3\n              swap2\n              pop\n              pop\n              jump\t// out\n                /* \"#utility.yul\":2294:2398   */\n            tag_111:\n                /* \"#utility.yul\":2339:2346   */\n              0x00\n                /* \"#utility.yul\":2368:2392   */\n              tag_160\n                /* \"#utility.yul\":2386:2391   */\n              dup3\n                /* \"#utility.yul\":2368:2392   */\n              tag_105\n              jump\t// in\n            tag_160:\n                /* \"#utility.yul\":2357:2392   */\n              swap1\n              pop\n                /* \"#utility.yul\":2294:2398   */\n              swap2\n              swap1\n              pop\n              jump\t// out\n                /* \"#utility.yul\":2404:2546   */\n            tag_112:\n                /* \"#utility.yul\":2507:2539   */\n              tag_162\n                /* \"#utility.yul\":2533:2538   */\n              dup2\n                /* \"#utility.yul\":2507:2539   */\n              tag_111\n              jump\t// in\n            tag_162:\n                /* \"#utility.yul\":2502:2505   */\n              dup3\n                /* \"#utility.yul\":2495:2540   */\n              mstore\n                /* \"#utility.yul\":2404:2546   */\n              pop\n              pop\n              jump\t// out\n                /* \"#utility.yul\":2552:2806   */\n            tag_29:\n                /* \"#utility.yul\":2661:2665   */\n              0x00\n                /* \"#utility.yul\":2699:2701   */\n              0x20\n                /* \"#utility.yul\":2688:2697   */\n              dup3\n                /* \"#utility.yul\":2684:2702   */\n              add\n                /* \"#utility.yul\":2676:2702   */\n              swap1\n              pop\n                /* \"#utility.yul\":2712:2799   */\n              tag_164\n                /* \"#utility.yul\":2796:2797   */\n              0x00\n                /* \"#utility.yul\":2785:2794   */\n              dup4\n                /* \"#utility.yul\":2781:2798   */\n              add\n                /* \"#utility.yul\":2772:2778   */\n              dup5\n                /* \"#utility.yul\":2712:2799   */\n              tag_112\n              jump\t// in\n            tag_164:\n                /* \"#utility.yul\":2552:2806   */\n              swap3\n              swap2\n              pop\n              pop\n              jump\t// out\n                /* \"#utility.yul\":2812:2911   */\n            tag_113:\n                /* \"#utility.yul\":2864:2870   */\n              0x00\n                /* \"#utility.yul\":2898:2903   */\n              dup2\n                /* \"#utility.yul\":2892:2904   */\n              mload\n                /* \"#utility.yul\":2882:2904   */\n              swap1\n              pop\n                /* \"#utility.yul\":2812:2911   */\n              swap2\n              swap1\n              pop\n              jump\t// out\n                /* \"#utility.yul\":2917:3086   */\n            tag_114:\n                /* \"#utility.yul\":3001:3012   */\n              0x00\n                /* \"#utility.yul\":3035:3041   */\n              dup3\n                /* \"#utility.yul\":3030:3033   */\n              dup3\n                /* \"#utility.yul\":3023:3042   */\n              mstore\n                /* \"#utility.yul\":3075:3079   */\n              0x20\n                /* \"#utility.yul\":3070:3073   */\n              dup3\n                /* \"#utility.yul\":3066:3080   */\n              add\n                /* \"#utility.yul\":3051:3080   */\n              swap1\n              pop\n                /* \"#utility.yul\":2917:3086   */\n              swap3\n              swap2\n              pop\n              pop\n              jump\t// out\n                /* \"#utility.yul\":3092:3399   */\n            tag_115:\n                /* \"#utility.yul\":3160:3161   */\n              0x00\n                /* \"#utility.yul\":3170:3283   */\n            tag_168:\n                /* \"#utility.yul\":3184:3190   */\n              dup4\n                /* \"#utility.yul\":3181:3182   */\n              dup2\n                /* \"#utility.yul\":3178:3191   */\n              lt\n                /* \"#utility.yul\":3170:3283   */\n              iszero\n              tag_170\n              jumpi\n                /* \"#utility.yul\":3269:3270   */\n              dup1\n                /* \"#utility.yul\":3264:3267   */\n              dup3\n                /* \"#utility.yul\":3260:3271   */\n              add\n                /* \"#utility.yul\":3254:3272   */\n              mload\n                /* \"#utility.yul\":3250:3251   */\n              dup2\n                /* \"#utility.yul\":3245:3248   */\n              dup5\n                /* \"#utility.yul\":3241:3252   */\n              add\n                /* \"#utility.yul\":3234:3273   */\n              mstore\n                /* \"#utility.yul\":3206:3208   */\n              0x20\n                /* \"#utility.yul\":3203:3204   */\n              dup2\n                /* \"#utility.yul\":3199:3209   */\n              add\n                /* \"#utility.yul\":3194:3209   */\n              swap1\n              pop\n                /* \"#utility.yul\":3170:3283   */\n              jump(tag_168)\n            tag_170:\n                /* \"#utility.yul\":3301:3307   */\n              dup4\n                /* \"#utility.yul\":3298:3299   */\n              dup2\n                /* \"#utility.yul\":3295:3308   */\n              gt\n                /* \"#utility.yul\":3292:3393   */\n              iszero\n              tag_171\n              jumpi\n                /* \"#utility.yul\":3381:3382   */\n              0x00\n                /* \"#utility.yul\":3372:3378   */\n              dup5\n                /* \"#utility.yul\":3367:3370   */\n              dup5\n                /* \"#utility.yul\":3363:3379   */\n              add\n                /* \"#utility.yul\":3356:3383   */\n              mstore\n                /* \"#utility.yul\":3292:3393   */\n            tag_171:\n                /* \"#utility.yul\":3141:3399   */\n              pop\n                /* \"#utility.yul\":3092:3399   */\n              pop\n              pop\n              pop\n              jump\t// out\n                /* \"#utility.yul\":3405:3507   */\n            tag_116:\n                /* \"#utility.yul\":3446:3452   */\n              0x00\n                /* \"#utility.yul\":3497:3499   */\n              0x1f\n                /* \"#utility.yul\":3493:3500   */\n              not\n                /* \"#utility.yul\":3488:3490   */\n              0x1f\n                /* \"#utility.yul\":3481:3486   */\n              dup4\n                /* \"#utility.yul\":3477:3491   */\n              add\n                /* \"#utility.yul\":3473:3501   */\n              and\n                /* \"#utility.yul\":3463:3501   */\n              swap1\n              pop\n                /* \"#utility.yul\":3405:3507   */\n              swap2\n              swap1\n              pop\n              jump\t// out\n                /* \"#utility.yul\":3513:3877   */\n            tag_117:\n                /* \"#utility.yul\":3601:3604   */\n              0x00\n                /* \"#utility.yul\":3629:3668   */\n              tag_174\n                /* \"#utility.yul\":3662:3667   */\n              dup3\n                /* \"#utility.yul\":3629:3668   */\n              tag_113\n              jump\t// in\n            tag_174:\n                /* \"#utility.yul\":3684:3755   */\n              tag_175\n                /* \"#utility.yul\":3748:3754   */\n              dup2\n                /* \"#utility.yul\":3743:3746   */\n              dup6\n                /* \"#utility.yul\":3684:3755   */\n              tag_114\n              jump\t// in\n            tag_175:\n                /* \"#utility.yul\":3677:3755   */\n              swap4\n              pop\n                /* \"#utility.yul\":3764:3816   */\n              tag_176\n                /* \"#utility.yul\":3809:3815   */\n              dup2\n                /* \"#utility.yul\":3804:3807   */\n              dup6\n                /* \"#utility.yul\":3797:3801   */\n              0x20\n                /* \"#utility.yul\":3790:3795   */\n              dup7\n                /* \"#utility.yul\":3786:3802   */\n              add\n                /* \"#utility.yul\":3764:3816   */\n              tag_115\n              jump\t// in\n            tag_176:\n                /* \"#utility.yul\":3841:3870   */\n              tag_177\n                /* \"#utility.yul\":3863:3869   */\n              dup2\n                /* \"#utility.yul\":3841:3870   */\n              tag_116\n              jump\t// in\n            tag_177:\n                /* \"#utility.yul\":3836:3839   */\n              dup5\n                /* \"#utility.yul\":3832:3871   */\n              add\n                /* \"#utility.yul\":3825:3871   */\n              swap2\n              pop\n                /* \"#utility.yul\":3605:3877   */\n              pop\n                /* \"#utility.yul\":3513:3877   */\n              swap3\n              swap2\n              pop\n              pop\n              jump\t// out\n                /* \"#utility.yul\":3883:4001   */\n            tag_118:\n                /* \"#utility.yul\":3970:3994   */\n              tag_179\n                /* \"#utility.yul\":3988:3993   */\n              dup2\n                /* \"#utility.yul\":3970:3994   */\n              tag_102\n              jump\t// in\n            tag_179:\n                /* \"#utility.yul\":3965:3968   */\n              dup3\n                /* \"#utility.yul\":3958:3995   */\n              mstore\n                /* \"#utility.yul\":3883:4001   */\n              pop\n              pop\n              jump\t// out\n                /* \"#utility.yul\":4007:4782   */\n            tag_35:\n                /* \"#utility.yul\":4242:4246   */\n              0x00\n                /* \"#utility.yul\":4280:4283   */\n              0xa0\n                /* \"#utility.yul\":4269:4278   */\n              dup3\n                /* \"#utility.yul\":4265:4284   */\n              add\n                /* \"#utility.yul\":4257:4284   */\n              swap1\n              pop\n                /* \"#utility.yul\":4330:4339   */\n              dup2\n                /* \"#utility.yul\":4324:4328   */\n              dup2\n                /* \"#utility.yul\":4320:4340   */\n              sub\n                /* \"#utility.yul\":4316:4317   */\n              0x00\n                /* \"#utility.yul\":4305:4314   */\n              dup4\n                /* \"#utility.yul\":4301:4318   */\n              add\n                /* \"#utility.yul\":4294:4341   */\n              mstore\n                /* \"#utility.yul\":4358:4436   */\n              tag_181\n                /* \"#utility.yul\":4431:4435   */\n              dup2\n                /* \"#utility.yul\":4422:4428   */\n              dup9\n                /* \"#utility.yul\":4358:4436   */\n              tag_117\n              jump\t// in\n            tag_181:\n                /* \"#utility.yul\":4350:4436   */\n              swap1\n              pop\n                /* \"#utility.yul\":4446:4518   */\n              tag_182\n                /* \"#utility.yul\":4514:4516   */\n              0x20\n                /* \"#utility.yul\":4503:4512   */\n              dup4\n                /* \"#utility.yul\":4499:4517   */\n              add\n                /* \"#utility.yul\":4490:4496   */\n              dup8\n                /* \"#utility.yul\":4446:4518   */\n              tag_118\n              jump\t// in\n            tag_182:\n                /* \"#utility.yul\":4528:4616   */\n              tag_183\n                /* \"#utility.yul\":4612:4614   */\n              0x40\n                /* \"#utility.yul\":4601:4610   */\n              dup4\n                /* \"#utility.yul\":4597:4615   */\n              add\n                /* \"#utility.yul\":4588:4594   */\n              dup7\n                /* \"#utility.yul\":4528:4616   */\n              tag_112\n              jump\t// in\n            tag_183:\n                /* \"#utility.yul\":4626:4692   */\n              tag_184\n                /* \"#utility.yul\":4688:4690   */\n              0x60\n                /* \"#utility.yul\":4677:4686   */\n              dup4\n                /* \"#utility.yul\":4673:4691   */\n              add\n                /* \"#utility.yul\":4664:4670   */\n              dup6\n                /* \"#utility.yul\":4626:4692   */\n              tag_110\n              jump\t// in\n            tag_184:\n                /* \"#utility.yul\":4702:4775   */\n              tag_185\n                /* \"#utility.yul\":4770:4773   */\n              0x80\n                /* \"#utility.yul\":4759:4768   */\n              dup4\n                /* \"#utility.yul\":4755:4774   */\n              add\n                /* \"#utility.yul\":4746:4752   */\n              dup5\n                /* \"#utility.yul\":4702:4775   */\n              tag_118\n              jump\t// in\n            tag_185:\n                /* \"#utility.yul\":4007:4782   */\n              swap7\n              swap6\n              pop\n              pop\n              pop\n              pop\n              pop\n              pop\n              jump\t// out\n                /* \"#utility.yul\":4788:5010   */\n            tag_40:\n                /* \"#utility.yul\":4881:4885   */\n              0x00\n                /* \"#utility.yul\":4919:4921   */\n              0x20\n                /* \"#utility.yul\":4908:4917   */\n              dup3\n                /* \"#utility.yul\":4904:4922   */\n              add\n                /* \"#utility.yul\":4896:4922   */\n              swap1\n              pop\n                /* \"#utility.yul\":4932:5003   */\n              tag_187\n                /* \"#utility.yul\":5000:5001   */\n              0x00\n                /* \"#utility.yul\":4989:4998   */\n              dup4\n                /* \"#utility.yul\":4985:5002   */\n              add\n                /* \"#utility.yul\":4976:4982   */\n              dup5\n                /* \"#utility.yul\":4932:5003   */\n              tag_118\n              jump\t// in\n            tag_187:\n                /* \"#utility.yul\":4788:5010   */\n              swap3\n              swap2\n              pop\n              pop\n              jump\t// out\n                /* \"#utility.yul\":5016:5133   */\n            tag_119:\n                /* \"#utility.yul\":5125:5126   */\n              0x00\n                /* \"#utility.yul\":5122:5123   */\n              dup1\n                /* \"#utility.yul\":5115:5127   */\n              revert\n                /* \"#utility.yul\":5139:5256   */\n            tag_120:\n                /* \"#utility.yul\":5248:5249   */\n              0x00\n                /* \"#utility.yul\":5245:5246   */\n              dup1\n                /* \"#utility.yul\":5238:5250   */\n              revert\n                /* \"#utility.yul\":5262:5379   */\n            tag_121:\n                /* \"#utility.yul\":5371:5372   */\n              0x00\n                /* \"#utility.yul\":5368:5369   */\n              dup1\n                /* \"#utility.yul\":5361:5373   */\n              revert\n                /* \"#utility.yul\":5399:5952   */\n            tag_122:\n                /* \"#utility.yul\":5457:5465   */\n              0x00\n                /* \"#utility.yul\":5467:5473   */\n              dup1\n                /* \"#utility.yul\":5517:5520   */\n              dup4\n                /* \"#utility.yul\":5510:5514   */\n              0x1f\n                /* \"#utility.yul\":5502:5508   */\n              dup5\n                /* \"#utility.yul\":5498:5515   */\n              add\n                /* \"#utility.yul\":5494:5521   */\n              slt\n                /* \"#utility.yul\":5484:5606   */\n              tag_192\n              jumpi\n                /* \"#utility.yul\":5525:5604   */\n              tag_193\n              tag_119\n              jump\t// in\n            tag_193:\n                /* \"#utility.yul\":5484:5606   */\n            tag_192:\n                /* \"#utility.yul\":5638:5644   */\n              dup3\n                /* \"#utility.yul\":5625:5645   */\n              calldataload\n                /* \"#utility.yul\":5615:5645   */\n              swap1\n              pop\n                /* \"#utility.yul\":5668:5686   */\n              0xffffffffffffffff\n                /* \"#utility.yul\":5660:5666   */\n              dup2\n                /* \"#utility.yul\":5657:5687   */\n              gt\n                /* \"#utility.yul\":5654:5771   */\n              iszero\n              tag_194\n              jumpi\n                /* \"#utility.yul\":5690:5769   */\n              tag_195\n              tag_120\n              jump\t// in\n            tag_195:\n                /* \"#utility.yul\":5654:5771   */\n            tag_194:\n                /* \"#utility.yul\":5804:5808   */\n              0x20\n                /* \"#utility.yul\":5796:5802   */\n              dup4\n                /* \"#utility.yul\":5792:5809   */\n              add\n                /* \"#utility.yul\":5780:5809   */\n              swap2\n              pop\n                /* \"#utility.yul\":5858:5861   */\n              dup4\n                /* \"#utility.yul\":5850:5854   */\n              0x01\n                /* \"#utility.yul\":5842:5848   */\n              dup3\n                /* \"#utility.yul\":5838:5855   */\n              mul\n                /* \"#utility.yul\":5828:5836   */\n              dup4\n                /* \"#utility.yul\":5824:5856   */\n              add\n                /* \"#utility.yul\":5821:5862   */\n              gt\n                /* \"#utility.yul\":5818:5946   */\n              iszero\n              tag_196\n              jumpi\n                /* \"#utility.yul\":5865:5944   */\n              tag_197\n              tag_121\n              jump\t// in\n            tag_197:\n                /* \"#utility.yul\":5818:5946   */\n            tag_196:\n                /* \"#utility.yul\":5399:5952   */\n              swap3\n              pop\n              swap3\n              swap1\n              pop\n              jump\t// out\n                /* \"#utility.yul\":5958:6096   */\n            tag_123:\n                /* \"#utility.yul\":6039:6071   */\n              tag_199\n                /* \"#utility.yul\":6065:6070   */\n              dup2\n                /* \"#utility.yul\":6039:6071   */\n              tag_111\n              jump\t// in\n            tag_199:\n                /* \"#utility.yul\":6032:6037   */\n              dup2\n                /* \"#utility.yul\":6029:6072   */\n              eq\n                /* \"#utility.yul\":6019:6090   */\n              tag_200\n              jumpi\n                /* \"#utility.yul\":6086:6087   */\n              0x00\n                /* \"#utility.yul\":6083:6084   */\n              dup1\n                /* \"#utility.yul\":6076:6088   */\n              revert\n                /* \"#utility.yul\":6019:6090   */\n            tag_200:\n                /* \"#utility.yul\":5958:6096   */\n              pop\n              jump\t// out\n                /* \"#utility.yul\":6102:6257   */\n            tag_124:\n                /* \"#utility.yul\":6156:6161   */\n              0x00\n                /* \"#utility.yul\":6194:6200   */\n              dup2\n                /* \"#utility.yul\":6181:6201   */\n              calldataload\n                /* \"#utility.yul\":6172:6201   */\n              swap1\n              pop\n                /* \"#utility.yul\":6210:6251   */\n              tag_202\n                /* \"#utility.yul\":6245:6250   */\n              dup2\n                /* \"#utility.yul\":6210:6251   */\n              tag_123\n              jump\t// in\n            tag_202:\n                /* \"#utility.yul\":6102:6257   */\n              swap3\n              swap2\n              pop\n              pop\n              jump\t// out\n                /* \"#utility.yul\":6263:7098   */\n            tag_44:\n                /* \"#utility.yul\":6360:6366   */\n              0x00\n                /* \"#utility.yul\":6368:6374   */\n              dup1\n                /* \"#utility.yul\":6376:6382   */\n              0x00\n                /* \"#utility.yul\":6384:6390   */\n              dup1\n                /* \"#utility.yul\":6433:6435   */\n              0x60\n                /* \"#utility.yul\":6421:6430   */\n              dup6\n                /* \"#utility.yul\":6412:6419   */\n              dup8\n                /* \"#utility.yul\":6408:6431   */\n              sub\n                /* \"#utility.yul\":6404:6436   */\n              slt\n                /* \"#utility.yul\":6401:6520   */\n              iszero\n              tag_204\n              jumpi\n                /* \"#utility.yul\":6439:6518   */\n              tag_205\n              tag_100\n              jump\t// in\n            tag_205:\n                /* \"#utility.yul\":6401:6520   */\n            tag_204:\n                /* \"#utility.yul\":6587:6588   */\n              0x00\n                /* \"#utility.yul\":6576:6585   */\n              dup6\n                /* \"#utility.yul\":6572:6589   */\n              add\n                /* \"#utility.yul\":6559:6590   */\n              calldataload\n                /* \"#utility.yul\":6617:6635   */\n              0xffffffffffffffff\n                /* \"#utility.yul\":6609:6615   */\n              dup2\n                /* \"#utility.yul\":6606:6636   */\n              gt\n                /* \"#utility.yul\":6603:6720   */\n              iszero\n              tag_206\n              jumpi\n                /* \"#utility.yul\":6639:6718   */\n              tag_207\n              tag_101\n              jump\t// in\n            tag_207:\n                /* \"#utility.yul\":6603:6720   */\n            tag_206:\n                /* \"#utility.yul\":6752:6817   */\n              tag_208\n                /* \"#utility.yul\":6809:6816   */\n              dup8\n                /* \"#utility.yul\":6800:6806   */\n              dup3\n                /* \"#utility.yul\":6789:6798   */\n              dup9\n                /* \"#utility.yul\":6785:6807   */\n              add\n                /* \"#utility.yul\":6752:6817   */\n              tag_122\n              jump\t// in\n            tag_208:\n                /* \"#utility.yul\":6734:6817   */\n              swap5\n              pop\n              swap5\n              pop\n                /* \"#utility.yul\":6530:6827   */\n              pop\n                /* \"#utility.yul\":6866:6868   */\n              0x20\n                /* \"#utility.yul\":6892:6945   */\n              tag_209\n                /* \"#utility.yul\":6937:6944   */\n              dup8\n                /* \"#utility.yul\":6928:6934   */\n              dup3\n                /* \"#utility.yul\":6917:6926   */\n              dup9\n                /* \"#utility.yul\":6913:6935   */\n              add\n                /* \"#utility.yul\":6892:6945   */\n              tag_104\n              jump\t// in\n            tag_209:\n                /* \"#utility.yul\":6882:6945   */\n              swap3\n              pop\n                /* \"#utility.yul\":6837:6955   */\n              pop\n                /* \"#utility.yul\":6994:6996   */\n              0x40\n                /* \"#utility.yul\":7020:7081   */\n              tag_210\n                /* \"#utility.yul\":7073:7080   */\n              dup8\n                /* \"#utility.yul\":7064:7070   */\n              dup3\n                /* \"#utility.yul\":7053:7062   */\n              dup9\n                /* \"#utility.yul\":7049:7071   */\n              add\n                /* \"#utility.yul\":7020:7081   */\n              tag_124\n              jump\t// in\n            tag_210:\n                /* \"#utility.yul\":7010:7081   */\n              swap2\n              pop\n                /* \"#utility.yul\":6965:7091   */\n              pop\n                /* \"#utility.yul\":6263:7098   */\n              swap3\n              swap6\n              swap2\n              swap5\n              pop\n              swap3\n              pop\n              jump\t// out\n                /* \"#utility.yul\":7104:7284   */\n            tag_125:\n                /* \"#utility.yul\":7152:7229   */\n              0x4e487b7100000000000000000000000000000000000000000000000000000000\n                /* \"#utility.yul\":7149:7150   */\n              0x00\n                /* \"#utility.yul\":7142:7230   */\n              mstore\n                /* \"#utility.yul\":7249:7253   */\n              0x12\n                /* \"#utility.yul\":7246:7247   */\n              0x04\n                /* \"#utility.yul\":7239:7254   */\n              mstore\n                /* \"#utility.yul\":7273:7277   */\n              0x24\n                /* \"#utility.yul\":7270:7271   */\n              0x00\n                /* \"#utility.yul\":7263:7278   */\n              revert\n                /* \"#utility.yul\":7290:7470   */\n            tag_126:\n                /* \"#utility.yul\":7338:7415   */\n              0x4e487b7100000000000000000000000000000000000000000000000000000000\n                /* \"#utility.yul\":7335:7336   */\n              0x00\n                /* \"#utility.yul\":7328:7416   */\n              mstore\n                /* \"#utility.yul\":7435:7439   */\n              0x11\n                /* \"#utility.yul\":7432:7433   */\n              0x04\n                /* \"#utility.yul\":7425:7440   */\n              mstore\n                /* \"#utility.yul\":7459:7463   */\n              0x24\n                /* \"#utility.yul\":7456:7457   */\n              0x00\n                /* \"#utility.yul\":7449:7464   */\n              revert\n                /* \"#utility.yul\":7476:7661   */\n            tag_64:\n                /* \"#utility.yul\":7516:7517   */\n              0x00\n                /* \"#utility.yul\":7533:7553   */\n              tag_214\n                /* \"#utility.yul\":7551:7552   */\n              dup3\n                /* \"#utility.yul\":7533:7553   */\n              tag_102\n              jump\t// in\n            tag_214:\n                /* \"#utility.yul\":7528:7553   */\n              swap2\n              pop\n                /* \"#utility.yul\":7567:7587   */\n              tag_215\n                /* \"#utility.yul\":7585:7586   */\n              dup4\n                /* \"#utility.yul\":7567:7587   */\n              tag_102\n              jump\t// in\n            tag_215:\n                /* \"#utility.yul\":7562:7587   */\n              swap3\n              pop\n                /* \"#utility.yul\":7606:7607   */\n              dup3\n                /* \"#utility.yul\":7596:7631   */\n              tag_216\n              jumpi\n                /* \"#utility.yul\":7611:7629   */\n              tag_217\n              tag_125\n              jump\t// in\n            tag_217:\n                /* \"#utility.yul\":7596:7631   */\n            tag_216:\n                /* \"#utility.yul\":7653:7654   */\n              dup3\n                /* \"#utility.yul\":7650:7651   */\n              dup3\n                /* \"#utility.yul\":7646:7655   */\n              div\n                /* \"#utility.yul\":7641:7655   */\n              swap1\n              pop\n                /* \"#utility.yul\":7476:7661   */\n              swap3\n              swap2\n              pop\n              pop\n              jump\t// out\n                /* \"#utility.yul\":7667:7847   */\n            tag_127:\n                /* \"#utility.yul\":7715:7792   */\n              0x4e487b7100000000000000000000000000000000000000000000000000000000\n                /* \"#utility.yul\":7712:7713   */\n              0x00\n                /* \"#utility.yul\":7705:7793   */\n              mstore\n                /* \"#utility.yul\":7812:7816   */\n              0x22\n                /* \"#utility.yul\":7809:7810   */\n              0x04\n                /* \"#utility.yul\":7802:7817   */\n              mstore\n                /* \"#utility.yul\":7836:7840   */\n              0x24\n                /* \"#utility.yul\":7833:7834   */\n              0x00\n                /* \"#utility.yul\":7826:7841   */\n              revert\n                /* \"#utility.yul\":7853:8173   */\n            tag_70:\n                /* \"#utility.yul\":7897:7903   */\n              0x00\n                /* \"#utility.yul\":7934:7935   */\n              0x02\n                /* \"#utility.yul\":7928:7932   */\n              dup3\n                /* \"#utility.yul\":7924:7936   */\n              div\n                /* \"#utility.yul\":7914:7936   */\n              swap1\n              pop\n                /* \"#utility.yul\":7981:7982   */\n              0x01\n                /* \"#utility.yul\":7975:7979   */\n              dup3\n                /* \"#utility.yul\":7971:7983   */\n              and\n                /* \"#utility.yul\":8002:8020   */\n              dup1\n                /* \"#utility.yul\":7992:8073   */\n              tag_220\n              jumpi\n                /* \"#utility.yul\":8058:8062   */\n              0x7f\n                /* \"#utility.yul\":8050:8056   */\n              dup3\n                /* \"#utility.yul\":8046:8063   */\n              and\n                /* \"#utility.yul\":8036:8063   */\n              swap2\n              pop\n                /* \"#utility.yul\":7992:8073   */\n            tag_220:\n                /* \"#utility.yul\":8120:8122   */\n              0x20\n                /* \"#utility.yul\":8112:8118   */\n              dup3\n                /* \"#utility.yul\":8109:8123   */\n              lt\n                /* \"#utility.yul\":8089:8107   */\n              dup2\n                /* \"#utility.yul\":8086:8124   */\n              sub\n                /* \"#utility.yul\":8083:8167   */\n              tag_221\n              jumpi\n                /* \"#utility.yul\":8139:8157   */\n              tag_222\n              tag_127\n              jump\t// in\n            tag_222:\n                /* \"#utility.yul\":8083:8167   */\n            tag_221:\n                /* \"#utility.yul\":7904:8173   */\n              pop\n                /* \"#utility.yul\":7853:8173   */\n              swap2\n              swap1\n              pop\n              jump\t// out\n                /* \"#utility.yul\":8179:8412   */\n            tag_79:\n                /* \"#utility.yul\":8218:8221   */\n              0x00\n                /* \"#utility.yul\":8241:8265   */\n              tag_224\n                /* \"#utility.yul\":8259:8264   */\n              dup3\n                /* \"#utility.yul\":8241:8265   */\n              tag_102\n              jump\t// in\n            tag_224:\n                /* \"#utility.yul\":8232:8265   */\n              swap2\n              pop\n                /* \"#utility.yul\":8287:8353   */\n              0xffffffffffffffffffffffffffffffffffffffffffffffffffffffffffffffff\n                /* \"#utility.yul\":8280:8285   */\n              dup3\n                /* \"#utility.yul\":8277:8354   */\n              sub\n                /* \"#utility.yul\":8274:8377   */\n              tag_225\n              jumpi\n                /* \"#utility.yul\":8357:8375   */\n              tag_226\n              tag_126\n              jump\t// in\n            tag_226:\n                /* \"#utility.yul\":8274:8377   */\n            tag_225:\n                /* \"#utility.yul\":8404:8405   */\n              0x01\n                /* \"#utility.yul\":8397:8402   */\n              dup3\n                /* \"#utility.yul\":8393:8406   */\n              add\n                /* \"#utility.yul\":8386:8406   */\n              swap1\n              pop\n                /* \"#utility.yul\":8179:8412   */\n              swap2\n              swap1\n              pop\n              jump\t// out\n\n            auxdata: 0xa26469706673582212205de0a02a636941f1c920da23d4bbb70b95c9e397a2854e1d449fac0afcc6c3b464736f6c634300080d0033\n        }\n    }\n\n    auxdata: 0xa264697066735822122055b0b5ff039f49c838ddf5c197a59773174d655e21ca726da317da9c340ce1b764736f6c634300080d0033\n}\n",
    "bytecode": {
      "linkReferences": {},
      "object": "608060405234801561001057600080fd5b506112ea806100206000396000f3fe608060405234801561001057600080fd5b50600436106100415760003560e01c8063339d50a514610046578063a3303a7514610076578063aa9a068f14610092575b600080fd5b610060600480360381019061005b9190610266565b6100b0565b60405161006d91906102d4565b60405180910390f35b610090600480360381019061008b9190610266565b6100ef565b005b61009a610190565b6040516100a791906103ad565b60405180910390f35b600081815481106100c057600080fd5b906000526020600020016000915054906101000a900473ffffffffffffffffffffffffffffffffffffffff1681565b600081336040516100ff9061021e565b61010a9291906103de565b604051809103906000f080158015610126573d6000803e3d6000fd5b5090506000819080600181540180825580915050600190039060005260206000200160009091909190916101000a81548173ffffffffffffffffffffffffffffffffffffffff021916908373ffffffffffffffffffffffffffffffffffffffff1602179055505050565b6060600080548060200260200160405190810160405280929190818152602001828054801561021457602002820191906000526020600020905b8160009054906101000a900473ffffffffffffffffffffffffffffffffffffffff1673ffffffffffffffffffffffffffffffffffffffff16815260200190600101908083116101ca575b5050505050905090565b610ead8061040883390190565b600080fd5b6000819050919050565b61024381610230565b811461024e57600080fd5b50565b6000813590506102608161023a565b92915050565b60006020828403121561027c5761027b61022b565b5b600061028a84828501610251565b91505092915050565b600073ffffffffffffffffffffffffffffffffffffffff82169050919050565b60006102be82610293565b9050919050565b6102ce816102b3565b82525050565b60006020820190506102e960008301846102c5565b92915050565b600081519050919050565b600082825260208201905092915050565b6000819050602082019050919050565b610324816102b3565b82525050565b6000610336838361031b565b60208301905092915050565b6000602082019050919050565b600061035a826102ef565b61036481856102fa565b935061036f8361030b565b8060005b838110156103a0578151610387888261032a565b975061039283610342565b925050600181019050610373565b5085935050505092915050565b600060208201905081810360008301526103c7818461034f565b905092915050565b6103d881610230565b82525050565b60006040820190506103f360008301856103cf565b61040060208301846102c5565b939250505056fe60806040523480156200001157600080fd5b5060405162000ead38038062000ead83398181016040528101906200003791906200012b565b81600281905550806000806101000a81548173ffffffffffffffffffffffffffffffffffffffff021916908373ffffffffffffffffffffffffffffffffffffffff160217905550505062000172565b600080fd5b6000819050919050565b620000a0816200008b565b8114620000ac57600080fd5b50565b600081519050620000c08162000095565b92915050565b600073ffffffffffffffffffffffffffffffffffffffff82169050919050565b6000620000f382620000c6565b9050919050565b6200010581620000e6565b81146200011157600080fd5b50565b6000815190506200012581620000fa565b92915050565b6000806040838503121562000145576200014462000086565b5b60006200015585828601620000af565b9250506020620001688582860162000114565b9150509250929050565b610d2b80620001826000396000f3fe6080604052600436106100915760003560e01c80638a9cfd55116100595780638a9cfd5514610193578063937e09b1146101bc5780639fb42b1f146101e7578063d7bb99ba14610212578063d7d1bbdb1461021c57610091565b806303441006146100965780630a144391146100bf578063481c6a75146100fc57806381d12c581461012757806382fde09314610168575b600080fd5b3480156100a257600080fd5b506100bd60048036038101906100b89190610872565b610245565b005b3480156100cb57600080fd5b506100e660048036038101906100e191906108fd565b61037e565b6040516100f39190610945565b60405180910390f35b34801561010857600080fd5b5061011161039e565b60405161011e9190610981565b60405180910390f35b34801561013357600080fd5b5061014e60048036038101906101499190610872565b6103c2565b60405161015f959493929190610a44565b60405180910390f35b34801561017457600080fd5b5061017d6104ad565b60405161018a9190610a9e565b60405180910390f35b34801561019f57600080fd5b506101ba60048036038101906101b59190610b4a565b6104b3565b005b3480156101c857600080fd5b506101d16105c6565b6040516101de9190610a9e565b60405180910390f35b3480156101f357600080fd5b506101fc6105cc565b6040516102099190610a9e565b60405180910390f35b61021a6105d2565b005b34801561022857600080fd5b50610243600480360381019061023e9190610872565b610651565b005b60008054906101000a900473ffffffffffffffffffffffffffffffffffffffff1673ffffffffffffffffffffffffffffffffffffffff163373ffffffffffffffffffffffffffffffffffffffff161461029d57600080fd5b600060046000838152602001908152602001600020905060026005546102c39190610c1c565b8160030154116102d257600080fd5b8060020160149054906101000a900460ff16156102ee57600080fd5b8060020160009054906101000a900473ffffffffffffffffffffffffffffffffffffffff1673ffffffffffffffffffffffffffffffffffffffff166108fc82600101549081150290604051600060405180830381858888f1935050505015801561035c573d6000803e3d6000fd5b5060018160020160146101000a81548160ff0219169083151502179055505050565b60016020528060005260406000206000915054906101000a900460ff1681565b60008054906101000a900473ffffffffffffffffffffffffffffffffffffffff1681565b60046020528060005260406000206000915090508060000180546103e590610c7c565b80601f016020809104026020016040519081016040528092919081815260200182805461041190610c7c565b801561045e5780601f106104335761010080835404028352916020019161045e565b820191906000526020600020905b81548152906001019060200180831161044157829003601f168201915b5050505050908060010154908060020160009054906101000a900473ffffffffffffffffffffffffffffffffffffffff16908060020160149054906101000a900460ff16908060030154905085565b60055481565b60008054906101000a900473ffffffffffffffffffffffffffffffffffffffff1673ffffffffffffffffffffffffffffffffffffffff163373ffffffffffffffffffffffffffffffffffffffff161461050b57600080fd5b6000600460006003600081548092919061052490610cad565b9190505581526020019081526020016000209050848482600001919061054b92919061078f565b50828160010181905550818160020160006101000a81548173ffffffffffffffffffffffffffffffffffffffff021916908373ffffffffffffffffffffffffffffffffffffffff16021790555060008160020160146101000a81548160ff021916908315150217905550600081600301819055505050505050565b60025481565b60035481565b60025434116105e057600080fd5b60018060003373ffffffffffffffffffffffffffffffffffffffff1673ffffffffffffffffffffffffffffffffffffffff16815260200190815260200160002060006101000a81548160ff0219169083151502179055506005600081548092919061064a90610cad565b9190505550565b6000600460008381526020019081526020016000209050600160003373ffffffffffffffffffffffffffffffffffffffff1673ffffffffffffffffffffffffffffffffffffffff16815260200190815260200160002060009054906101000a900460ff166106be57600080fd5b8060040160003373ffffffffffffffffffffffffffffffffffffffff1673ffffffffffffffffffffffffffffffffffffffff16815260200190815260200160002060009054906101000a900460ff161561071757600080fd5b60018160040160003373ffffffffffffffffffffffffffffffffffffffff1673ffffffffffffffffffffffffffffffffffffffff16815260200190815260200160002060006101000a81548160ff02191690831515021790555080600301600081548092919061078690610cad565b91905055505050565b82805461079b90610c7c565b90600052602060002090601f0160209004810192826107bd5760008555610804565b82601f106107d657803560ff1916838001178555610804565b82800160010185558215610804579182015b828111156108035782358255916020019190600101906107e8565b5b5090506108119190610815565b5090565b5b8082111561082e576000816000905550600101610816565b5090565b600080fd5b600080fd5b6000819050919050565b61084f8161083c565b811461085a57600080fd5b50565b60008135905061086c81610846565b92915050565b60006020828403121561088857610887610832565b5b60006108968482850161085d565b91505092915050565b600073ffffffffffffffffffffffffffffffffffffffff82169050919050565b60006108ca8261089f565b9050919050565b6108da816108bf565b81146108e557600080fd5b50565b6000813590506108f7816108d1565b92915050565b60006020828403121561091357610912610832565b5b6000610921848285016108e8565b91505092915050565b60008115159050919050565b61093f8161092a565b82525050565b600060208201905061095a6000830184610936565b92915050565b600061096b8261089f565b9050919050565b61097b81610960565b82525050565b60006020820190506109966000830184610972565b92915050565b600081519050919050565b600082825260208201905092915050565b60005b838110156109d65780820151818401526020810190506109bb565b838111156109e5576000848401525b50505050565b6000601f19601f8301169050919050565b6000610a078261099c565b610a1181856109a7565b9350610a218185602086016109b8565b610a2a816109eb565b840191505092915050565b610a3e8161083c565b82525050565b600060a0820190508181036000830152610a5e81886109fc565b9050610a6d6020830187610a35565b610a7a6040830186610972565b610a876060830185610936565b610a946080830184610a35565b9695505050505050565b6000602082019050610ab36000830184610a35565b92915050565b600080fd5b600080fd5b600080fd5b60008083601f840112610ade57610add610ab9565b5b8235905067ffffffffffffffff811115610afb57610afa610abe565b5b602083019150836001820283011115610b1757610b16610ac3565b5b9250929050565b610b2781610960565b8114610b3257600080fd5b50565b600081359050610b4481610b1e565b92915050565b60008060008060608587031215610b6457610b63610832565b5b600085013567ffffffffffffffff811115610b8257610b81610837565b5b610b8e87828801610ac8565b94509450506020610ba18782880161085d565b9250506040610bb287828801610b35565b91505092959194509250565b7f4e487b7100000000000000000000000000000000000000000000000000000000600052601260045260246000fd5b7f4e487b7100000000000000000000000000000000000000000000000000000000600052601160045260246000fd5b6000610c278261083c565b9150610c328361083c565b925082610c4257610c41610bbe565b5b828204905092915050565b7f4e487b7100000000000000000000000000000000000000000000000000000000600052602260045260246000fd5b60006002820490506001821680610c9457607f821691505b602082108103610ca757610ca6610c4d565b5b50919050565b6000610cb88261083c565b91507fffffffffffffffffffffffffffffffffffffffffffffffffffffffffffffffff8203610cea57610ce9610bed565b5b60018201905091905056fea26469706673582212205de0a02a636941f1c920da23d4bbb70b95c9e397a2854e1d449fac0afcc6c3b464736f6c634300080d0033a264697066735822122055b0b5ff039f49c838ddf5c197a59773174d655e21ca726da317da9c340ce1b764736f6c634300080d0033",
      "opcodes": "PUSH1 0x80 PUSH1 0x40 MSTORE CALLVALUE DUP1 ISZERO PUSH2 0x10 JUMPI PUSH1 0x0 DUP1 REVERT JUMPDEST POP PUSH2 0x12EA DUP1 PUSH2 0x20 PUSH1 0x0 CODECOPY PUSH1 0x0 RETURN INVALID PUSH1 0x80 PUSH1 0x40 MSTORE CALLVALUE DUP1 ISZERO PUSH2 0x10 JUMPI PUSH1 0x0 DUP1 REVERT JUMPDEST POP PUSH1 0x4 CALLDATASIZE LT PUSH2 0x41 JUMPI PUSH1 0x0 CALLDATALOAD PUSH1 0xE0 SHR DUP1 PUSH4 0x339D50A5 EQ PUSH2 0x46 JUMPI DUP1 PUSH4 0xA3303A75 EQ PUSH2 0x76 JUMPI DUP1 PUSH4 0xAA9A068F EQ PUSH2 0x92 JUMPI JUMPDEST PUSH1 0x0 DUP1 REVERT JUMPDEST PUSH2 0x60 PUSH1 0x4 DUP1 CALLDATASIZE SUB DUP2 ADD SWAP1 PUSH2 0x5B SWAP2 SWAP1 PUSH2 0x266 JUMP JUMPDEST PUSH2 0xB0 JUMP JUMPDEST PUSH1 0x40 MLOAD PUSH2 0x6D SWAP2 SWAP1 PUSH2 0x2D4 JUMP JUMPDEST PUSH1 0x40 MLOAD DUP1 SWAP2 SUB SWAP1 RETURN JUMPDEST PUSH2 0x90 PUSH1 0x4 DUP1 CALLDATASIZE SUB DUP2 ADD SWAP1 PUSH2 0x8B SWAP2 SWAP1 PUSH2 0x266 JUMP JUMPDEST PUSH2 0xEF JUMP JUMPDEST STOP JUMPDEST PUSH2 0x9A PUSH2 0x190 JUMP JUMPDEST PUSH1 0x40 MLOAD PUSH2 0xA7 SWAP2 SWAP1 PUSH2 0x3AD JUMP JUMPDEST PUSH1 0x40 MLOAD DUP1 SWAP2 SUB SWAP1 RETURN JUMPDEST PUSH1 0x0 DUP2 DUP2 SLOAD DUP2 LT PUSH2 0xC0 JUMPI PUSH1 0x0 DUP1 REVERT JUMPDEST SWAP1 PUSH1 0x0 MSTORE PUSH1 0x20 PUSH1 0x0 KECCAK256 ADD PUSH1 0x0 SWAP2 POP SLOAD SWAP1 PUSH2 0x100 EXP SWAP1 DIV PUSH20 0xFFFFFFFFFFFFFFFFFFFFFFFFFFFFFFFFFFFFFFFF AND DUP2 JUMP JUMPDEST PUSH1 0x0 DUP2 CALLER PUSH1 0x40 MLOAD PUSH2 0xFF SWAP1 PUSH2 0x21E JUMP JUMPDEST PUSH2 0x10A SWAP3 SWAP2 SWAP1 PUSH2 0x3DE JUMP JUMPDEST PUSH1 0x40 MLOAD DUP1 SWAP2 SUB SWAP1 PUSH1 0x0 CREATE DUP1 ISZERO DUP1 ISZERO PUSH2 0x126 JUMPI RETURNDATASIZE PUSH1 0x0 DUP1 RETURNDATACOPY RETURNDATASIZE PUSH1 0x0 REVERT JUMPDEST POP SWAP1 POP PUSH1 0x0 DUP2 SWAP1 DUP1 PUSH1 0x1 DUP2 SLOAD ADD DUP1 DUP3 SSTORE DUP1 SWAP2 POP POP PUSH1 0x1 SWAP1 SUB SWAP1 PUSH1 0x0 MSTORE PUSH1 0x20 PUSH1 0x0 KECCAK256 ADD PUSH1 0x0 SWAP1 SWAP2 SWAP1 SWAP2 SWAP1 SWAP2 PUSH2 0x100 EXP DUP2 SLOAD DUP2 PUSH20 0xFFFFFFFFFFFFFFFFFFFFFFFFFFFFFFFFFFFFFFFF MUL NOT AND SWAP1 DUP4 PUSH20 0xFFFFFFFFFFFFFFFFFFFFFFFFFFFFFFFFFFFFFFFF AND MUL OR SWAP1 SSTORE POP POP POP JUMP JUMPDEST PUSH1 0x60 PUSH1 0x0 DUP1 SLOAD DUP1 PUSH1 0x20 MUL PUSH1 0x20 ADD PUSH1 0x40 MLOAD SWAP1 DUP2 ADD PUSH1 0x40 MSTORE DUP1 SWAP3 SWAP2 SWAP1 DUP2 DUP2 MSTORE PUSH1 0x20 ADD DUP3 DUP1 SLOAD DUP1 ISZERO PUSH2 0x214 JUMPI PUSH1 0x20 MUL DUP3 ADD SWAP2 SWAP1 PUSH1 0x0 MSTORE PUSH1 0x20 PUSH1 0x0 KECCAK256 SWAP1 JUMPDEST DUP2 PUSH1 0x0 SWAP1 SLOAD SWAP1 PUSH2 0x100 EXP SWAP1 DIV PUSH20 0xFFFFFFFFFFFFFFFFFFFFFFFFFFFFFFFFFFFFFFFF AND PUSH20 0xFFFFFFFFFFFFFFFFFFFFFFFFFFFFFFFFFFFFFFFF AND DUP2 MSTORE PUSH1 0x20 ADD SWAP1 PUSH1 0x1 ADD SWAP1 DUP1 DUP4 GT PUSH2 0x1CA JUMPI JUMPDEST POP POP POP POP POP SWAP1 POP SWAP1 JUMP JUMPDEST PUSH2 0xEAD DUP1 PUSH2 0x408 DUP4 CODECOPY ADD SWAP1 JUMP JUMPDEST PUSH1 0x0 DUP1 REVERT JUMPDEST PUSH1 0x0 DUP2 SWAP1 POP SWAP2 SWAP1 POP JUMP JUMPDEST PUSH2 0x243 DUP2 PUSH2 0x230 JUMP JUMPDEST DUP2 EQ PUSH2 0x24E JUMPI PUSH1 0x0 DUP1 REVERT JUMPDEST POP JUMP JUMPDEST PUSH1 0x0 DUP2 CALLDATALOAD SWAP1 POP PUSH2 0x260 DUP2 PUSH2 0x23A JUMP JUMPDEST SWAP3 SWAP2 POP POP JUMP JUMPDEST PUSH1 0x0 PUSH1 0x20 DUP3 DUP5 SUB SLT ISZERO PUSH2 0x27C JUMPI PUSH2 0x27B PUSH2 0x22B JUMP JUMPDEST JUMPDEST PUSH1 0x0 PUSH2 0x28A DUP5 DUP3 DUP6 ADD PUSH2 0x251 JUMP JUMPDEST SWAP2 POP POP SWAP3 SWAP2 POP POP JUMP JUMPDEST PUSH1 0x0 PUSH20 0xFFFFFFFFFFFFFFFFFFFFFFFFFFFFFFFFFFFFFFFF DUP3 AND SWAP1 POP SWAP2 SWAP1 POP JUMP JUMPDEST PUSH1 0x0 PUSH2 0x2BE DUP3 PUSH2 0x293 JUMP JUMPDEST SWAP1 POP SWAP2 SWAP1 POP JUMP JUMPDEST PUSH2 0x2CE DUP2 PUSH2 0x2B3 JUMP JUMPDEST DUP3 MSTORE POP POP JUMP JUMPDEST PUSH1 0x0 PUSH1 0x20 DUP3 ADD SWAP1 POP PUSH2 0x2E9 PUSH1 0x0 DUP4 ADD DUP5 PUSH2 0x2C5 JUMP JUMPDEST SWAP3 SWAP2 POP POP JUMP JUMPDEST PUSH1 0x0 DUP2 MLOAD SWAP1 POP SWAP2 SWAP1 POP JUMP JUMPDEST PUSH1 0x0 DUP3 DUP3 MSTORE PUSH1 0x20 DUP3 ADD SWAP1 POP SWAP3 SWAP2 POP POP JUMP JUMPDEST PUSH1 0x0 DUP2 SWAP1 POP PUSH1 0x20 DUP3 ADD SWAP1 POP SWAP2 SWAP1 POP JUMP JUMPDEST PUSH2 0x324 DUP2 PUSH2 0x2B3 JUMP JUMPDEST DUP3 MSTORE POP POP JUMP JUMPDEST PUSH1 0x0 PUSH2 0x336 DUP4 DUP4 PUSH2 0x31B JUMP JUMPDEST PUSH1 0x20 DUP4 ADD SWAP1 POP SWAP3 SWAP2 POP POP JUMP JUMPDEST PUSH1 0x0 PUSH1 0x20 DUP3 ADD SWAP1 POP SWAP2 SWAP1 POP JUMP JUMPDEST PUSH1 0x0 PUSH2 0x35A DUP3 PUSH2 0x2EF JUMP JUMPDEST PUSH2 0x364 DUP2 DUP6 PUSH2 0x2FA JUMP JUMPDEST SWAP4 POP PUSH2 0x36F DUP4 PUSH2 0x30B JUMP JUMPDEST DUP1 PUSH1 0x0 JUMPDEST DUP4 DUP2 LT ISZERO PUSH2 0x3A0 JUMPI DUP2 MLOAD PUSH2 0x387 DUP9 DUP3 PUSH2 0x32A JUMP JUMPDEST SWAP8 POP PUSH2 0x392 DUP4 PUSH2 0x342 JUMP JUMPDEST SWAP3 POP POP PUSH1 0x1 DUP2 ADD SWAP1 POP PUSH2 0x373 JUMP JUMPDEST POP DUP6 SWAP4 POP POP POP POP SWAP3 SWAP2 POP POP JUMP JUMPDEST PUSH1 0x0 PUSH1 0x20 DUP3 ADD SWAP1 POP DUP2 DUP2 SUB PUSH1 0x0 DUP4 ADD MSTORE PUSH2 0x3C7 DUP2 DUP5 PUSH2 0x34F JUMP JUMPDEST SWAP1 POP SWAP3 SWAP2 POP POP JUMP JUMPDEST PUSH2 0x3D8 DUP2 PUSH2 0x230 JUMP JUMPDEST DUP3 MSTORE POP POP JUMP JUMPDEST PUSH1 0x0 PUSH1 0x40 DUP3 ADD SWAP1 POP PUSH2 0x3F3 PUSH1 0x0 DUP4 ADD DUP6 PUSH2 0x3CF JUMP JUMPDEST PUSH2 0x400 PUSH1 0x20 DUP4 ADD DUP5 PUSH2 0x2C5 JUMP JUMPDEST SWAP4 SWAP3 POP POP POP JUMP INVALID PUSH1 0x80 PUSH1 0x40 MSTORE CALLVALUE DUP1 ISZERO PUSH3 0x11 JUMPI PUSH1 0x0 DUP1 REVERT JUMPDEST POP PUSH1 0x40 MLOAD PUSH3 0xEAD CODESIZE SUB DUP1 PUSH3 0xEAD DUP4 CODECOPY DUP2 DUP2 ADD PUSH1 0x40 MSTORE DUP2 ADD SWAP1 PUSH3 0x37 SWAP2 SWAP1 PUSH3 0x12B JUMP JUMPDEST DUP2 PUSH1 0x2 DUP2 SWAP1 SSTORE POP DUP1 PUSH1 0x0 DUP1 PUSH2 0x100 EXP DUP2 SLOAD DUP2 PUSH20 0xFFFFFFFFFFFFFFFFFFFFFFFFFFFFFFFFFFFFFFFF MUL NOT AND SWAP1 DUP4 PUSH20 0xFFFFFFFFFFFFFFFFFFFFFFFFFFFFFFFFFFFFFFFF AND MUL OR SWAP1 SSTORE POP POP POP PUSH3 0x172 JUMP JUMPDEST PUSH1 0x0 DUP1 REVERT JUMPDEST PUSH1 0x0 DUP2 SWAP1 POP SWAP2 SWAP1 POP JUMP JUMPDEST PUSH3 0xA0 DUP2 PUSH3 0x8B JUMP JUMPDEST DUP2 EQ PUSH3 0xAC JUMPI PUSH1 0x0 DUP1 REVERT JUMPDEST POP JUMP JUMPDEST PUSH1 0x0 DUP2 MLOAD SWAP1 POP PUSH3 0xC0 DUP2 PUSH3 0x95 JUMP JUMPDEST SWAP3 SWAP2 POP POP JUMP JUMPDEST PUSH1 0x0 PUSH20 0xFFFFFFFFFFFFFFFFFFFFFFFFFFFFFFFFFFFFFFFF DUP3 AND SWAP1 POP SWAP2 SWAP1 POP JUMP JUMPDEST PUSH1 0x0 PUSH3 0xF3 DUP3 PUSH3 0xC6 JUMP JUMPDEST SWAP1 POP SWAP2 SWAP1 POP JUMP JUMPDEST PUSH3 0x105 DUP2 PUSH3 0xE6 JUMP JUMPDEST DUP2 EQ PUSH3 0x111 JUMPI PUSH1 0x0 DUP1 REVERT JUMPDEST POP JUMP JUMPDEST PUSH1 0x0 DUP2 MLOAD SWAP1 POP PUSH3 0x125 DUP2 PUSH3 0xFA JUMP JUMPDEST SWAP3 SWAP2 POP POP JUMP JUMPDEST PUSH1 0x0 DUP1 PUSH1 0x40 DUP4 DUP6 SUB SLT ISZERO PUSH3 0x145 JUMPI PUSH3 0x144 PUSH3 0x86 JUMP JUMPDEST JUMPDEST PUSH1 0x0 PUSH3 0x155 DUP6 DUP3 DUP7 ADD PUSH3 0xAF JUMP JUMPDEST SWAP3 POP POP PUSH1 0x20 PUSH3 0x168 DUP6 DUP3 DUP7 ADD PUSH3 0x114 JUMP JUMPDEST SWAP2 POP POP SWAP3 POP SWAP3 SWAP1 POP JUMP JUMPDEST PUSH2 0xD2B DUP1 PUSH3 0x182 PUSH1 0x0 CODECOPY PUSH1 0x0 RETURN INVALID PUSH1 0x80 PUSH1 0x40 MSTORE PUSH1 0x4 CALLDATASIZE LT PUSH2 0x91 JUMPI PUSH1 0x0 CALLDATALOAD PUSH1 0xE0 SHR DUP1 PUSH4 0x8A9CFD55 GT PUSH2 0x59 JUMPI DUP1 PUSH4 0x8A9CFD55 EQ PUSH2 0x193 JUMPI DUP1 PUSH4 0x937E09B1 EQ PUSH2 0x1BC JUMPI DUP1 PUSH4 0x9FB42B1F EQ PUSH2 0x1E7 JUMPI DUP1 PUSH4 0xD7BB99BA EQ PUSH2 0x212 JUMPI DUP1 PUSH4 0xD7D1BBDB EQ PUSH2 0x21C JUMPI PUSH2 0x91 JUMP JUMPDEST DUP1 PUSH4 0x3441006 EQ PUSH2 0x96 JUMPI DUP1 PUSH4 0xA144391 EQ PUSH2 0xBF JUMPI DUP1 PUSH4 0x481C6A75 EQ PUSH2 0xFC JUMPI DUP1 PUSH4 0x81D12C58 EQ PUSH2 0x127 JUMPI DUP1 PUSH4 0x82FDE093 EQ PUSH2 0x168 JUMPI JUMPDEST PUSH1 0x0 DUP1 REVERT JUMPDEST CALLVALUE DUP1 ISZERO PUSH2 0xA2 JUMPI PUSH1 0x0 DUP1 REVERT JUMPDEST POP PUSH2 0xBD PUSH1 0x4 DUP1 CALLDATASIZE SUB DUP2 ADD SWAP1 PUSH2 0xB8 SWAP2 SWAP1 PUSH2 0x872 JUMP JUMPDEST PUSH2 0x245 JUMP JUMPDEST STOP JUMPDEST CALLVALUE DUP1 ISZERO PUSH2 0xCB JUMPI PUSH1 0x0 DUP1 REVERT JUMPDEST POP PUSH2 0xE6 PUSH1 0x4 DUP1 CALLDATASIZE SUB DUP2 ADD SWAP1 PUSH2 0xE1 SWAP2 SWAP1 PUSH2 0x8FD JUMP JUMPDEST PUSH2 0x37E JUMP JUMPDEST PUSH1 0x40 MLOAD PUSH2 0xF3 SWAP2 SWAP1 PUSH2 0x945 JUMP JUMPDEST PUSH1 0x40 MLOAD DUP1 SWAP2 SUB SWAP1 RETURN JUMPDEST CALLVALUE DUP1 ISZERO PUSH2 0x108 JUMPI PUSH1 0x0 DUP1 REVERT JUMPDEST POP PUSH2 0x111 PUSH2 0x39E JUMP JUMPDEST PUSH1 0x40 MLOAD PUSH2 0x11E SWAP2 SWAP1 PUSH2 0x981 JUMP JUMPDEST PUSH1 0x40 MLOAD DUP1 SWAP2 SUB SWAP1 RETURN JUMPDEST CALLVALUE DUP1 ISZERO PUSH2 0x133 JUMPI PUSH1 0x0 DUP1 REVERT JUMPDEST POP PUSH2 0x14E PUSH1 0x4 DUP1 CALLDATASIZE SUB DUP2 ADD SWAP1 PUSH2 0x149 SWAP2 SWAP1 PUSH2 0x872 JUMP JUMPDEST PUSH2 0x3C2 JUMP JUMPDEST PUSH1 0x40 MLOAD PUSH2 0x15F SWAP6 SWAP5 SWAP4 SWAP3 SWAP2 SWAP1 PUSH2 0xA44 JUMP JUMPDEST PUSH1 0x40 MLOAD DUP1 SWAP2 SUB SWAP1 RETURN JUMPDEST CALLVALUE DUP1 ISZERO PUSH2 0x174 JUMPI PUSH1 0x0 DUP1 REVERT JUMPDEST POP PUSH2 0x17D PUSH2 0x4AD JUMP JUMPDEST PUSH1 0x40 MLOAD PUSH2 0x18A SWAP2 SWAP1 PUSH2 0xA9E JUMP JUMPDEST PUSH1 0x40 MLOAD DUP1 SWAP2 SUB SWAP1 RETURN JUMPDEST CALLVALUE DUP1 ISZERO PUSH2 0x19F JUMPI PUSH1 0x0 DUP1 REVERT JUMPDEST POP PUSH2 0x1BA PUSH1 0x4 DUP1 CALLDATASIZE SUB DUP2 ADD SWAP1 PUSH2 0x1B5 SWAP2 SWAP1 PUSH2 0xB4A JUMP JUMPDEST PUSH2 0x4B3 JUMP JUMPDEST STOP JUMPDEST CALLVALUE DUP1 ISZERO PUSH2 0x1C8 JUMPI PUSH1 0x0 DUP1 REVERT JUMPDEST POP PUSH2 0x1D1 PUSH2 0x5C6 JUMP JUMPDEST PUSH1 0x40 MLOAD PUSH2 0x1DE SWAP2 SWAP1 PUSH2 0xA9E JUMP JUMPDEST PUSH1 0x40 MLOAD DUP1 SWAP2 SUB SWAP1 RETURN JUMPDEST CALLVALUE DUP1 ISZERO PUSH2 0x1F3 JUMPI PUSH1 0x0 DUP1 REVERT JUMPDEST POP PUSH2 0x1FC PUSH2 0x5CC JUMP JUMPDEST PUSH1 0x40 MLOAD PUSH2 0x209 SWAP2 SWAP1 PUSH2 0xA9E JUMP JUMPDEST PUSH1 0x40 MLOAD DUP1 SWAP2 SUB SWAP1 RETURN JUMPDEST PUSH2 0x21A PUSH2 0x5D2 JUMP JUMPDEST STOP JUMPDEST CALLVALUE DUP1 ISZERO PUSH2 0x228 JUMPI PUSH1 0x0 DUP1 REVERT JUMPDEST POP PUSH2 0x243 PUSH1 0x4 DUP1 CALLDATASIZE SUB DUP2 ADD SWAP1 PUSH2 0x23E SWAP2 SWAP1 PUSH2 0x872 JUMP JUMPDEST PUSH2 0x651 JUMP JUMPDEST STOP JUMPDEST PUSH1 0x0 DUP1 SLOAD SWAP1 PUSH2 0x100 EXP SWAP1 DIV PUSH20 0xFFFFFFFFFFFFFFFFFFFFFFFFFFFFFFFFFFFFFFFF AND PUSH20 0xFFFFFFFFFFFFFFFFFFFFFFFFFFFFFFFFFFFFFFFF AND CALLER PUSH20 0xFFFFFFFFFFFFFFFFFFFFFFFFFFFFFFFFFFFFFFFF AND EQ PUSH2 0x29D JUMPI PUSH1 0x0 DUP1 REVERT JUMPDEST PUSH1 0x0 PUSH1 0x4 PUSH1 0x0 DUP4 DUP2 MSTORE PUSH1 0x20 ADD SWAP1 DUP2 MSTORE PUSH1 0x20 ADD PUSH1 0x0 KECCAK256 SWAP1 POP PUSH1 0x2 PUSH1 0x5 SLOAD PUSH2 0x2C3 SWAP2 SWAP1 PUSH2 0xC1C JUMP JUMPDEST DUP2 PUSH1 0x3 ADD SLOAD GT PUSH2 0x2D2 JUMPI PUSH1 0x0 DUP1 REVERT JUMPDEST DUP1 PUSH1 0x2 ADD PUSH1 0x14 SWAP1 SLOAD SWAP1 PUSH2 0x100 EXP SWAP1 DIV PUSH1 0xFF AND ISZERO PUSH2 0x2EE JUMPI PUSH1 0x0 DUP1 REVERT JUMPDEST DUP1 PUSH1 0x2 ADD PUSH1 0x0 SWAP1 SLOAD SWAP1 PUSH2 0x100 EXP SWAP1 DIV PUSH20 0xFFFFFFFFFFFFFFFFFFFFFFFFFFFFFFFFFFFFFFFF AND PUSH20 0xFFFFFFFFFFFFFFFFFFFFFFFFFFFFFFFFFFFFFFFF AND PUSH2 0x8FC DUP3 PUSH1 0x1 ADD SLOAD SWAP1 DUP2 ISZERO MUL SWAP1 PUSH1 0x40 MLOAD PUSH1 0x0 PUSH1 0x40 MLOAD DUP1 DUP4 SUB DUP2 DUP6 DUP9 DUP9 CALL SWAP4 POP POP POP POP ISZERO DUP1 ISZERO PUSH2 0x35C JUMPI RETURNDATASIZE PUSH1 0x0 DUP1 RETURNDATACOPY RETURNDATASIZE PUSH1 0x0 REVERT JUMPDEST POP PUSH1 0x1 DUP2 PUSH1 0x2 ADD PUSH1 0x14 PUSH2 0x100 EXP DUP2 SLOAD DUP2 PUSH1 0xFF MUL NOT AND SWAP1 DUP4 ISZERO ISZERO MUL OR SWAP1 SSTORE POP POP POP JUMP JUMPDEST PUSH1 0x1 PUSH1 0x20 MSTORE DUP1 PUSH1 0x0 MSTORE PUSH1 0x40 PUSH1 0x0 KECCAK256 PUSH1 0x0 SWAP2 POP SLOAD SWAP1 PUSH2 0x100 EXP SWAP1 DIV PUSH1 0xFF AND DUP2 JUMP JUMPDEST PUSH1 0x0 DUP1 SLOAD SWAP1 PUSH2 0x100 EXP SWAP1 DIV PUSH20 0xFFFFFFFFFFFFFFFFFFFFFFFFFFFFFFFFFFFFFFFF AND DUP2 JUMP JUMPDEST PUSH1 0x4 PUSH1 0x20 MSTORE DUP1 PUSH1 0x0 MSTORE PUSH1 0x40 PUSH1 0x0 KECCAK256 PUSH1 0x0 SWAP2 POP SWAP1 POP DUP1 PUSH1 0x0 ADD DUP1 SLOAD PUSH2 0x3E5 SWAP1 PUSH2 0xC7C JUMP JUMPDEST DUP1 PUSH1 0x1F ADD PUSH1 0x20 DUP1 SWAP2 DIV MUL PUSH1 0x20 ADD PUSH1 0x40 MLOAD SWAP1 DUP2 ADD PUSH1 0x40 MSTORE DUP1 SWAP3 SWAP2 SWAP1 DUP2 DUP2 MSTORE PUSH1 0x20 ADD DUP3 DUP1 SLOAD PUSH2 0x411 SWAP1 PUSH2 0xC7C JUMP JUMPDEST DUP1 ISZERO PUSH2 0x45E JUMPI DUP1 PUSH1 0x1F LT PUSH2 0x433 JUMPI PUSH2 0x100 DUP1 DUP4 SLOAD DIV MUL DUP4 MSTORE SWAP2 PUSH1 0x20 ADD SWAP2 PUSH2 0x45E JUMP JUMPDEST DUP3 ADD SWAP2 SWAP1 PUSH1 0x0 MSTORE PUSH1 0x20 PUSH1 0x0 KECCAK256 SWAP1 JUMPDEST DUP2 SLOAD DUP2 MSTORE SWAP1 PUSH1 0x1 ADD SWAP1 PUSH1 0x20 ADD DUP1 DUP4 GT PUSH2 0x441 JUMPI DUP3 SWAP1 SUB PUSH1 0x1F AND DUP3 ADD SWAP2 JUMPDEST POP POP POP POP POP SWAP1 DUP1 PUSH1 0x1 ADD SLOAD SWAP1 DUP1 PUSH1 0x2 ADD PUSH1 0x0 SWAP1 SLOAD SWAP1 PUSH2 0x100 EXP SWAP1 DIV PUSH20 0xFFFFFFFFFFFFFFFFFFFFFFFFFFFFFFFFFFFFFFFF AND SWAP1 DUP1 PUSH1 0x2 ADD PUSH1 0x14 SWAP1 SLOAD SWAP1 PUSH2 0x100 EXP SWAP1 DIV PUSH1 0xFF AND SWAP1 DUP1 PUSH1 0x3 ADD SLOAD SWAP1 POP DUP6 JUMP JUMPDEST PUSH1 0x5 SLOAD DUP2 JUMP JUMPDEST PUSH1 0x0 DUP1 SLOAD SWAP1 PUSH2 0x100 EXP SWAP1 DIV PUSH20 0xFFFFFFFFFFFFFFFFFFFFFFFFFFFFFFFFFFFFFFFF AND PUSH20 0xFFFFFFFFFFFFFFFFFFFFFFFFFFFFFFFFFFFFFFFF AND CALLER PUSH20 0xFFFFFFFFFFFFFFFFFFFFFFFFFFFFFFFFFFFFFFFF AND EQ PUSH2 0x50B JUMPI PUSH1 0x0 DUP1 REVERT JUMPDEST PUSH1 0x0 PUSH1 0x4 PUSH1 0x0 PUSH1 0x3 PUSH1 0x0 DUP2 SLOAD DUP1 SWAP3 SWAP2 SWAP1 PUSH2 0x524 SWAP1 PUSH2 0xCAD JUMP JUMPDEST SWAP2 SWAP1 POP SSTORE DUP2 MSTORE PUSH1 0x20 ADD SWAP1 DUP2 MSTORE PUSH1 0x20 ADD PUSH1 0x0 KECCAK256 SWAP1 POP DUP5 DUP5 DUP3 PUSH1 0x0 ADD SWAP2 SWAP1 PUSH2 0x54B SWAP3 SWAP2 SWAP1 PUSH2 0x78F JUMP JUMPDEST POP DUP3 DUP2 PUSH1 0x1 ADD DUP2 SWAP1 SSTORE POP DUP2 DUP2 PUSH1 0x2 ADD PUSH1 0x0 PUSH2 0x100 EXP DUP2 SLOAD DUP2 PUSH20 0xFFFFFFFFFFFFFFFFFFFFFFFFFFFFFFFFFFFFFFFF MUL NOT AND SWAP1 DUP4 PUSH20 0xFFFFFFFFFFFFFFFFFFFFFFFFFFFFFFFFFFFFFFFF AND MUL OR SWAP1 SSTORE POP PUSH1 0x0 DUP2 PUSH1 0x2 ADD PUSH1 0x14 PUSH2 0x100 EXP DUP2 SLOAD DUP2 PUSH1 0xFF MUL NOT AND SWAP1 DUP4 ISZERO ISZERO MUL OR SWAP1 SSTORE POP PUSH1 0x0 DUP2 PUSH1 0x3 ADD DUP2 SWAP1 SSTORE POP POP POP POP POP POP JUMP JUMPDEST PUSH1 0x2 SLOAD DUP2 JUMP JUMPDEST PUSH1 0x3 SLOAD DUP2 JUMP JUMPDEST PUSH1 0x2 SLOAD CALLVALUE GT PUSH2 0x5E0 JUMPI PUSH1 0x0 DUP1 REVERT JUMPDEST PUSH1 0x1 DUP1 PUSH1 0x0 CALLER PUSH20 0xFFFFFFFFFFFFFFFFFFFFFFFFFFFFFFFFFFFFFFFF AND PUSH20 0xFFFFFFFFFFFFFFFFFFFFFFFFFFFFFFFFFFFFFFFF AND DUP2 MSTORE PUSH1 0x20 ADD SWAP1 DUP2 MSTORE PUSH1 0x20 ADD PUSH1 0x0 KECCAK256 PUSH1 0x0 PUSH2 0x100 EXP DUP2 SLOAD DUP2 PUSH1 0xFF MUL NOT AND SWAP1 DUP4 ISZERO ISZERO MUL OR SWAP1 SSTORE POP PUSH1 0x5 PUSH1 0x0 DUP2 SLOAD DUP1 SWAP3 SWAP2 SWAP1 PUSH2 0x64A SWAP1 PUSH2 0xCAD JUMP JUMPDEST SWAP2 SWAP1 POP SSTORE POP JUMP JUMPDEST PUSH1 0x0 PUSH1 0x4 PUSH1 0x0 DUP4 DUP2 MSTORE PUSH1 0x20 ADD SWAP1 DUP2 MSTORE PUSH1 0x20 ADD PUSH1 0x0 KECCAK256 SWAP1 POP PUSH1 0x1 PUSH1 0x0 CALLER PUSH20 0xFFFFFFFFFFFFFFFFFFFFFFFFFFFFFFFFFFFFFFFF AND PUSH20 0xFFFFFFFFFFFFFFFFFFFFFFFFFFFFFFFFFFFFFFFF AND DUP2 MSTORE PUSH1 0x20 ADD SWAP1 DUP2 MSTORE PUSH1 0x20 ADD PUSH1 0x0 KECCAK256 PUSH1 0x0 SWAP1 SLOAD SWAP1 PUSH2 0x100 EXP SWAP1 DIV PUSH1 0xFF AND PUSH2 0x6BE JUMPI PUSH1 0x0 DUP1 REVERT JUMPDEST DUP1 PUSH1 0x4 ADD PUSH1 0x0 CALLER PUSH20 0xFFFFFFFFFFFFFFFFFFFFFFFFFFFFFFFFFFFFFFFF AND PUSH20 0xFFFFFFFFFFFFFFFFFFFFFFFFFFFFFFFFFFFFFFFF AND DUP2 MSTORE PUSH1 0x20 ADD SWAP1 DUP2 MSTORE PUSH1 0x20 ADD PUSH1 0x0 KECCAK256 PUSH1 0x0 SWAP1 SLOAD SWAP1 PUSH2 0x100 EXP SWAP1 DIV PUSH1 0xFF AND ISZERO PUSH2 0x717 JUMPI PUSH1 0x0 DUP1 REVERT JUMPDEST PUSH1 0x1 DUP2 PUSH1 0x4 ADD PUSH1 0x0 CALLER PUSH20 0xFFFFFFFFFFFFFFFFFFFFFFFFFFFFFFFFFFFFFFFF AND PUSH20 0xFFFFFFFFFFFFFFFFFFFFFFFFFFFFFFFFFFFFFFFF AND DUP2 MSTORE PUSH1 0x20 ADD SWAP1 DUP2 MSTORE PUSH1 0x20 ADD PUSH1 0x0 KECCAK256 PUSH1 0x0 PUSH2 0x100 EXP DUP2 SLOAD DUP2 PUSH1 0xFF MUL NOT AND SWAP1 DUP4 ISZERO ISZERO MUL OR SWAP1 SSTORE POP DUP1 PUSH1 0x3 ADD PUSH1 0x0 DUP2 SLOAD DUP1 SWAP3 SWAP2 SWAP1 PUSH2 0x786 SWAP1 PUSH2 0xCAD JUMP JUMPDEST SWAP2 SWAP1 POP SSTORE POP POP POP JUMP JUMPDEST DUP3 DUP1 SLOAD PUSH2 0x79B SWAP1 PUSH2 0xC7C JUMP JUMPDEST SWAP1 PUSH1 0x0 MSTORE PUSH1 0x20 PUSH1 0x0 KECCAK256 SWAP1 PUSH1 0x1F ADD PUSH1 0x20 SWAP1 DIV DUP2 ADD SWAP3 DUP3 PUSH2 0x7BD JUMPI PUSH1 0x0 DUP6 SSTORE PUSH2 0x804 JUMP JUMPDEST DUP3 PUSH1 0x1F LT PUSH2 0x7D6 JUMPI DUP1 CALLDATALOAD PUSH1 0xFF NOT AND DUP4 DUP1 ADD OR DUP6 SSTORE PUSH2 0x804 JUMP JUMPDEST DUP3 DUP1 ADD PUSH1 0x1 ADD DUP6 SSTORE DUP3 ISZERO PUSH2 0x804 JUMPI SWAP2 DUP3 ADD JUMPDEST DUP3 DUP2 GT ISZERO PUSH2 0x803 JUMPI DUP3 CALLDATALOAD DUP3 SSTORE SWAP2 PUSH1 0x20 ADD SWAP2 SWAP1 PUSH1 0x1 ADD SWAP1 PUSH2 0x7E8 JUMP JUMPDEST JUMPDEST POP SWAP1 POP PUSH2 0x811 SWAP2 SWAP1 PUSH2 0x815 JUMP JUMPDEST POP SWAP1 JUMP JUMPDEST JUMPDEST DUP1 DUP3 GT ISZERO PUSH2 0x82E JUMPI PUSH1 0x0 DUP2 PUSH1 0x0 SWAP1 SSTORE POP PUSH1 0x1 ADD PUSH2 0x816 JUMP JUMPDEST POP SWAP1 JUMP JUMPDEST PUSH1 0x0 DUP1 REVERT JUMPDEST PUSH1 0x0 DUP1 REVERT JUMPDEST PUSH1 0x0 DUP2 SWAP1 POP SWAP2 SWAP1 POP JUMP JUMPDEST PUSH2 0x84F DUP2 PUSH2 0x83C JUMP JUMPDEST DUP2 EQ PUSH2 0x85A JUMPI PUSH1 0x0 DUP1 REVERT JUMPDEST POP JUMP JUMPDEST PUSH1 0x0 DUP2 CALLDATALOAD SWAP1 POP PUSH2 0x86C DUP2 PUSH2 0x846 JUMP JUMPDEST SWAP3 SWAP2 POP POP JUMP JUMPDEST PUSH1 0x0 PUSH1 0x20 DUP3 DUP5 SUB SLT ISZERO PUSH2 0x888 JUMPI PUSH2 0x887 PUSH2 0x832 JUMP JUMPDEST JUMPDEST PUSH1 0x0 PUSH2 0x896 DUP5 DUP3 DUP6 ADD PUSH2 0x85D JUMP JUMPDEST SWAP2 POP POP SWAP3 SWAP2 POP POP JUMP JUMPDEST PUSH1 0x0 PUSH20 0xFFFFFFFFFFFFFFFFFFFFFFFFFFFFFFFFFFFFFFFF DUP3 AND SWAP1 POP SWAP2 SWAP1 POP JUMP JUMPDEST PUSH1 0x0 PUSH2 0x8CA DUP3 PUSH2 0x89F JUMP JUMPDEST SWAP1 POP SWAP2 SWAP1 POP JUMP JUMPDEST PUSH2 0x8DA DUP2 PUSH2 0x8BF JUMP JUMPDEST DUP2 EQ PUSH2 0x8E5 JUMPI PUSH1 0x0 DUP1 REVERT JUMPDEST POP JUMP JUMPDEST PUSH1 0x0 DUP2 CALLDATALOAD SWAP1 POP PUSH2 0x8F7 DUP2 PUSH2 0x8D1 JUMP JUMPDEST SWAP3 SWAP2 POP POP JUMP JUMPDEST PUSH1 0x0 PUSH1 0x20 DUP3 DUP5 SUB SLT ISZERO PUSH2 0x913 JUMPI PUSH2 0x912 PUSH2 0x832 JUMP JUMPDEST JUMPDEST PUSH1 0x0 PUSH2 0x921 DUP5 DUP3 DUP6 ADD PUSH2 0x8E8 JUMP JUMPDEST SWAP2 POP POP SWAP3 SWAP2 POP POP JUMP JUMPDEST PUSH1 0x0 DUP2 ISZERO ISZERO SWAP1 POP SWAP2 SWAP1 POP JUMP JUMPDEST PUSH2 0x93F DUP2 PUSH2 0x92A JUMP JUMPDEST DUP3 MSTORE POP POP JUMP JUMPDEST PUSH1 0x0 PUSH1 0x20 DUP3 ADD SWAP1 POP PUSH2 0x95A PUSH1 0x0 DUP4 ADD DUP5 PUSH2 0x936 JUMP JUMPDEST SWAP3 SWAP2 POP POP JUMP JUMPDEST PUSH1 0x0 PUSH2 0x96B DUP3 PUSH2 0x89F JUMP JUMPDEST SWAP1 POP SWAP2 SWAP1 POP JUMP JUMPDEST PUSH2 0x97B DUP2 PUSH2 0x960 JUMP JUMPDEST DUP3 MSTORE POP POP JUMP JUMPDEST PUSH1 0x0 PUSH1 0x20 DUP3 ADD SWAP1 POP PUSH2 0x996 PUSH1 0x0 DUP4 ADD DUP5 PUSH2 0x972 JUMP JUMPDEST SWAP3 SWAP2 POP POP JUMP JUMPDEST PUSH1 0x0 DUP2 MLOAD SWAP1 POP SWAP2 SWAP1 POP JUMP JUMPDEST PUSH1 0x0 DUP3 DUP3 MSTORE PUSH1 0x20 DUP3 ADD SWAP1 POP SWAP3 SWAP2 POP POP JUMP JUMPDEST PUSH1 0x0 JUMPDEST DUP4 DUP2 LT ISZERO PUSH2 0x9D6 JUMPI DUP1 DUP3 ADD MLOAD DUP2 DUP5 ADD MSTORE PUSH1 0x20 DUP2 ADD SWAP1 POP PUSH2 0x9BB JUMP JUMPDEST DUP4 DUP2 GT ISZERO PUSH2 0x9E5 JUMPI PUSH1 0x0 DUP5 DUP5 ADD MSTORE JUMPDEST POP POP POP POP JUMP JUMPDEST PUSH1 0x0 PUSH1 0x1F NOT PUSH1 0x1F DUP4 ADD AND SWAP1 POP SWAP2 SWAP1 POP JUMP JUMPDEST PUSH1 0x0 PUSH2 0xA07 DUP3 PUSH2 0x99C JUMP JUMPDEST PUSH2 0xA11 DUP2 DUP6 PUSH2 0x9A7 JUMP JUMPDEST SWAP4 POP PUSH2 0xA21 DUP2 DUP6 PUSH1 0x20 DUP7 ADD PUSH2 0x9B8 JUMP JUMPDEST PUSH2 0xA2A DUP2 PUSH2 0x9EB JUMP JUMPDEST DUP5 ADD SWAP2 POP POP SWAP3 SWAP2 POP POP JUMP JUMPDEST PUSH2 0xA3E DUP2 PUSH2 0x83C JUMP JUMPDEST DUP3 MSTORE POP POP JUMP JUMPDEST PUSH1 0x0 PUSH1 0xA0 DUP3 ADD SWAP1 POP DUP2 DUP2 SUB PUSH1 0x0 DUP4 ADD MSTORE PUSH2 0xA5E DUP2 DUP9 PUSH2 0x9FC JUMP JUMPDEST SWAP1 POP PUSH2 0xA6D PUSH1 0x20 DUP4 ADD DUP8 PUSH2 0xA35 JUMP JUMPDEST PUSH2 0xA7A PUSH1 0x40 DUP4 ADD DUP7 PUSH2 0x972 JUMP JUMPDEST PUSH2 0xA87 PUSH1 0x60 DUP4 ADD DUP6 PUSH2 0x936 JUMP JUMPDEST PUSH2 0xA94 PUSH1 0x80 DUP4 ADD DUP5 PUSH2 0xA35 JUMP JUMPDEST SWAP7 SWAP6 POP POP POP POP POP POP JUMP JUMPDEST PUSH1 0x0 PUSH1 0x20 DUP3 ADD SWAP1 POP PUSH2 0xAB3 PUSH1 0x0 DUP4 ADD DUP5 PUSH2 0xA35 JUMP JUMPDEST SWAP3 SWAP2 POP POP JUMP JUMPDEST PUSH1 0x0 DUP1 REVERT JUMPDEST PUSH1 0x0 DUP1 REVERT JUMPDEST PUSH1 0x0 DUP1 REVERT JUMPDEST PUSH1 0x0 DUP1 DUP4 PUSH1 0x1F DUP5 ADD SLT PUSH2 0xADE JUMPI PUSH2 0xADD PUSH2 0xAB9 JUMP JUMPDEST JUMPDEST DUP3 CALLDATALOAD SWAP1 POP PUSH8 0xFFFFFFFFFFFFFFFF DUP2 GT ISZERO PUSH2 0xAFB JUMPI PUSH2 0xAFA PUSH2 0xABE JUMP JUMPDEST JUMPDEST PUSH1 0x20 DUP4 ADD SWAP2 POP DUP4 PUSH1 0x1 DUP3 MUL DUP4 ADD GT ISZERO PUSH2 0xB17 JUMPI PUSH2 0xB16 PUSH2 0xAC3 JUMP JUMPDEST JUMPDEST SWAP3 POP SWAP3 SWAP1 POP JUMP JUMPDEST PUSH2 0xB27 DUP2 PUSH2 0x960 JUMP JUMPDEST DUP2 EQ PUSH2 0xB32 JUMPI PUSH1 0x0 DUP1 REVERT JUMPDEST POP JUMP JUMPDEST PUSH1 0x0 DUP2 CALLDATALOAD SWAP1 POP PUSH2 0xB44 DUP2 PUSH2 0xB1E JUMP JUMPDEST SWAP3 SWAP2 POP POP JUMP JUMPDEST PUSH1 0x0 DUP1 PUSH1 0x0 DUP1 PUSH1 0x60 DUP6 DUP8 SUB SLT ISZERO PUSH2 0xB64 JUMPI PUSH2 0xB63 PUSH2 0x832 JUMP JUMPDEST JUMPDEST PUSH1 0x0 DUP6 ADD CALLDATALOAD PUSH8 0xFFFFFFFFFFFFFFFF DUP2 GT ISZERO PUSH2 0xB82 JUMPI PUSH2 0xB81 PUSH2 0x837 JUMP JUMPDEST JUMPDEST PUSH2 0xB8E DUP8 DUP3 DUP9 ADD PUSH2 0xAC8 JUMP JUMPDEST SWAP5 POP SWAP5 POP POP PUSH1 0x20 PUSH2 0xBA1 DUP8 DUP3 DUP9 ADD PUSH2 0x85D JUMP JUMPDEST SWAP3 POP POP PUSH1 0x40 PUSH2 0xBB2 DUP8 DUP3 DUP9 ADD PUSH2 0xB35 JUMP JUMPDEST SWAP2 POP POP SWAP3 SWAP6 SWAP2 SWAP5 POP SWAP3 POP JUMP JUMPDEST PUSH32 0x4E487B7100000000000000000000000000000000000000000000000000000000 PUSH1 0x0 MSTORE PUSH1 0x12 PUSH1 0x4 MSTORE PUSH1 0x24 PUSH1 0x0 REVERT JUMPDEST PUSH32 0x4E487B7100000000000000000000000000000000000000000000000000000000 PUSH1 0x0 MSTORE PUSH1 0x11 PUSH1 0x4 MSTORE PUSH1 0x24 PUSH1 0x0 REVERT JUMPDEST PUSH1 0x0 PUSH2 0xC27 DUP3 PUSH2 0x83C JUMP JUMPDEST SWAP2 POP PUSH2 0xC32 DUP4 PUSH2 0x83C JUMP JUMPDEST SWAP3 POP DUP3 PUSH2 0xC42 JUMPI PUSH2 0xC41 PUSH2 0xBBE JUMP JUMPDEST JUMPDEST DUP3 DUP3 DIV SWAP1 POP SWAP3 SWAP2 POP POP JUMP JUMPDEST PUSH32 0x4E487B7100000000000000000000000000000000000000000000000000000000 PUSH1 0x0 MSTORE PUSH1 0x22 PUSH1 0x4 MSTORE PUSH1 0x24 PUSH1 0x0 REVERT JUMPDEST PUSH1 0x0 PUSH1 0x2 DUP3 DIV SWAP1 POP PUSH1 0x1 DUP3 AND DUP1 PUSH2 0xC94 JUMPI PUSH1 0x7F DUP3 AND SWAP2 POP JUMPDEST PUSH1 0x20 DUP3 LT DUP2 SUB PUSH2 0xCA7 JUMPI PUSH2 0xCA6 PUSH2 0xC4D JUMP JUMPDEST JUMPDEST POP SWAP2 SWAP1 POP JUMP JUMPDEST PUSH1 0x0 PUSH2 0xCB8 DUP3 PUSH2 0x83C JUMP JUMPDEST SWAP2 POP PUSH32 0xFFFFFFFFFFFFFFFFFFFFFFFFFFFFFFFFFFFFFFFFFFFFFFFFFFFFFFFFFFFFFFFF DUP3 SUB PUSH2 0xCEA JUMPI PUSH2 0xCE9 PUSH2 0xBED JUMP JUMPDEST JUMPDEST PUSH1 0x1 DUP3 ADD SWAP1 POP SWAP2 SWAP1 POP JUMP INVALID LOG2 PUSH5 0x6970667358 0x22 SLT KECCAK256 0x5D 0xE0 LOG0 0x2A PUSH4 0x6941F1C9 KECCAK256 0xDA 0x23 0xD4 0xBB 0xB7 SIGNEXTEND SWAP6 0xC9 0xE3 SWAP8 LOG2 DUP6 0x4E SAR DIFFICULTY SWAP16 0xAC EXP 0xFC 0xC6 0xC3 0xB4 PUSH5 0x736F6C6343 STOP ADDMOD 0xD STOP CALLER LOG2 PUSH5 0x6970667358 0x22 SLT KECCAK256 SSTORE 0xB0 0xB5 SELFDESTRUCT SUB SWAP16 0x49 0xC8 CODESIZE 0xDD CREATE2 0xC1 SWAP8 0xA5 SWAP8 PUSH20 0x174D655E21CA726DA317DA9C340CE1B764736F6C PUSH4 0x4300080D STOP CALLER "
    },
    "gasEstimates": {
      "creation": {
        "codeDepositCost": "968400",
        "executionCost": "1008",
        "totalCost": "969408"
      },
      "external": {
        "createCampaign(uint256)": "infinite",
        "deployedCampaigns(uint256)": "4934",
        "getDeployedContracts()": "infinite"
      }
    },
    "methodIdentifiers": {
      "createCampaign(uint256)": "a3303a75",
      "deployedCampaigns(uint256)": "339d50a5",
      "getDeployedContracts()": "aa9a068f"
    }
  },
  "storageLayout": {
    "storage": [
      {
        "astId": 4,
        "contract": "Campaign.sol:CampaignFactory",
        "label": "deployedCampaigns",
        "offset": 0,
        "slot": "0",
        "type": "t_array(t_address)dyn_storage"
      }
    ],
    "types": {
      "t_address": {
        "encoding": "inplace",
        "label": "address",
        "numberOfBytes": "20"
      },
      "t_array(t_address)dyn_storage": {
        "base": "t_address",
        "encoding": "dynamic_array",
        "label": "address[]",
        "numberOfBytes": "32"
      }
    }
  },
  "userdoc": {
    "kind": "user",
    "methods": {},
    "version": 1
  }
}