{"abi":[{"inputs":[{"internalType":"uint256","name":"_minimum","type":"uint256"},{"internalType":"address","name":"_creator","type":"address"}],"stateMutability":"nonpayable","type":"constructor"},{"inputs":[{"internalType":"uint256","name":"_index","type":"uint256"}],"name":"approveRequest","outputs":[],"stateMutability":"nonpayable","type":"function"},{"inputs":[{"internalType":"address","name":"","type":"address"}],"name":"approvers","outputs":[{"internalType":"bool","name":"","type":"bool"}],"stateMutability":"view","type":"function"},{"inputs":[],"name":"approversCount","outputs":[{"internalType":"uint256","name":"","type":"uint256"}],"stateMutability":"view","type":"function"},{"inputs":[],"name":"contribute","outputs":[],"stateMutability":"payable","type":"function"},{"inputs":[{"internalType":"string","name":"_description","type":"string"},{"internalType":"uint256","name":"_value","type":"uint256"},{"internalType":"address payable","name":"_recipient","type":"address"}],"name":"createRequest","outputs":[],"stateMutability":"nonpayable","type":"function"},{"inputs":[{"internalType":"uint256","name":"_requestIndex","type":"uint256"}],"name":"finalizeRequest","outputs":[],"stateMutability":"nonpayable","type":"function"},{"inputs":[],"name":"getSummary","outputs":[{"internalType":"uint256","name":"","type":"uint256"},{"internalType":"uint256","name":"","type":"uint256"},{"internalType":"uint256","name":"","type":"uint256"},{"internalType":"uint256","name":"","type":"uint256"},{"internalType":"address","name":"","type":"address"}],"stateMutability":"view","type":"function"},{"inputs":[],"name":"manager","outputs":[{"internalType":"address payable","name":"","type":"address"}],"stateMutability":"view","type":"function"},{"inputs":[],"name":"minimumContribution","outputs":[{"internalType":"uint256","name":"","type":"uint256"}],"stateMutability":"view","type":"function"},{"inputs":[],"name":"numRequests","outputs":[{"internalType":"uint256","name":"","type":"uint256"}],"stateMutability":"view","type":"function"},{"inputs":[{"internalType":"uint256","name":"","type":"uint256"}],"name":"requests","outputs":[{"internalType":"string","name":"description","type":"string"},{"internalType":"uint256","name":"value","type":"uint256"},{"internalType":"address payable","name":"recipient","type":"address"},{"internalType":"bool","name":"complete","type":"bool"},{"internalType":"uint256","name":"approvalCount","type":"uint256"}],"stateMutability":"view","type":"function"}],"devdoc":{"kind":"dev","methods":{},"version":1},"evm":{"assembly":"    /* \"Campaign.sol\":1064:7193  contract Campaign {... */\n  mstore(0x40, 0x80)\n    /* \"Campaign.sol\":3559:3839  constructor(uint256 _minimum, address _creator) {... */\n  callvalue\n  dup1\n  iszero\n  tag_1\n  jumpi\n  0x00\n  dup1\n  revert\ntag_1:\n  pop\n  mload(0x40)\n  sub(codesize, bytecodeSize)\n  dup1\n  bytecodeSize\n  dup4\n  codecopy\n  dup2\n  dup2\n  add\n  0x40\n  mstore\n  dup2\n  add\n  swap1\n  tag_2\n  swap2\n  swap1\n  tag_3\n  jump\t// in\ntag_2:\n    /* \"Campaign.sol\":3730:3738  _minimum */\n  dup2\n    /* \"Campaign.sol\":3708:3727  minimumContribution */\n  0x02\n    /* \"Campaign.sol\":3708:3738  minimumContribution = _minimum */\n  dup2\n  swap1\n  sstore\n  pop\n    /* \"Campaign.sol\":3822:3830  _creator */\n  dup1\n    /* \"Campaign.sol\":3804:3811  manager */\n  0x00\n  dup1\n    /* \"Campaign.sol\":3804:3831  manager = payable(_creator) */\n  0x0100\n  exp\n  dup2\n  sload\n  dup2\n  0xffffffffffffffffffffffffffffffffffffffff\n  mul\n  not\n  and\n  swap1\n  dup4\n  0xffffffffffffffffffffffffffffffffffffffff\n  and\n  mul\n  or\n  swap1\n  sstore\n  pop\n    /* \"Campaign.sol\":3559:3839  constructor(uint256 _minimum, address _creator) {... */\n  pop\n  pop\n    /* \"Campaign.sol\":1064:7193  contract Campaign {... */\n  jump(tag_6)\n    /* \"#utility.yul\":88:205   */\ntag_8:\n    /* \"#utility.yul\":197:198   */\n  0x00\n    /* \"#utility.yul\":194:195   */\n  dup1\n    /* \"#utility.yul\":187:199   */\n  revert\n    /* \"#utility.yul\":334:411   */\ntag_10:\n    /* \"#utility.yul\":371:378   */\n  0x00\n    /* \"#utility.yul\":400:405   */\n  dup2\n    /* \"#utility.yul\":389:405   */\n  swap1\n  pop\n    /* \"#utility.yul\":334:411   */\n  swap2\n  swap1\n  pop\n  jump\t// out\n    /* \"#utility.yul\":417:539   */\ntag_11:\n    /* \"#utility.yul\":490:514   */\n  tag_23\n    /* \"#utility.yul\":508:513   */\n  dup2\n    /* \"#utility.yul\":490:514   */\n  tag_10\n  jump\t// in\ntag_23:\n    /* \"#utility.yul\":483:488   */\n  dup2\n    /* \"#utility.yul\":480:515   */\n  eq\n    /* \"#utility.yul\":470:533   */\n  tag_24\n  jumpi\n    /* \"#utility.yul\":529:530   */\n  0x00\n    /* \"#utility.yul\":526:527   */\n  dup1\n    /* \"#utility.yul\":519:531   */\n  revert\n    /* \"#utility.yul\":470:533   */\ntag_24:\n    /* \"#utility.yul\":417:539   */\n  pop\n  jump\t// out\n    /* \"#utility.yul\":545:688   */\ntag_12:\n    /* \"#utility.yul\":602:607   */\n  0x00\n    /* \"#utility.yul\":633:639   */\n  dup2\n    /* \"#utility.yul\":627:640   */\n  mload\n    /* \"#utility.yul\":618:640   */\n  swap1\n  pop\n    /* \"#utility.yul\":649:682   */\n  tag_26\n    /* \"#utility.yul\":676:681   */\n  dup2\n    /* \"#utility.yul\":649:682   */\n  tag_11\n  jump\t// in\ntag_26:\n    /* \"#utility.yul\":545:688   */\n  swap3\n  swap2\n  pop\n  pop\n  jump\t// out\n    /* \"#utility.yul\":694:820   */\ntag_13:\n    /* \"#utility.yul\":731:738   */\n  0x00\n    /* \"#utility.yul\":771:813   */\n  0xffffffffffffffffffffffffffffffffffffffff\n    /* \"#utility.yul\":764:769   */\n  dup3\n    /* \"#utility.yul\":760:814   */\n  and\n    /* \"#utility.yul\":749:814   */\n  swap1\n  pop\n    /* \"#utility.yul\":694:820   */\n  swap2\n  swap1\n  pop\n  jump\t// out\n    /* \"#utility.yul\":826:922   */\ntag_14:\n    /* \"#utility.yul\":863:870   */\n  0x00\n    /* \"#utility.yul\":892:916   */\n  tag_29\n    /* \"#utility.yul\":910:915   */\n  dup3\n    /* \"#utility.yul\":892:916   */\n  tag_13\n  jump\t// in\ntag_29:\n    /* \"#utility.yul\":881:916   */\n  swap1\n  pop\n    /* \"#utility.yul\":826:922   */\n  swap2\n  swap1\n  pop\n  jump\t// out\n    /* \"#utility.yul\":928:1050   */\ntag_15:\n    /* \"#utility.yul\":1001:1025   */\n  tag_31\n    /* \"#utility.yul\":1019:1024   */\n  dup2\n    /* \"#utility.yul\":1001:1025   */\n  tag_14\n  jump\t// in\ntag_31:\n    /* \"#utility.yul\":994:999   */\n  dup2\n    /* \"#utility.yul\":991:1026   */\n  eq\n    /* \"#utility.yul\":981:1044   */\n  tag_32\n  jumpi\n    /* \"#utility.yul\":1040:1041   */\n  0x00\n    /* \"#utility.yul\":1037:1038   */\n  dup1\n    /* \"#utility.yul\":1030:1042   */\n  revert\n    /* \"#utility.yul\":981:1044   */\ntag_32:\n    /* \"#utility.yul\":928:1050   */\n  pop\n  jump\t// out\n    /* \"#utility.yul\":1056:1199   */\ntag_16:\n    /* \"#utility.yul\":1113:1118   */\n  0x00\n    /* \"#utility.yul\":1144:1150   */\n  dup2\n    /* \"#utility.yul\":1138:1151   */\n  mload\n    /* \"#utility.yul\":1129:1151   */\n  swap1\n  pop\n    /* \"#utility.yul\":1160:1193   */\n  tag_34\n    /* \"#utility.yul\":1187:1192   */\n  dup2\n    /* \"#utility.yul\":1160:1193   */\n  tag_15\n  jump\t// in\ntag_34:\n    /* \"#utility.yul\":1056:1199   */\n  swap3\n  swap2\n  pop\n  pop\n  jump\t// out\n    /* \"#utility.yul\":1205:1712   */\ntag_3:\n    /* \"#utility.yul\":1284:1290   */\n  0x00\n    /* \"#utility.yul\":1292:1298   */\n  dup1\n    /* \"#utility.yul\":1341:1343   */\n  0x40\n    /* \"#utility.yul\":1329:1338   */\n  dup4\n    /* \"#utility.yul\":1320:1327   */\n  dup6\n    /* \"#utility.yul\":1316:1339   */\n  sub\n    /* \"#utility.yul\":1312:1344   */\n  slt\n    /* \"#utility.yul\":1309:1428   */\n  iszero\n  tag_36\n  jumpi\n    /* \"#utility.yul\":1347:1426   */\n  tag_37\n  tag_8\n  jump\t// in\ntag_37:\n    /* \"#utility.yul\":1309:1428   */\ntag_36:\n    /* \"#utility.yul\":1467:1468   */\n  0x00\n    /* \"#utility.yul\":1492:1556   */\n  tag_38\n    /* \"#utility.yul\":1548:1555   */\n  dup6\n    /* \"#utility.yul\":1539:1545   */\n  dup3\n    /* \"#utility.yul\":1528:1537   */\n  dup7\n    /* \"#utility.yul\":1524:1546   */\n  add\n    /* \"#utility.yul\":1492:1556   */\n  tag_12\n  jump\t// in\ntag_38:\n    /* \"#utility.yul\":1482:1556   */\n  swap3\n  pop\n    /* \"#utility.yul\":1438:1566   */\n  pop\n    /* \"#utility.yul\":1605:1607   */\n  0x20\n    /* \"#utility.yul\":1631:1695   */\n  tag_39\n    /* \"#utility.yul\":1687:1694   */\n  dup6\n    /* \"#utility.yul\":1678:1684   */\n  dup3\n    /* \"#utility.yul\":1667:1676   */\n  dup7\n    /* \"#utility.yul\":1663:1685   */\n  add\n    /* \"#utility.yul\":1631:1695   */\n  tag_16\n  jump\t// in\ntag_39:\n    /* \"#utility.yul\":1621:1695   */\n  swap2\n  pop\n    /* \"#utility.yul\":1576:1705   */\n  pop\n    /* \"#utility.yul\":1205:1712   */\n  swap3\n  pop\n  swap3\n  swap1\n  pop\n  jump\t// out\n    /* \"Campaign.sol\":1064:7193  contract Campaign {... */\ntag_6:\n  dataSize(sub_0)\n  dup1\n  dataOffset(sub_0)\n  0x00\n  codecopy\n  0x00\n  return\nstop\n\nsub_0: assembly {\n        /* \"Campaign.sol\":1064:7193  contract Campaign {... */\n      mstore(0x40, 0x80)\n      jumpi(tag_1, lt(calldatasize, 0x04))\n      shr(0xe0, calldataload(0x00))\n      dup1\n      0x82fde093\n      gt\n      tag_13\n      jumpi\n      dup1\n      0x82fde093\n      eq\n      tag_7\n      jumpi\n      dup1\n      0x8a9cfd55\n      eq\n      tag_8\n      jumpi\n      dup1\n      0x937e09b1\n      eq\n      tag_9\n      jumpi\n      dup1\n      0x9fb42b1f\n      eq\n      tag_10\n      jumpi\n      dup1\n      0xd7bb99ba\n      eq\n      tag_11\n      jumpi\n      dup1\n      0xd7d1bbdb\n      eq\n      tag_12\n      jumpi\n      jump(tag_1)\n    tag_13:\n      dup1\n      0x03441006\n      eq\n      tag_2\n      jumpi\n      dup1\n      0x0a144391\n      eq\n      tag_3\n      jumpi\n      dup1\n      0x4051ddac\n      eq\n      tag_4\n      jumpi\n      dup1\n      0x481c6a75\n      eq\n      tag_5\n      jumpi\n      dup1\n      0x81d12c58\n      eq\n      tag_6\n      jumpi\n    tag_1:\n      0x00\n      dup1\n      revert\n        /* \"Campaign.sol\":6281:6802  function finalizeRequest(uint256 _requestIndex) public restricted {... */\n    tag_2:\n      callvalue\n      dup1\n      iszero\n      tag_14\n      jumpi\n      0x00\n      dup1\n      revert\n    tag_14:\n      pop\n      tag_15\n      0x04\n      dup1\n      calldatasize\n      sub\n      dup2\n      add\n      swap1\n      tag_16\n      swap2\n      swap1\n      tag_17\n      jump\t// in\n    tag_16:\n      tag_18\n      jump\t// in\n    tag_15:\n      stop\n        /* \"Campaign.sol\":1450:1491  mapping(address => bool) public approvers */\n    tag_3:\n      callvalue\n      dup1\n      iszero\n      tag_19\n      jumpi\n      0x00\n      dup1\n      revert\n    tag_19:\n      pop\n      tag_20\n      0x04\n      dup1\n      calldatasize\n      sub\n      dup2\n      add\n      swap1\n      tag_21\n      swap2\n      swap1\n      tag_22\n      jump\t// in\n    tag_21:\n      tag_23\n      jump\t// in\n    tag_20:\n      mload(0x40)\n      tag_24\n      swap2\n      swap1\n      tag_25\n      jump\t// in\n    tag_24:\n      mload(0x40)\n      dup1\n      swap2\n      sub\n      swap1\n      return\n        /* \"Campaign.sol\":6810:7190  function getSummary()... */\n    tag_4:\n      callvalue\n      dup1\n      iszero\n      tag_26\n      jumpi\n      0x00\n      dup1\n      revert\n    tag_26:\n      pop\n      tag_27\n      tag_28\n      jump\t// in\n    tag_27:\n      mload(0x40)\n      tag_29\n      swap6\n      swap5\n      swap4\n      swap3\n      swap2\n      swap1\n      tag_30\n      jump\t// in\n    tag_29:\n      mload(0x40)\n      dup1\n      swap2\n      sub\n      swap1\n      return\n        /* \"Campaign.sol\":1141:1171  address payable public manager */\n    tag_5:\n      callvalue\n      dup1\n      iszero\n      tag_31\n      jumpi\n      0x00\n      dup1\n      revert\n    tag_31:\n      pop\n      tag_32\n      tag_33\n      jump\t// in\n    tag_32:\n      mload(0x40)\n      tag_34\n      swap2\n      swap1\n      tag_35\n      jump\t// in\n    tag_34:\n      mload(0x40)\n      dup1\n      swap2\n      sub\n      swap1\n      return\n        /* \"Campaign.sol\":3003:3046  mapping(uint256 => Request) public requests */\n    tag_6:\n      callvalue\n      dup1\n      iszero\n      tag_36\n      jumpi\n      0x00\n      dup1\n      revert\n    tag_36:\n      pop\n      tag_37\n      0x04\n      dup1\n      calldatasize\n      sub\n      dup2\n      add\n      swap1\n      tag_38\n      swap2\n      swap1\n      tag_17\n      jump\t// in\n    tag_38:\n      tag_39\n      jump\t// in\n    tag_37:\n      mload(0x40)\n      tag_40\n      swap6\n      swap5\n      swap4\n      swap3\n      swap2\n      swap1\n      tag_41\n      jump\t// in\n    tag_40:\n      mload(0x40)\n      dup1\n      swap2\n      sub\n      swap1\n      return\n        /* \"Campaign.sol\":3099:3128  uint256 public approversCount */\n    tag_7:\n      callvalue\n      dup1\n      iszero\n      tag_42\n      jumpi\n      0x00\n      dup1\n      revert\n    tag_42:\n      pop\n      tag_43\n      tag_44\n      jump\t// in\n    tag_43:\n      mload(0x40)\n      tag_45\n      swap2\n      swap1\n      tag_46\n      jump\t// in\n    tag_45:\n      mload(0x40)\n      dup1\n      swap2\n      sub\n      swap1\n      return\n        /* \"Campaign.sol\":4698:5219  function createRequest(... */\n    tag_8:\n      callvalue\n      dup1\n      iszero\n      tag_47\n      jumpi\n      0x00\n      dup1\n      revert\n    tag_47:\n      pop\n      tag_48\n      0x04\n      dup1\n      calldatasize\n      sub\n      dup2\n      add\n      swap1\n      tag_49\n      swap2\n      swap1\n      tag_50\n      jump\t// in\n    tag_49:\n      tag_51\n      jump\t// in\n    tag_48:\n      stop\n        /* \"Campaign.sol\":1967:2001  uint256 public minimumContribution */\n    tag_9:\n      callvalue\n      dup1\n      iszero\n      tag_52\n      jumpi\n      0x00\n      dup1\n      revert\n    tag_52:\n      pop\n      tag_53\n      tag_54\n      jump\t// in\n    tag_53:\n      mload(0x40)\n      tag_55\n      swap2\n      swap1\n      tag_46\n      jump\t// in\n    tag_55:\n      mload(0x40)\n      dup1\n      swap2\n      sub\n      swap1\n      return\n        /* \"Campaign.sol\":2688:2714  uint256 public numRequests */\n    tag_10:\n      callvalue\n      dup1\n      iszero\n      tag_56\n      jumpi\n      0x00\n      dup1\n      revert\n    tag_56:\n      pop\n      tag_57\n      tag_58\n      jump\t// in\n    tag_57:\n      mload(0x40)\n      tag_59\n      swap2\n      swap1\n      tag_46\n      jump\t// in\n    tag_59:\n      mload(0x40)\n      dup1\n      swap2\n      sub\n      swap1\n      return\n        /* \"Campaign.sol\":3984:4591  function contribute() public payable {... */\n    tag_11:\n      tag_60\n      tag_61\n      jump\t// in\n    tag_60:\n      stop\n        /* \"Campaign.sol\":5422:6240  function approveRequest(uint256 _index) public {... */\n    tag_12:\n      callvalue\n      dup1\n      iszero\n      tag_62\n      jumpi\n      0x00\n      dup1\n      revert\n    tag_62:\n      pop\n      tag_63\n      0x04\n      dup1\n      calldatasize\n      sub\n      dup2\n      add\n      swap1\n      tag_64\n      swap2\n      swap1\n      tag_17\n      jump\t// in\n    tag_64:\n      tag_65\n      jump\t// in\n    tag_63:\n      stop\n        /* \"Campaign.sol\":6281:6802  function finalizeRequest(uint256 _requestIndex) public restricted {... */\n    tag_18:\n        /* \"Campaign.sol\":3239:3246  manager */\n      0x00\n      dup1\n      sload\n      swap1\n      0x0100\n      exp\n      swap1\n      div\n      0xffffffffffffffffffffffffffffffffffffffff\n      and\n        /* \"Campaign.sol\":3225:3246  msg.sender == manager */\n      0xffffffffffffffffffffffffffffffffffffffff\n      and\n        /* \"Campaign.sol\":3225:3235  msg.sender */\n      caller\n        /* \"Campaign.sol\":3225:3246  msg.sender == manager */\n      0xffffffffffffffffffffffffffffffffffffffff\n      and\n      eq\n        /* \"Campaign.sol\":3217:3247  require(msg.sender == manager) */\n      tag_67\n      jumpi\n      0x00\n      dup1\n      revert\n    tag_67:\n        /* \"Campaign.sol\":6358:6381  Request storage request */\n      0x00\n        /* \"Campaign.sol\":6384:6392  requests */\n      0x04\n        /* \"Campaign.sol\":6384:6407  requests[_requestIndex] */\n      0x00\n        /* \"Campaign.sol\":6393:6406  _requestIndex */\n      dup4\n        /* \"Campaign.sol\":6384:6407  requests[_requestIndex] */\n      dup2\n      mstore\n      0x20\n      add\n      swap1\n      dup2\n      mstore\n      0x20\n      add\n      0x00\n      keccak256\n        /* \"Campaign.sol\":6358:6407  Request storage request = requests[_requestIndex] */\n      swap1\n      pop\n        /* \"Campaign.sol\":6524:6525  2 */\n      0x02\n        /* \"Campaign.sol\":6507:6521  approversCount */\n      sload(0x05)\n        /* \"Campaign.sol\":6507:6525  approversCount / 2 */\n      tag_69\n      swap2\n      swap1\n      tag_70\n      jump\t// in\n    tag_69:\n        /* \"Campaign.sol\":6482:6489  request */\n      dup2\n        /* \"Campaign.sol\":6482:6503  request.approvalCount */\n      0x03\n      add\n      sload\n        /* \"Campaign.sol\":6482:6526  request.approvalCount > (approversCount / 2) */\n      gt\n        /* \"Campaign.sol\":6474:6527  require(request.approvalCount > (approversCount / 2)) */\n      tag_71\n      jumpi\n      0x00\n      dup1\n      revert\n    tag_71:\n        /* \"Campaign.sol\":6602:6609  request */\n      dup1\n        /* \"Campaign.sol\":6602:6618  request.complete */\n      0x02\n      add\n      0x14\n      swap1\n      sload\n      swap1\n      0x0100\n      exp\n      swap1\n      div\n      0xff\n      and\n        /* \"Campaign.sol\":6601:6618  !request.complete */\n      iszero\n        /* \"Campaign.sol\":6593:6619  require(!request.complete) */\n      tag_72\n      jumpi\n      0x00\n      dup1\n      revert\n    tag_72:\n        /* \"Campaign.sol\":6678:6685  request */\n      dup1\n        /* \"Campaign.sol\":6678:6695  request.recipient */\n      0x02\n      add\n      0x00\n      swap1\n      sload\n      swap1\n      0x0100\n      exp\n      swap1\n      div\n      0xffffffffffffffffffffffffffffffffffffffff\n      and\n        /* \"Campaign.sol\":6678:6704  request.recipient.transfer */\n      0xffffffffffffffffffffffffffffffffffffffff\n      and\n        /* \"Campaign.sol\":6678:6719  request.recipient.transfer(request.value) */\n      0x08fc\n        /* \"Campaign.sol\":6705:6712  request */\n      dup3\n        /* \"Campaign.sol\":6705:6718  request.value */\n      0x01\n      add\n      sload\n        /* \"Campaign.sol\":6678:6719  request.recipient.transfer(request.value) */\n      swap1\n      dup2\n      iszero\n      mul\n      swap1\n      mload(0x40)\n      0x00\n      mload(0x40)\n      dup1\n      dup4\n      sub\n      dup2\n      dup6\n      dup9\n      dup9\n      call\n      swap4\n      pop\n      pop\n      pop\n      pop\n      iszero\n      dup1\n      iszero\n      tag_74\n      jumpi\n      returndatasize\n      0x00\n      dup1\n      returndatacopy\n      revert(0x00, returndatasize)\n    tag_74:\n      pop\n        /* \"Campaign.sol\":6790:6794  true */\n      0x01\n        /* \"Campaign.sol\":6771:6778  request */\n      dup2\n        /* \"Campaign.sol\":6771:6787  request.complete */\n      0x02\n      add\n      0x14\n        /* \"Campaign.sol\":6771:6794  request.complete = true */\n      0x0100\n      exp\n      dup2\n      sload\n      dup2\n      0xff\n      mul\n      not\n      and\n      swap1\n      dup4\n      iszero\n      iszero\n      mul\n      or\n      swap1\n      sstore\n      pop\n        /* \"Campaign.sol\":6347:6802  {... */\n      pop\n        /* \"Campaign.sol\":6281:6802  function finalizeRequest(uint256 _requestIndex) public restricted {... */\n      pop\n      jump\t// out\n        /* \"Campaign.sol\":1450:1491  mapping(address => bool) public approvers */\n    tag_23:\n      mstore(0x20, 0x01)\n      dup1\n      0x00\n      mstore\n      keccak256(0x00, 0x40)\n      0x00\n      swap2\n      pop\n      sload\n      swap1\n      0x0100\n      exp\n      swap1\n      div\n      0xff\n      and\n      dup2\n      jump\t// out\n        /* \"Campaign.sol\":6810:7190  function getSummary()... */\n    tag_28:\n        /* \"Campaign.sol\":6894:6901  uint256 */\n      0x00\n        /* \"Campaign.sol\":6916:6923  uint256 */\n      dup1\n        /* \"Campaign.sol\":6938:6945  uint256 */\n      0x00\n        /* \"Campaign.sol\":6960:6967  uint256 */\n      dup1\n        /* \"Campaign.sol\":6982:6989  address */\n      0x00\n        /* \"Campaign.sol\":7039:7058  minimumContribution */\n      sload(0x02)\n        /* \"Campaign.sol\":7073:7094  address(this).balance */\n      selfbalance\n        /* \"Campaign.sol\":7109:7120  numRequests */\n      sload(0x03)\n        /* \"Campaign.sol\":7135:7149  approversCount */\n      sload(0x05)\n        /* \"Campaign.sol\":7164:7171  manager */\n      0x00\n      dup1\n      sload\n      swap1\n      0x0100\n      exp\n      swap1\n      div\n      0xffffffffffffffffffffffffffffffffffffffff\n      and\n        /* \"Campaign.sol\":7017:7182  return (... */\n      swap5\n      pop\n      swap5\n      pop\n      swap5\n      pop\n      swap5\n      pop\n      swap5\n      pop\n        /* \"Campaign.sol\":6810:7190  function getSummary()... */\n      swap1\n      swap2\n      swap3\n      swap4\n      swap5\n      jump\t// out\n        /* \"Campaign.sol\":1141:1171  address payable public manager */\n    tag_33:\n      0x00\n      dup1\n      sload\n      swap1\n      0x0100\n      exp\n      swap1\n      div\n      0xffffffffffffffffffffffffffffffffffffffff\n      and\n      dup2\n      jump\t// out\n        /* \"Campaign.sol\":3003:3046  mapping(uint256 => Request) public requests */\n    tag_39:\n      mstore(0x20, 0x04)\n      dup1\n      0x00\n      mstore\n      keccak256(0x00, 0x40)\n      0x00\n      swap2\n      pop\n      swap1\n      pop\n      dup1\n      0x00\n      add\n      dup1\n      sload\n      tag_76\n      swap1\n      tag_77\n      jump\t// in\n    tag_76:\n      dup1\n      0x1f\n      add\n      0x20\n      dup1\n      swap2\n      div\n      mul\n      0x20\n      add\n      mload(0x40)\n      swap1\n      dup2\n      add\n      0x40\n      mstore\n      dup1\n      swap3\n      swap2\n      swap1\n      dup2\n      dup2\n      mstore\n      0x20\n      add\n      dup3\n      dup1\n      sload\n      tag_78\n      swap1\n      tag_77\n      jump\t// in\n    tag_78:\n      dup1\n      iszero\n      tag_79\n      jumpi\n      dup1\n      0x1f\n      lt\n      tag_80\n      jumpi\n      0x0100\n      dup1\n      dup4\n      sload\n      div\n      mul\n      dup4\n      mstore\n      swap2\n      0x20\n      add\n      swap2\n      jump(tag_79)\n    tag_80:\n      dup3\n      add\n      swap2\n      swap1\n      0x00\n      mstore\n      keccak256(0x00, 0x20)\n      swap1\n    tag_81:\n      dup2\n      sload\n      dup2\n      mstore\n      swap1\n      0x01\n      add\n      swap1\n      0x20\n      add\n      dup1\n      dup4\n      gt\n      tag_81\n      jumpi\n      dup3\n      swap1\n      sub\n      0x1f\n      and\n      dup3\n      add\n      swap2\n    tag_79:\n      pop\n      pop\n      pop\n      pop\n      pop\n      swap1\n      dup1\n      0x01\n      add\n      sload\n      swap1\n      dup1\n      0x02\n      add\n      0x00\n      swap1\n      sload\n      swap1\n      0x0100\n      exp\n      swap1\n      div\n      0xffffffffffffffffffffffffffffffffffffffff\n      and\n      swap1\n      dup1\n      0x02\n      add\n      0x14\n      swap1\n      sload\n      swap1\n      0x0100\n      exp\n      swap1\n      div\n      0xff\n      and\n      swap1\n      dup1\n      0x03\n      add\n      sload\n      swap1\n      pop\n      dup6\n      jump\t// out\n        /* \"Campaign.sol\":3099:3128  uint256 public approversCount */\n    tag_44:\n      sload(0x05)\n      dup2\n      jump\t// out\n        /* \"Campaign.sol\":4698:5219  function createRequest(... */\n    tag_51:\n        /* \"Campaign.sol\":3239:3246  manager */\n      0x00\n      dup1\n      sload\n      swap1\n      0x0100\n      exp\n      swap1\n      div\n      0xffffffffffffffffffffffffffffffffffffffff\n      and\n        /* \"Campaign.sol\":3225:3246  msg.sender == manager */\n      0xffffffffffffffffffffffffffffffffffffffff\n      and\n        /* \"Campaign.sol\":3225:3235  msg.sender */\n      caller\n        /* \"Campaign.sol\":3225:3246  msg.sender == manager */\n      0xffffffffffffffffffffffffffffffffffffffff\n      and\n      eq\n        /* \"Campaign.sol\":3217:3247  require(msg.sender == manager) */\n      tag_83\n      jumpi\n      0x00\n      dup1\n      revert\n    tag_83:\n        /* \"Campaign.sol\":4912:4938  Request storage newRequest */\n      0x00\n        /* \"Campaign.sol\":4941:4949  requests */\n      0x04\n        /* \"Campaign.sol\":4941:4964  requests[numRequests++] */\n      0x00\n        /* \"Campaign.sol\":4950:4961  numRequests */\n      0x03\n      0x00\n        /* \"Campaign.sol\":4950:4963  numRequests++ */\n      dup2\n      sload\n      dup1\n      swap3\n      swap2\n      swap1\n      tag_85\n      swap1\n      tag_86\n      jump\t// in\n    tag_85:\n      swap2\n      swap1\n      pop\n      sstore\n        /* \"Campaign.sol\":4941:4964  requests[numRequests++] */\n      dup2\n      mstore\n      0x20\n      add\n      swap1\n      dup2\n      mstore\n      0x20\n      add\n      0x00\n      keccak256\n        /* \"Campaign.sol\":4912:4964  Request storage newRequest = requests[numRequests++] */\n      swap1\n      pop\n        /* \"Campaign.sol\":5042:5054  _description */\n      dup5\n      dup5\n        /* \"Campaign.sol\":5017:5027  newRequest */\n      dup3\n        /* \"Campaign.sol\":5017:5039  newRequest.description */\n      0x00\n      add\n        /* \"Campaign.sol\":5017:5054  newRequest.description = _description */\n      swap2\n      swap1\n      tag_87\n      swap3\n      swap2\n      swap1\n      tag_88\n      jump\t// in\n    tag_87:\n      pop\n        /* \"Campaign.sol\":5084:5090  _value */\n      dup3\n        /* \"Campaign.sol\":5065:5075  newRequest */\n      dup2\n        /* \"Campaign.sol\":5065:5081  newRequest.value */\n      0x01\n      add\n        /* \"Campaign.sol\":5065:5090  newRequest.value = _value */\n      dup2\n      swap1\n      sstore\n      pop\n        /* \"Campaign.sol\":5124:5134  _recipient */\n      dup2\n        /* \"Campaign.sol\":5101:5111  newRequest */\n      dup2\n        /* \"Campaign.sol\":5101:5121  newRequest.recipient */\n      0x02\n      add\n      0x00\n        /* \"Campaign.sol\":5101:5134  newRequest.recipient = _recipient */\n      0x0100\n      exp\n      dup2\n      sload\n      dup2\n      0xffffffffffffffffffffffffffffffffffffffff\n      mul\n      not\n      and\n      swap1\n      dup4\n      0xffffffffffffffffffffffffffffffffffffffff\n      and\n      mul\n      or\n      swap1\n      sstore\n      pop\n        /* \"Campaign.sol\":5167:5172  false */\n      0x00\n        /* \"Campaign.sol\":5145:5155  newRequest */\n      dup2\n        /* \"Campaign.sol\":5145:5164  newRequest.complete */\n      0x02\n      add\n      0x14\n        /* \"Campaign.sol\":5145:5172  newRequest.complete = false */\n      0x0100\n      exp\n      dup2\n      sload\n      dup2\n      0xff\n      mul\n      not\n      and\n      swap1\n      dup4\n      iszero\n      iszero\n      mul\n      or\n      swap1\n      sstore\n      pop\n        /* \"Campaign.sol\":5210:5211  0 */\n      0x00\n        /* \"Campaign.sol\":5183:5193  newRequest */\n      dup2\n        /* \"Campaign.sol\":5183:5207  newRequest.approvalCount */\n      0x03\n      add\n        /* \"Campaign.sol\":5183:5211  newRequest.approvalCount = 0 */\n      dup2\n      swap1\n      sstore\n      pop\n        /* \"Campaign.sol\":4847:5219  {... */\n      pop\n        /* \"Campaign.sol\":4698:5219  function createRequest(... */\n      pop\n      pop\n      pop\n      pop\n      jump\t// out\n        /* \"Campaign.sol\":1967:2001  uint256 public minimumContribution */\n    tag_54:\n      sload(0x02)\n      dup2\n      jump\t// out\n        /* \"Campaign.sol\":2688:2714  uint256 public numRequests */\n    tag_58:\n      sload(0x03)\n      dup2\n      jump\t// out\n        /* \"Campaign.sol\":3984:4591  function contribute() public payable {... */\n    tag_61:\n        /* \"Campaign.sol\":4190:4209  minimumContribution */\n      sload(0x02)\n        /* \"Campaign.sol\":4178:4187  msg.value */\n      callvalue\n        /* \"Campaign.sol\":4178:4209  msg.value > minimumContribution */\n      gt\n        /* \"Campaign.sol\":4170:4210  require(msg.value > minimumContribution) */\n      tag_90\n      jumpi\n      0x00\n      dup1\n      revert\n    tag_90:\n        /* \"Campaign.sol\":4312:4316  true */\n      0x01\n        /* \"Campaign.sol\":4288:4297  approvers */\n      dup1\n        /* \"Campaign.sol\":4288:4309  approvers[msg.sender] */\n      0x00\n        /* \"Campaign.sol\":4298:4308  msg.sender */\n      caller\n        /* \"Campaign.sol\":4288:4309  approvers[msg.sender] */\n      0xffffffffffffffffffffffffffffffffffffffff\n      and\n      0xffffffffffffffffffffffffffffffffffffffff\n      and\n      dup2\n      mstore\n      0x20\n      add\n      swap1\n      dup2\n      mstore\n      0x20\n      add\n      0x00\n      keccak256\n      0x00\n        /* \"Campaign.sol\":4288:4316  approvers[msg.sender] = true */\n      0x0100\n      exp\n      dup2\n      sload\n      dup2\n      0xff\n      mul\n      not\n      and\n      swap1\n      dup4\n      iszero\n      iszero\n      mul\n      or\n      swap1\n      sstore\n      pop\n        /* \"Campaign.sol\":4441:4455  approversCount */\n      0x05\n      0x00\n        /* \"Campaign.sol\":4441:4457  approversCount++ */\n      dup2\n      sload\n      dup1\n      swap3\n      swap2\n      swap1\n      tag_91\n      swap1\n      tag_86\n      jump\t// in\n    tag_91:\n      swap2\n      swap1\n      pop\n      sstore\n      pop\n        /* \"Campaign.sol\":3984:4591  function contribute() public payable {... */\n      jump\t// out\n        /* \"Campaign.sol\":5422:6240  function approveRequest(uint256 _index) public {... */\n    tag_65:\n        /* \"Campaign.sol\":5637:5660  Request storage request */\n      0x00\n        /* \"Campaign.sol\":5663:5671  requests */\n      0x04\n        /* \"Campaign.sol\":5663:5679  requests[_index] */\n      0x00\n        /* \"Campaign.sol\":5672:5678  _index */\n      dup4\n        /* \"Campaign.sol\":5663:5679  requests[_index] */\n      dup2\n      mstore\n      0x20\n      add\n      swap1\n      dup2\n      mstore\n      0x20\n      add\n      0x00\n      keccak256\n        /* \"Campaign.sol\":5637:5679  Request storage request = requests[_index] */\n      swap1\n      pop\n        /* \"Campaign.sol\":5774:5783  approvers */\n      0x01\n        /* \"Campaign.sol\":5774:5795  approvers[msg.sender] */\n      0x00\n        /* \"Campaign.sol\":5784:5794  msg.sender */\n      caller\n        /* \"Campaign.sol\":5774:5795  approvers[msg.sender] */\n      0xffffffffffffffffffffffffffffffffffffffff\n      and\n      0xffffffffffffffffffffffffffffffffffffffff\n      and\n      dup2\n      mstore\n      0x20\n      add\n      swap1\n      dup2\n      mstore\n      0x20\n      add\n      0x00\n      keccak256\n      0x00\n      swap1\n      sload\n      swap1\n      0x0100\n      exp\n      swap1\n      div\n      0xff\n      and\n        /* \"Campaign.sol\":5766:5796  require(approvers[msg.sender]) */\n      tag_93\n      jumpi\n      0x00\n      dup1\n      revert\n    tag_93:\n        /* \"Campaign.sol\":6031:6038  request */\n      dup1\n        /* \"Campaign.sol\":6031:6048  request.approvals */\n      0x04\n      add\n        /* \"Campaign.sol\":6031:6060  request.approvals[msg.sender] */\n      0x00\n        /* \"Campaign.sol\":6049:6059  msg.sender */\n      caller\n        /* \"Campaign.sol\":6031:6060  request.approvals[msg.sender] */\n      0xffffffffffffffffffffffffffffffffffffffff\n      and\n      0xffffffffffffffffffffffffffffffffffffffff\n      and\n      dup2\n      mstore\n      0x20\n      add\n      swap1\n      dup2\n      mstore\n      0x20\n      add\n      0x00\n      keccak256\n      0x00\n      swap1\n      sload\n      swap1\n      0x0100\n      exp\n      swap1\n      div\n      0xff\n      and\n        /* \"Campaign.sol\":6030:6060  !request.approvals[msg.sender] */\n      iszero\n        /* \"Campaign.sol\":6022:6061  require(!request.approvals[msg.sender]) */\n      tag_94\n      jumpi\n      0x00\n      dup1\n      revert\n    tag_94:\n        /* \"Campaign.sol\":6158:6162  true */\n      0x01\n        /* \"Campaign.sol\":6126:6133  request */\n      dup2\n        /* \"Campaign.sol\":6126:6143  request.approvals */\n      0x04\n      add\n        /* \"Campaign.sol\":6126:6155  request.approvals[msg.sender] */\n      0x00\n        /* \"Campaign.sol\":6144:6154  msg.sender */\n      caller\n        /* \"Campaign.sol\":6126:6155  request.approvals[msg.sender] */\n      0xffffffffffffffffffffffffffffffffffffffff\n      and\n      0xffffffffffffffffffffffffffffffffffffffff\n      and\n      dup2\n      mstore\n      0x20\n      add\n      swap1\n      dup2\n      mstore\n      0x20\n      add\n      0x00\n      keccak256\n      0x00\n        /* \"Campaign.sol\":6126:6162  request.approvals[msg.sender] = true */\n      0x0100\n      exp\n      dup2\n      sload\n      dup2\n      0xff\n      mul\n      not\n      and\n      swap1\n      dup4\n      iszero\n      iszero\n      mul\n      or\n      swap1\n      sstore\n      pop\n        /* \"Campaign.sol\":6209:6216  request */\n      dup1\n        /* \"Campaign.sol\":6209:6230  request.approvalCount */\n      0x03\n      add\n      0x00\n        /* \"Campaign.sol\":6209:6232  request.approvalCount++ */\n      dup2\n      sload\n      dup1\n      swap3\n      swap2\n      swap1\n      tag_95\n      swap1\n      tag_86\n      jump\t// in\n    tag_95:\n      swap2\n      swap1\n      pop\n      sstore\n      pop\n        /* \"Campaign.sol\":5469:6240  {... */\n      pop\n        /* \"Campaign.sol\":5422:6240  function approveRequest(uint256 _index) public {... */\n      pop\n      jump\t// out\n    tag_88:\n      dup3\n      dup1\n      sload\n      tag_96\n      swap1\n      tag_77\n      jump\t// in\n    tag_96:\n      swap1\n      0x00\n      mstore\n      keccak256(0x00, 0x20)\n      swap1\n      0x1f\n      add\n      0x20\n      swap1\n      div\n      dup2\n      add\n      swap3\n      dup3\n      tag_98\n      jumpi\n      0x00\n      dup6\n      sstore\n      jump(tag_97)\n    tag_98:\n      dup3\n      0x1f\n      lt\n      tag_99\n      jumpi\n      dup1\n      calldataload\n      not(0xff)\n      and\n      dup4\n      dup1\n      add\n      or\n      dup6\n      sstore\n      jump(tag_97)\n    tag_99:\n      dup3\n      dup1\n      add\n      0x01\n      add\n      dup6\n      sstore\n      dup3\n      iszero\n      tag_97\n      jumpi\n      swap2\n      dup3\n      add\n    tag_100:\n      dup3\n      dup2\n      gt\n      iszero\n      tag_101\n      jumpi\n      dup3\n      calldataload\n      dup3\n      sstore\n      swap2\n      0x20\n      add\n      swap2\n      swap1\n      0x01\n      add\n      swap1\n      jump(tag_100)\n    tag_101:\n    tag_97:\n      pop\n      swap1\n      pop\n      tag_102\n      swap2\n      swap1\n      tag_103\n      jump\t// in\n    tag_102:\n      pop\n      swap1\n      jump\t// out\n    tag_103:\n    tag_104:\n      dup1\n      dup3\n      gt\n      iszero\n      tag_105\n      jumpi\n      0x00\n      dup2\n      0x00\n      swap1\n      sstore\n      pop\n      0x01\n      add\n      jump(tag_104)\n    tag_105:\n      pop\n      swap1\n      jump\t// out\n        /* \"#utility.yul\":88:205   */\n    tag_107:\n        /* \"#utility.yul\":197:198   */\n      0x00\n        /* \"#utility.yul\":194:195   */\n      dup1\n        /* \"#utility.yul\":187:199   */\n      revert\n        /* \"#utility.yul\":211:328   */\n    tag_108:\n        /* \"#utility.yul\":320:321   */\n      0x00\n        /* \"#utility.yul\":317:318   */\n      dup1\n        /* \"#utility.yul\":310:322   */\n      revert\n        /* \"#utility.yul\":334:411   */\n    tag_109:\n        /* \"#utility.yul\":371:378   */\n      0x00\n        /* \"#utility.yul\":400:405   */\n      dup2\n        /* \"#utility.yul\":389:405   */\n      swap1\n      pop\n        /* \"#utility.yul\":334:411   */\n      swap2\n      swap1\n      pop\n      jump\t// out\n        /* \"#utility.yul\":417:539   */\n    tag_110:\n        /* \"#utility.yul\":490:514   */\n      tag_142\n        /* \"#utility.yul\":508:513   */\n      dup2\n        /* \"#utility.yul\":490:514   */\n      tag_109\n      jump\t// in\n    tag_142:\n        /* \"#utility.yul\":483:488   */\n      dup2\n        /* \"#utility.yul\":480:515   */\n      eq\n        /* \"#utility.yul\":470:533   */\n      tag_143\n      jumpi\n        /* \"#utility.yul\":529:530   */\n      0x00\n        /* \"#utility.yul\":526:527   */\n      dup1\n        /* \"#utility.yul\":519:531   */\n      revert\n        /* \"#utility.yul\":470:533   */\n    tag_143:\n        /* \"#utility.yul\":417:539   */\n      pop\n      jump\t// out\n        /* \"#utility.yul\":545:684   */\n    tag_111:\n        /* \"#utility.yul\":591:596   */\n      0x00\n        /* \"#utility.yul\":629:635   */\n      dup2\n        /* \"#utility.yul\":616:636   */\n      calldataload\n        /* \"#utility.yul\":607:636   */\n      swap1\n      pop\n        /* \"#utility.yul\":645:678   */\n      tag_145\n        /* \"#utility.yul\":672:677   */\n      dup2\n        /* \"#utility.yul\":645:678   */\n      tag_110\n      jump\t// in\n    tag_145:\n        /* \"#utility.yul\":545:684   */\n      swap3\n      swap2\n      pop\n      pop\n      jump\t// out\n        /* \"#utility.yul\":690:1019   */\n    tag_17:\n        /* \"#utility.yul\":749:755   */\n      0x00\n        /* \"#utility.yul\":798:800   */\n      0x20\n        /* \"#utility.yul\":786:795   */\n      dup3\n        /* \"#utility.yul\":777:784   */\n      dup5\n        /* \"#utility.yul\":773:796   */\n      sub\n        /* \"#utility.yul\":769:801   */\n      slt\n        /* \"#utility.yul\":766:885   */\n      iszero\n      tag_147\n      jumpi\n        /* \"#utility.yul\":804:883   */\n      tag_148\n      tag_107\n      jump\t// in\n    tag_148:\n        /* \"#utility.yul\":766:885   */\n    tag_147:\n        /* \"#utility.yul\":924:925   */\n      0x00\n        /* \"#utility.yul\":949:1002   */\n      tag_149\n        /* \"#utility.yul\":994:1001   */\n      dup5\n        /* \"#utility.yul\":985:991   */\n      dup3\n        /* \"#utility.yul\":974:983   */\n      dup6\n        /* \"#utility.yul\":970:992   */\n      add\n        /* \"#utility.yul\":949:1002   */\n      tag_111\n      jump\t// in\n    tag_149:\n        /* \"#utility.yul\":939:1002   */\n      swap2\n      pop\n        /* \"#utility.yul\":895:1012   */\n      pop\n        /* \"#utility.yul\":690:1019   */\n      swap3\n      swap2\n      pop\n      pop\n      jump\t// out\n        /* \"#utility.yul\":1025:1151   */\n    tag_112:\n        /* \"#utility.yul\":1062:1069   */\n      0x00\n        /* \"#utility.yul\":1102:1144   */\n      0xffffffffffffffffffffffffffffffffffffffff\n        /* \"#utility.yul\":1095:1100   */\n      dup3\n        /* \"#utility.yul\":1091:1145   */\n      and\n        /* \"#utility.yul\":1080:1145   */\n      swap1\n      pop\n        /* \"#utility.yul\":1025:1151   */\n      swap2\n      swap1\n      pop\n      jump\t// out\n        /* \"#utility.yul\":1157:1253   */\n    tag_113:\n        /* \"#utility.yul\":1194:1201   */\n      0x00\n        /* \"#utility.yul\":1223:1247   */\n      tag_152\n        /* \"#utility.yul\":1241:1246   */\n      dup3\n        /* \"#utility.yul\":1223:1247   */\n      tag_112\n      jump\t// in\n    tag_152:\n        /* \"#utility.yul\":1212:1247   */\n      swap1\n      pop\n        /* \"#utility.yul\":1157:1253   */\n      swap2\n      swap1\n      pop\n      jump\t// out\n        /* \"#utility.yul\":1259:1381   */\n    tag_114:\n        /* \"#utility.yul\":1332:1356   */\n      tag_154\n        /* \"#utility.yul\":1350:1355   */\n      dup2\n        /* \"#utility.yul\":1332:1356   */\n      tag_113\n      jump\t// in\n    tag_154:\n        /* \"#utility.yul\":1325:1330   */\n      dup2\n        /* \"#utility.yul\":1322:1357   */\n      eq\n        /* \"#utility.yul\":1312:1375   */\n      tag_155\n      jumpi\n        /* \"#utility.yul\":1371:1372   */\n      0x00\n        /* \"#utility.yul\":1368:1369   */\n      dup1\n        /* \"#utility.yul\":1361:1373   */\n      revert\n        /* \"#utility.yul\":1312:1375   */\n    tag_155:\n        /* \"#utility.yul\":1259:1381   */\n      pop\n      jump\t// out\n        /* \"#utility.yul\":1387:1526   */\n    tag_115:\n        /* \"#utility.yul\":1433:1438   */\n      0x00\n        /* \"#utility.yul\":1471:1477   */\n      dup2\n        /* \"#utility.yul\":1458:1478   */\n      calldataload\n        /* \"#utility.yul\":1449:1478   */\n      swap1\n      pop\n        /* \"#utility.yul\":1487:1520   */\n      tag_157\n        /* \"#utility.yul\":1514:1519   */\n      dup2\n        /* \"#utility.yul\":1487:1520   */\n      tag_114\n      jump\t// in\n    tag_157:\n        /* \"#utility.yul\":1387:1526   */\n      swap3\n      swap2\n      pop\n      pop\n      jump\t// out\n        /* \"#utility.yul\":1532:1861   */\n    tag_22:\n        /* \"#utility.yul\":1591:1597   */\n      0x00\n        /* \"#utility.yul\":1640:1642   */\n      0x20\n        /* \"#utility.yul\":1628:1637   */\n      dup3\n        /* \"#utility.yul\":1619:1626   */\n      dup5\n        /* \"#utility.yul\":1615:1638   */\n      sub\n        /* \"#utility.yul\":1611:1643   */\n      slt\n        /* \"#utility.yul\":1608:1727   */\n      iszero\n      tag_159\n      jumpi\n        /* \"#utility.yul\":1646:1725   */\n      tag_160\n      tag_107\n      jump\t// in\n    tag_160:\n        /* \"#utility.yul\":1608:1727   */\n    tag_159:\n        /* \"#utility.yul\":1766:1767   */\n      0x00\n        /* \"#utility.yul\":1791:1844   */\n      tag_161\n        /* \"#utility.yul\":1836:1843   */\n      dup5\n        /* \"#utility.yul\":1827:1833   */\n      dup3\n        /* \"#utility.yul\":1816:1825   */\n      dup6\n        /* \"#utility.yul\":1812:1834   */\n      add\n        /* \"#utility.yul\":1791:1844   */\n      tag_115\n      jump\t// in\n    tag_161:\n        /* \"#utility.yul\":1781:1844   */\n      swap2\n      pop\n        /* \"#utility.yul\":1737:1854   */\n      pop\n        /* \"#utility.yul\":1532:1861   */\n      swap3\n      swap2\n      pop\n      pop\n      jump\t// out\n        /* \"#utility.yul\":1867:1957   */\n    tag_116:\n        /* \"#utility.yul\":1901:1908   */\n      0x00\n        /* \"#utility.yul\":1944:1949   */\n      dup2\n        /* \"#utility.yul\":1937:1950   */\n      iszero\n        /* \"#utility.yul\":1930:1951   */\n      iszero\n        /* \"#utility.yul\":1919:1951   */\n      swap1\n      pop\n        /* \"#utility.yul\":1867:1957   */\n      swap2\n      swap1\n      pop\n      jump\t// out\n        /* \"#utility.yul\":1963:2072   */\n    tag_117:\n        /* \"#utility.yul\":2044:2065   */\n      tag_164\n        /* \"#utility.yul\":2059:2064   */\n      dup2\n        /* \"#utility.yul\":2044:2065   */\n      tag_116\n      jump\t// in\n    tag_164:\n        /* \"#utility.yul\":2039:2042   */\n      dup3\n        /* \"#utility.yul\":2032:2066   */\n      mstore\n        /* \"#utility.yul\":1963:2072   */\n      pop\n      pop\n      jump\t// out\n        /* \"#utility.yul\":2078:2288   */\n    tag_25:\n        /* \"#utility.yul\":2165:2169   */\n      0x00\n        /* \"#utility.yul\":2203:2205   */\n      0x20\n        /* \"#utility.yul\":2192:2201   */\n      dup3\n        /* \"#utility.yul\":2188:2206   */\n      add\n        /* \"#utility.yul\":2180:2206   */\n      swap1\n      pop\n        /* \"#utility.yul\":2216:2281   */\n      tag_166\n        /* \"#utility.yul\":2278:2279   */\n      0x00\n        /* \"#utility.yul\":2267:2276   */\n      dup4\n        /* \"#utility.yul\":2263:2280   */\n      add\n        /* \"#utility.yul\":2254:2260   */\n      dup5\n        /* \"#utility.yul\":2216:2281   */\n      tag_117\n      jump\t// in\n    tag_166:\n        /* \"#utility.yul\":2078:2288   */\n      swap3\n      swap2\n      pop\n      pop\n      jump\t// out\n        /* \"#utility.yul\":2294:2412   */\n    tag_118:\n        /* \"#utility.yul\":2381:2405   */\n      tag_168\n        /* \"#utility.yul\":2399:2404   */\n      dup2\n        /* \"#utility.yul\":2381:2405   */\n      tag_109\n      jump\t// in\n    tag_168:\n        /* \"#utility.yul\":2376:2379   */\n      dup3\n        /* \"#utility.yul\":2369:2406   */\n      mstore\n        /* \"#utility.yul\":2294:2412   */\n      pop\n      pop\n      jump\t// out\n        /* \"#utility.yul\":2418:2536   */\n    tag_119:\n        /* \"#utility.yul\":2505:2529   */\n      tag_170\n        /* \"#utility.yul\":2523:2528   */\n      dup2\n        /* \"#utility.yul\":2505:2529   */\n      tag_113\n      jump\t// in\n    tag_170:\n        /* \"#utility.yul\":2500:2503   */\n      dup3\n        /* \"#utility.yul\":2493:2530   */\n      mstore\n        /* \"#utility.yul\":2418:2536   */\n      pop\n      pop\n      jump\t// out\n        /* \"#utility.yul\":2542:3206   */\n    tag_30:\n        /* \"#utility.yul\":2747:2751   */\n      0x00\n        /* \"#utility.yul\":2785:2788   */\n      0xa0\n        /* \"#utility.yul\":2774:2783   */\n      dup3\n        /* \"#utility.yul\":2770:2789   */\n      add\n        /* \"#utility.yul\":2762:2789   */\n      swap1\n      pop\n        /* \"#utility.yul\":2799:2870   */\n      tag_172\n        /* \"#utility.yul\":2867:2868   */\n      0x00\n        /* \"#utility.yul\":2856:2865   */\n      dup4\n        /* \"#utility.yul\":2852:2869   */\n      add\n        /* \"#utility.yul\":2843:2849   */\n      dup9\n        /* \"#utility.yul\":2799:2870   */\n      tag_118\n      jump\t// in\n    tag_172:\n        /* \"#utility.yul\":2880:2952   */\n      tag_173\n        /* \"#utility.yul\":2948:2950   */\n      0x20\n        /* \"#utility.yul\":2937:2946   */\n      dup4\n        /* \"#utility.yul\":2933:2951   */\n      add\n        /* \"#utility.yul\":2924:2930   */\n      dup8\n        /* \"#utility.yul\":2880:2952   */\n      tag_118\n      jump\t// in\n    tag_173:\n        /* \"#utility.yul\":2962:3034   */\n      tag_174\n        /* \"#utility.yul\":3030:3032   */\n      0x40\n        /* \"#utility.yul\":3019:3028   */\n      dup4\n        /* \"#utility.yul\":3015:3033   */\n      add\n        /* \"#utility.yul\":3006:3012   */\n      dup7\n        /* \"#utility.yul\":2962:3034   */\n      tag_118\n      jump\t// in\n    tag_174:\n        /* \"#utility.yul\":3044:3116   */\n      tag_175\n        /* \"#utility.yul\":3112:3114   */\n      0x60\n        /* \"#utility.yul\":3101:3110   */\n      dup4\n        /* \"#utility.yul\":3097:3115   */\n      add\n        /* \"#utility.yul\":3088:3094   */\n      dup6\n        /* \"#utility.yul\":3044:3116   */\n      tag_118\n      jump\t// in\n    tag_175:\n        /* \"#utility.yul\":3126:3199   */\n      tag_176\n        /* \"#utility.yul\":3194:3197   */\n      0x80\n        /* \"#utility.yul\":3183:3192   */\n      dup4\n        /* \"#utility.yul\":3179:3198   */\n      add\n        /* \"#utility.yul\":3170:3176   */\n      dup5\n        /* \"#utility.yul\":3126:3199   */\n      tag_119\n      jump\t// in\n    tag_176:\n        /* \"#utility.yul\":2542:3206   */\n      swap7\n      swap6\n      pop\n      pop\n      pop\n      pop\n      pop\n      pop\n      jump\t// out\n        /* \"#utility.yul\":3212:3316   */\n    tag_120:\n        /* \"#utility.yul\":3257:3264   */\n      0x00\n        /* \"#utility.yul\":3286:3310   */\n      tag_178\n        /* \"#utility.yul\":3304:3309   */\n      dup3\n        /* \"#utility.yul\":3286:3310   */\n      tag_112\n      jump\t// in\n    tag_178:\n        /* \"#utility.yul\":3275:3310   */\n      swap1\n      pop\n        /* \"#utility.yul\":3212:3316   */\n      swap2\n      swap1\n      pop\n      jump\t// out\n        /* \"#utility.yul\":3322:3464   */\n    tag_121:\n        /* \"#utility.yul\":3425:3457   */\n      tag_180\n        /* \"#utility.yul\":3451:3456   */\n      dup2\n        /* \"#utility.yul\":3425:3457   */\n      tag_120\n      jump\t// in\n    tag_180:\n        /* \"#utility.yul\":3420:3423   */\n      dup3\n        /* \"#utility.yul\":3413:3458   */\n      mstore\n        /* \"#utility.yul\":3322:3464   */\n      pop\n      pop\n      jump\t// out\n        /* \"#utility.yul\":3470:3724   */\n    tag_35:\n        /* \"#utility.yul\":3579:3583   */\n      0x00\n        /* \"#utility.yul\":3617:3619   */\n      0x20\n        /* \"#utility.yul\":3606:3615   */\n      dup3\n        /* \"#utility.yul\":3602:3620   */\n      add\n        /* \"#utility.yul\":3594:3620   */\n      swap1\n      pop\n        /* \"#utility.yul\":3630:3717   */\n      tag_182\n        /* \"#utility.yul\":3714:3715   */\n      0x00\n        /* \"#utility.yul\":3703:3712   */\n      dup4\n        /* \"#utility.yul\":3699:3716   */\n      add\n        /* \"#utility.yul\":3690:3696   */\n      dup5\n        /* \"#utility.yul\":3630:3717   */\n      tag_121\n      jump\t// in\n    tag_182:\n        /* \"#utility.yul\":3470:3724   */\n      swap3\n      swap2\n      pop\n      pop\n      jump\t// out\n        /* \"#utility.yul\":3730:3829   */\n    tag_122:\n        /* \"#utility.yul\":3782:3788   */\n      0x00\n        /* \"#utility.yul\":3816:3821   */\n      dup2\n        /* \"#utility.yul\":3810:3822   */\n      mload\n        /* \"#utility.yul\":3800:3822   */\n      swap1\n      pop\n        /* \"#utility.yul\":3730:3829   */\n      swap2\n      swap1\n      pop\n      jump\t// out\n        /* \"#utility.yul\":3835:4004   */\n    tag_123:\n        /* \"#utility.yul\":3919:3930   */\n      0x00\n        /* \"#utility.yul\":3953:3959   */\n      dup3\n        /* \"#utility.yul\":3948:3951   */\n      dup3\n        /* \"#utility.yul\":3941:3960   */\n      mstore\n        /* \"#utility.yul\":3993:3997   */\n      0x20\n        /* \"#utility.yul\":3988:3991   */\n      dup3\n        /* \"#utility.yul\":3984:3998   */\n      add\n        /* \"#utility.yul\":3969:3998   */\n      swap1\n      pop\n        /* \"#utility.yul\":3835:4004   */\n      swap3\n      swap2\n      pop\n      pop\n      jump\t// out\n        /* \"#utility.yul\":4010:4317   */\n    tag_124:\n        /* \"#utility.yul\":4078:4079   */\n      0x00\n        /* \"#utility.yul\":4088:4201   */\n    tag_186:\n        /* \"#utility.yul\":4102:4108   */\n      dup4\n        /* \"#utility.yul\":4099:4100   */\n      dup2\n        /* \"#utility.yul\":4096:4109   */\n      lt\n        /* \"#utility.yul\":4088:4201   */\n      iszero\n      tag_188\n      jumpi\n        /* \"#utility.yul\":4187:4188   */\n      dup1\n        /* \"#utility.yul\":4182:4185   */\n      dup3\n        /* \"#utility.yul\":4178:4189   */\n      add\n        /* \"#utility.yul\":4172:4190   */\n      mload\n        /* \"#utility.yul\":4168:4169   */\n      dup2\n        /* \"#utility.yul\":4163:4166   */\n      dup5\n        /* \"#utility.yul\":4159:4170   */\n      add\n        /* \"#utility.yul\":4152:4191   */\n      mstore\n        /* \"#utility.yul\":4124:4126   */\n      0x20\n        /* \"#utility.yul\":4121:4122   */\n      dup2\n        /* \"#utility.yul\":4117:4127   */\n      add\n        /* \"#utility.yul\":4112:4127   */\n      swap1\n      pop\n        /* \"#utility.yul\":4088:4201   */\n      jump(tag_186)\n    tag_188:\n        /* \"#utility.yul\":4219:4225   */\n      dup4\n        /* \"#utility.yul\":4216:4217   */\n      dup2\n        /* \"#utility.yul\":4213:4226   */\n      gt\n        /* \"#utility.yul\":4210:4311   */\n      iszero\n      tag_189\n      jumpi\n        /* \"#utility.yul\":4299:4300   */\n      0x00\n        /* \"#utility.yul\":4290:4296   */\n      dup5\n        /* \"#utility.yul\":4285:4288   */\n      dup5\n        /* \"#utility.yul\":4281:4297   */\n      add\n        /* \"#utility.yul\":4274:4301   */\n      mstore\n        /* \"#utility.yul\":4210:4311   */\n    tag_189:\n        /* \"#utility.yul\":4059:4317   */\n      pop\n        /* \"#utility.yul\":4010:4317   */\n      pop\n      pop\n      pop\n      jump\t// out\n        /* \"#utility.yul\":4323:4425   */\n    tag_125:\n        /* \"#utility.yul\":4364:4370   */\n      0x00\n        /* \"#utility.yul\":4415:4417   */\n      0x1f\n        /* \"#utility.yul\":4411:4418   */\n      not\n        /* \"#utility.yul\":4406:4408   */\n      0x1f\n        /* \"#utility.yul\":4399:4404   */\n      dup4\n        /* \"#utility.yul\":4395:4409   */\n      add\n        /* \"#utility.yul\":4391:4419   */\n      and\n        /* \"#utility.yul\":4381:4419   */\n      swap1\n      pop\n        /* \"#utility.yul\":4323:4425   */\n      swap2\n      swap1\n      pop\n      jump\t// out\n        /* \"#utility.yul\":4431:4795   */\n    tag_126:\n        /* \"#utility.yul\":4519:4522   */\n      0x00\n        /* \"#utility.yul\":4547:4586   */\n      tag_192\n        /* \"#utility.yul\":4580:4585   */\n      dup3\n        /* \"#utility.yul\":4547:4586   */\n      tag_122\n      jump\t// in\n    tag_192:\n        /* \"#utility.yul\":4602:4673   */\n      tag_193\n        /* \"#utility.yul\":4666:4672   */\n      dup2\n        /* \"#utility.yul\":4661:4664   */\n      dup6\n        /* \"#utility.yul\":4602:4673   */\n      tag_123\n      jump\t// in\n    tag_193:\n        /* \"#utility.yul\":4595:4673   */\n      swap4\n      pop\n        /* \"#utility.yul\":4682:4734   */\n      tag_194\n        /* \"#utility.yul\":4727:4733   */\n      dup2\n        /* \"#utility.yul\":4722:4725   */\n      dup6\n        /* \"#utility.yul\":4715:4719   */\n      0x20\n        /* \"#utility.yul\":4708:4713   */\n      dup7\n        /* \"#utility.yul\":4704:4720   */\n      add\n        /* \"#utility.yul\":4682:4734   */\n      tag_124\n      jump\t// in\n    tag_194:\n        /* \"#utility.yul\":4759:4788   */\n      tag_195\n        /* \"#utility.yul\":4781:4787   */\n      dup2\n        /* \"#utility.yul\":4759:4788   */\n      tag_125\n      jump\t// in\n    tag_195:\n        /* \"#utility.yul\":4754:4757   */\n      dup5\n        /* \"#utility.yul\":4750:4789   */\n      add\n        /* \"#utility.yul\":4743:4789   */\n      swap2\n      pop\n        /* \"#utility.yul\":4523:4795   */\n      pop\n        /* \"#utility.yul\":4431:4795   */\n      swap3\n      swap2\n      pop\n      pop\n      jump\t// out\n        /* \"#utility.yul\":4801:5576   */\n    tag_41:\n        /* \"#utility.yul\":5036:5040   */\n      0x00\n        /* \"#utility.yul\":5074:5077   */\n      0xa0\n        /* \"#utility.yul\":5063:5072   */\n      dup3\n        /* \"#utility.yul\":5059:5078   */\n      add\n        /* \"#utility.yul\":5051:5078   */\n      swap1\n      pop\n        /* \"#utility.yul\":5124:5133   */\n      dup2\n        /* \"#utility.yul\":5118:5122   */\n      dup2\n        /* \"#utility.yul\":5114:5134   */\n      sub\n        /* \"#utility.yul\":5110:5111   */\n      0x00\n        /* \"#utility.yul\":5099:5108   */\n      dup4\n        /* \"#utility.yul\":5095:5112   */\n      add\n        /* \"#utility.yul\":5088:5135   */\n      mstore\n        /* \"#utility.yul\":5152:5230   */\n      tag_197\n        /* \"#utility.yul\":5225:5229   */\n      dup2\n        /* \"#utility.yul\":5216:5222   */\n      dup9\n        /* \"#utility.yul\":5152:5230   */\n      tag_126\n      jump\t// in\n    tag_197:\n        /* \"#utility.yul\":5144:5230   */\n      swap1\n      pop\n        /* \"#utility.yul\":5240:5312   */\n      tag_198\n        /* \"#utility.yul\":5308:5310   */\n      0x20\n        /* \"#utility.yul\":5297:5306   */\n      dup4\n        /* \"#utility.yul\":5293:5311   */\n      add\n        /* \"#utility.yul\":5284:5290   */\n      dup8\n        /* \"#utility.yul\":5240:5312   */\n      tag_118\n      jump\t// in\n    tag_198:\n        /* \"#utility.yul\":5322:5410   */\n      tag_199\n        /* \"#utility.yul\":5406:5408   */\n      0x40\n        /* \"#utility.yul\":5395:5404   */\n      dup4\n        /* \"#utility.yul\":5391:5409   */\n      add\n        /* \"#utility.yul\":5382:5388   */\n      dup7\n        /* \"#utility.yul\":5322:5410   */\n      tag_121\n      jump\t// in\n    tag_199:\n        /* \"#utility.yul\":5420:5486   */\n      tag_200\n        /* \"#utility.yul\":5482:5484   */\n      0x60\n        /* \"#utility.yul\":5471:5480   */\n      dup4\n        /* \"#utility.yul\":5467:5485   */\n      add\n        /* \"#utility.yul\":5458:5464   */\n      dup6\n        /* \"#utility.yul\":5420:5486   */\n      tag_117\n      jump\t// in\n    tag_200:\n        /* \"#utility.yul\":5496:5569   */\n      tag_201\n        /* \"#utility.yul\":5564:5567   */\n      0x80\n        /* \"#utility.yul\":5553:5562   */\n      dup4\n        /* \"#utility.yul\":5549:5568   */\n      add\n        /* \"#utility.yul\":5540:5546   */\n      dup5\n        /* \"#utility.yul\":5496:5569   */\n      tag_118\n      jump\t// in\n    tag_201:\n        /* \"#utility.yul\":4801:5576   */\n      swap7\n      swap6\n      pop\n      pop\n      pop\n      pop\n      pop\n      pop\n      jump\t// out\n        /* \"#utility.yul\":5582:5804   */\n    tag_46:\n        /* \"#utility.yul\":5675:5679   */\n      0x00\n        /* \"#utility.yul\":5713:5715   */\n      0x20\n        /* \"#utility.yul\":5702:5711   */\n      dup3\n        /* \"#utility.yul\":5698:5716   */\n      add\n        /* \"#utility.yul\":5690:5716   */\n      swap1\n      pop\n        /* \"#utility.yul\":5726:5797   */\n      tag_203\n        /* \"#utility.yul\":5794:5795   */\n      0x00\n        /* \"#utility.yul\":5783:5792   */\n      dup4\n        /* \"#utility.yul\":5779:5796   */\n      add\n        /* \"#utility.yul\":5770:5776   */\n      dup5\n        /* \"#utility.yul\":5726:5797   */\n      tag_118\n      jump\t// in\n    tag_203:\n        /* \"#utility.yul\":5582:5804   */\n      swap3\n      swap2\n      pop\n      pop\n      jump\t// out\n        /* \"#utility.yul\":5810:5927   */\n    tag_127:\n        /* \"#utility.yul\":5919:5920   */\n      0x00\n        /* \"#utility.yul\":5916:5917   */\n      dup1\n        /* \"#utility.yul\":5909:5921   */\n      revert\n        /* \"#utility.yul\":5933:6050   */\n    tag_128:\n        /* \"#utility.yul\":6042:6043   */\n      0x00\n        /* \"#utility.yul\":6039:6040   */\n      dup1\n        /* \"#utility.yul\":6032:6044   */\n      revert\n        /* \"#utility.yul\":6056:6173   */\n    tag_129:\n        /* \"#utility.yul\":6165:6166   */\n      0x00\n        /* \"#utility.yul\":6162:6163   */\n      dup1\n        /* \"#utility.yul\":6155:6167   */\n      revert\n        /* \"#utility.yul\":6193:6746   */\n    tag_130:\n        /* \"#utility.yul\":6251:6259   */\n      0x00\n        /* \"#utility.yul\":6261:6267   */\n      dup1\n        /* \"#utility.yul\":6311:6314   */\n      dup4\n        /* \"#utility.yul\":6304:6308   */\n      0x1f\n        /* \"#utility.yul\":6296:6302   */\n      dup5\n        /* \"#utility.yul\":6292:6309   */\n      add\n        /* \"#utility.yul\":6288:6315   */\n      slt\n        /* \"#utility.yul\":6278:6400   */\n      tag_208\n      jumpi\n        /* \"#utility.yul\":6319:6398   */\n      tag_209\n      tag_127\n      jump\t// in\n    tag_209:\n        /* \"#utility.yul\":6278:6400   */\n    tag_208:\n        /* \"#utility.yul\":6432:6438   */\n      dup3\n        /* \"#utility.yul\":6419:6439   */\n      calldataload\n        /* \"#utility.yul\":6409:6439   */\n      swap1\n      pop\n        /* \"#utility.yul\":6462:6480   */\n      0xffffffffffffffff\n        /* \"#utility.yul\":6454:6460   */\n      dup2\n        /* \"#utility.yul\":6451:6481   */\n      gt\n        /* \"#utility.yul\":6448:6565   */\n      iszero\n      tag_210\n      jumpi\n        /* \"#utility.yul\":6484:6563   */\n      tag_211\n      tag_128\n      jump\t// in\n    tag_211:\n        /* \"#utility.yul\":6448:6565   */\n    tag_210:\n        /* \"#utility.yul\":6598:6602   */\n      0x20\n        /* \"#utility.yul\":6590:6596   */\n      dup4\n        /* \"#utility.yul\":6586:6603   */\n      add\n        /* \"#utility.yul\":6574:6603   */\n      swap2\n      pop\n        /* \"#utility.yul\":6652:6655   */\n      dup4\n        /* \"#utility.yul\":6644:6648   */\n      0x01\n        /* \"#utility.yul\":6636:6642   */\n      dup3\n        /* \"#utility.yul\":6632:6649   */\n      mul\n        /* \"#utility.yul\":6622:6630   */\n      dup4\n        /* \"#utility.yul\":6618:6650   */\n      add\n        /* \"#utility.yul\":6615:6656   */\n      gt\n        /* \"#utility.yul\":6612:6740   */\n      iszero\n      tag_212\n      jumpi\n        /* \"#utility.yul\":6659:6738   */\n      tag_213\n      tag_129\n      jump\t// in\n    tag_213:\n        /* \"#utility.yul\":6612:6740   */\n    tag_212:\n        /* \"#utility.yul\":6193:6746   */\n      swap3\n      pop\n      swap3\n      swap1\n      pop\n      jump\t// out\n        /* \"#utility.yul\":6752:6890   */\n    tag_131:\n        /* \"#utility.yul\":6833:6865   */\n      tag_215\n        /* \"#utility.yul\":6859:6864   */\n      dup2\n        /* \"#utility.yul\":6833:6865   */\n      tag_120\n      jump\t// in\n    tag_215:\n        /* \"#utility.yul\":6826:6831   */\n      dup2\n        /* \"#utility.yul\":6823:6866   */\n      eq\n        /* \"#utility.yul\":6813:6884   */\n      tag_216\n      jumpi\n        /* \"#utility.yul\":6880:6881   */\n      0x00\n        /* \"#utility.yul\":6877:6878   */\n      dup1\n        /* \"#utility.yul\":6870:6882   */\n      revert\n        /* \"#utility.yul\":6813:6884   */\n    tag_216:\n        /* \"#utility.yul\":6752:6890   */\n      pop\n      jump\t// out\n        /* \"#utility.yul\":6896:7051   */\n    tag_132:\n        /* \"#utility.yul\":6950:6955   */\n      0x00\n        /* \"#utility.yul\":6988:6994   */\n      dup2\n        /* \"#utility.yul\":6975:6995   */\n      calldataload\n        /* \"#utility.yul\":6966:6995   */\n      swap1\n      pop\n        /* \"#utility.yul\":7004:7045   */\n      tag_218\n        /* \"#utility.yul\":7039:7044   */\n      dup2\n        /* \"#utility.yul\":7004:7045   */\n      tag_131\n      jump\t// in\n    tag_218:\n        /* \"#utility.yul\":6896:7051   */\n      swap3\n      swap2\n      pop\n      pop\n      jump\t// out\n        /* \"#utility.yul\":7057:7892   */\n    tag_50:\n        /* \"#utility.yul\":7154:7160   */\n      0x00\n        /* \"#utility.yul\":7162:7168   */\n      dup1\n        /* \"#utility.yul\":7170:7176   */\n      0x00\n        /* \"#utility.yul\":7178:7184   */\n      dup1\n        /* \"#utility.yul\":7227:7229   */\n      0x60\n        /* \"#utility.yul\":7215:7224   */\n      dup6\n        /* \"#utility.yul\":7206:7213   */\n      dup8\n        /* \"#utility.yul\":7202:7225   */\n      sub\n        /* \"#utility.yul\":7198:7230   */\n      slt\n        /* \"#utility.yul\":7195:7314   */\n      iszero\n      tag_220\n      jumpi\n        /* \"#utility.yul\":7233:7312   */\n      tag_221\n      tag_107\n      jump\t// in\n    tag_221:\n        /* \"#utility.yul\":7195:7314   */\n    tag_220:\n        /* \"#utility.yul\":7381:7382   */\n      0x00\n        /* \"#utility.yul\":7370:7379   */\n      dup6\n        /* \"#utility.yul\":7366:7383   */\n      add\n        /* \"#utility.yul\":7353:7384   */\n      calldataload\n        /* \"#utility.yul\":7411:7429   */\n      0xffffffffffffffff\n        /* \"#utility.yul\":7403:7409   */\n      dup2\n        /* \"#utility.yul\":7400:7430   */\n      gt\n        /* \"#utility.yul\":7397:7514   */\n      iszero\n      tag_222\n      jumpi\n        /* \"#utility.yul\":7433:7512   */\n      tag_223\n      tag_108\n      jump\t// in\n    tag_223:\n        /* \"#utility.yul\":7397:7514   */\n    tag_222:\n        /* \"#utility.yul\":7546:7611   */\n      tag_224\n        /* \"#utility.yul\":7603:7610   */\n      dup8\n        /* \"#utility.yul\":7594:7600   */\n      dup3\n        /* \"#utility.yul\":7583:7592   */\n      dup9\n        /* \"#utility.yul\":7579:7601   */\n      add\n        /* \"#utility.yul\":7546:7611   */\n      tag_130\n      jump\t// in\n    tag_224:\n        /* \"#utility.yul\":7528:7611   */\n      swap5\n      pop\n      swap5\n      pop\n        /* \"#utility.yul\":7324:7621   */\n      pop\n        /* \"#utility.yul\":7660:7662   */\n      0x20\n        /* \"#utility.yul\":7686:7739   */\n      tag_225\n        /* \"#utility.yul\":7731:7738   */\n      dup8\n        /* \"#utility.yul\":7722:7728   */\n      dup3\n        /* \"#utility.yul\":7711:7720   */\n      dup9\n        /* \"#utility.yul\":7707:7729   */\n      add\n        /* \"#utility.yul\":7686:7739   */\n      tag_111\n      jump\t// in\n    tag_225:\n        /* \"#utility.yul\":7676:7739   */\n      swap3\n      pop\n        /* \"#utility.yul\":7631:7749   */\n      pop\n        /* \"#utility.yul\":7788:7790   */\n      0x40\n        /* \"#utility.yul\":7814:7875   */\n      tag_226\n        /* \"#utility.yul\":7867:7874   */\n      dup8\n        /* \"#utility.yul\":7858:7864   */\n      dup3\n        /* \"#utility.yul\":7847:7856   */\n      dup9\n        /* \"#utility.yul\":7843:7865   */\n      add\n        /* \"#utility.yul\":7814:7875   */\n      tag_132\n      jump\t// in\n    tag_226:\n        /* \"#utility.yul\":7804:7875   */\n      swap2\n      pop\n        /* \"#utility.yul\":7759:7885   */\n      pop\n        /* \"#utility.yul\":7057:7892   */\n      swap3\n      swap6\n      swap2\n      swap5\n      pop\n      swap3\n      pop\n      jump\t// out\n        /* \"#utility.yul\":7898:8078   */\n    tag_133:\n        /* \"#utility.yul\":7946:8023   */\n      0x4e487b7100000000000000000000000000000000000000000000000000000000\n        /* \"#utility.yul\":7943:7944   */\n      0x00\n        /* \"#utility.yul\":7936:8024   */\n      mstore\n        /* \"#utility.yul\":8043:8047   */\n      0x12\n        /* \"#utility.yul\":8040:8041   */\n      0x04\n        /* \"#utility.yul\":8033:8048   */\n      mstore\n        /* \"#utility.yul\":8067:8071   */\n      0x24\n        /* \"#utility.yul\":8064:8065   */\n      0x00\n        /* \"#utility.yul\":8057:8072   */\n      revert\n        /* \"#utility.yul\":8084:8264   */\n    tag_134:\n        /* \"#utility.yul\":8132:8209   */\n      0x4e487b7100000000000000000000000000000000000000000000000000000000\n        /* \"#utility.yul\":8129:8130   */\n      0x00\n        /* \"#utility.yul\":8122:8210   */\n      mstore\n        /* \"#utility.yul\":8229:8233   */\n      0x11\n        /* \"#utility.yul\":8226:8227   */\n      0x04\n        /* \"#utility.yul\":8219:8234   */\n      mstore\n        /* \"#utility.yul\":8253:8257   */\n      0x24\n        /* \"#utility.yul\":8250:8251   */\n      0x00\n        /* \"#utility.yul\":8243:8258   */\n      revert\n        /* \"#utility.yul\":8270:8455   */\n    tag_70:\n        /* \"#utility.yul\":8310:8311   */\n      0x00\n        /* \"#utility.yul\":8327:8347   */\n      tag_230\n        /* \"#utility.yul\":8345:8346   */\n      dup3\n        /* \"#utility.yul\":8327:8347   */\n      tag_109\n      jump\t// in\n    tag_230:\n        /* \"#utility.yul\":8322:8347   */\n      swap2\n      pop\n        /* \"#utility.yul\":8361:8381   */\n      tag_231\n        /* \"#utility.yul\":8379:8380   */\n      dup4\n        /* \"#utility.yul\":8361:8381   */\n      tag_109\n      jump\t// in\n    tag_231:\n        /* \"#utility.yul\":8356:8381   */\n      swap3\n      pop\n        /* \"#utility.yul\":8400:8401   */\n      dup3\n        /* \"#utility.yul\":8390:8425   */\n      tag_232\n      jumpi\n        /* \"#utility.yul\":8405:8423   */\n      tag_233\n      tag_133\n      jump\t// in\n    tag_233:\n        /* \"#utility.yul\":8390:8425   */\n    tag_232:\n        /* \"#utility.yul\":8447:8448   */\n      dup3\n        /* \"#utility.yul\":8444:8445   */\n      dup3\n        /* \"#utility.yul\":8440:8449   */\n      div\n        /* \"#utility.yul\":8435:8449   */\n      swap1\n      pop\n        /* \"#utility.yul\":8270:8455   */\n      swap3\n      swap2\n      pop\n      pop\n      jump\t// out\n        /* \"#utility.yul\":8461:8641   */\n    tag_135:\n        /* \"#utility.yul\":8509:8586   */\n      0x4e487b7100000000000000000000000000000000000000000000000000000000\n        /* \"#utility.yul\":8506:8507   */\n      0x00\n        /* \"#utility.yul\":8499:8587   */\n      mstore\n        /* \"#utility.yul\":8606:8610   */\n      0x22\n        /* \"#utility.yul\":8603:8604   */\n      0x04\n        /* \"#utility.yul\":8596:8611   */\n      mstore\n        /* \"#utility.yul\":8630:8634   */\n      0x24\n        /* \"#utility.yul\":8627:8628   */\n      0x00\n        /* \"#utility.yul\":8620:8635   */\n      revert\n        /* \"#utility.yul\":8647:8967   */\n    tag_77:\n        /* \"#utility.yul\":8691:8697   */\n      0x00\n        /* \"#utility.yul\":8728:8729   */\n      0x02\n        /* \"#utility.yul\":8722:8726   */\n      dup3\n        /* \"#utility.yul\":8718:8730   */\n      div\n        /* \"#utility.yul\":8708:8730   */\n      swap1\n      pop\n        /* \"#utility.yul\":8775:8776   */\n      0x01\n        /* \"#utility.yul\":8769:8773   */\n      dup3\n        /* \"#utility.yul\":8765:8777   */\n      and\n        /* \"#utility.yul\":8796:8814   */\n      dup1\n        /* \"#utility.yul\":8786:8867   */\n      tag_236\n      jumpi\n        /* \"#utility.yul\":8852:8856   */\n      0x7f\n        /* \"#utility.yul\":8844:8850   */\n      dup3\n        /* \"#utility.yul\":8840:8857   */\n      and\n        /* \"#utility.yul\":8830:8857   */\n      swap2\n      pop\n        /* \"#utility.yul\":8786:8867   */\n    tag_236:\n        /* \"#utility.yul\":8914:8916   */\n      0x20\n        /* \"#utility.yul\":8906:8912   */\n      dup3\n        /* \"#utility.yul\":8903:8917   */\n      lt\n        /* \"#utility.yul\":8883:8901   */\n      dup2\n        /* \"#utility.yul\":8880:8918   */\n      sub\n        /* \"#utility.yul\":8877:8961   */\n      tag_237\n      jumpi\n        /* \"#utility.yul\":8933:8951   */\n      tag_238\n      tag_135\n      jump\t// in\n    tag_238:\n        /* \"#utility.yul\":8877:8961   */\n    tag_237:\n        /* \"#utility.yul\":8698:8967   */\n      pop\n        /* \"#utility.yul\":8647:8967   */\n      swap2\n      swap1\n      pop\n      jump\t// out\n        /* \"#utility.yul\":8973:9206   */\n    tag_86:\n        /* \"#utility.yul\":9012:9015   */\n      0x00\n        /* \"#utility.yul\":9035:9059   */\n      tag_240\n        /* \"#utility.yul\":9053:9058   */\n      dup3\n        /* \"#utility.yul\":9035:9059   */\n      tag_109\n      jump\t// in\n    tag_240:\n        /* \"#utility.yul\":9026:9059   */\n      swap2\n      pop\n        /* \"#utility.yul\":9081:9147   */\n      0xffffffffffffffffffffffffffffffffffffffffffffffffffffffffffffffff\n        /* \"#utility.yul\":9074:9079   */\n      dup3\n        /* \"#utility.yul\":9071:9148   */\n      sub\n        /* \"#utility.yul\":9068:9171   */\n      tag_241\n      jumpi\n        /* \"#utility.yul\":9151:9169   */\n      tag_242\n      tag_134\n      jump\t// in\n    tag_242:\n        /* \"#utility.yul\":9068:9171   */\n    tag_241:\n        /* \"#utility.yul\":9198:9199   */\n      0x01\n        /* \"#utility.yul\":9191:9196   */\n      dup3\n        /* \"#utility.yul\":9187:9200   */\n      add\n        /* \"#utility.yul\":9180:9200   */\n      swap1\n      pop\n        /* \"#utility.yul\":8973:9206   */\n      swap2\n      swap1\n      pop\n      jump\t// out\n\n    auxdata: 0xa26469706673582212206e28f9cd4a2fae54a377fd2f74f6f0976b795f13e65252b3518044887f8fcc3e64736f6c634300080d0033\n}\n","bytecode":{"linkReferences":{},"object":"60806040523480156200001157600080fd5b5060405162000f8d38038062000f8d83398181016040528101906200003791906200012b565b81600281905550806000806101000a81548173ffffffffffffffffffffffffffffffffffffffff021916908373ffffffffffffffffffffffffffffffffffffffff160217905550505062000172565b600080fd5b6000819050919050565b620000a0816200008b565b8114620000ac57600080fd5b50565b600081519050620000c08162000095565b92915050565b600073ffffffffffffffffffffffffffffffffffffffff82169050919050565b6000620000f382620000c6565b9050919050565b6200010581620000e6565b81146200011157600080fd5b50565b6000815190506200012581620000fa565b92915050565b6000806040838503121562000145576200014462000086565b5b60006200015585828601620000af565b9250506020620001688582860162000114565b9150509250929050565b610e0b80620001826000396000f3fe60806040526004361061009c5760003560e01c806382fde0931161006457806382fde093146101a25780638a9cfd55146101cd578063937e09b1146101f65780639fb42b1f14610221578063d7bb99ba1461024c578063d7d1bbdb146102565761009c565b806303441006146100a15780630a144391146100ca5780634051ddac14610107578063481c6a751461013657806381d12c5814610161575b600080fd5b3480156100ad57600080fd5b506100c860048036038101906100c391906108f0565b61027f565b005b3480156100d657600080fd5b506100f160048036038101906100ec919061097b565b6103b8565b6040516100fe91906109c3565b60405180910390f35b34801561011357600080fd5b5061011c6103d8565b60405161012d9594939291906109fc565b60405180910390f35b34801561014257600080fd5b5061014b61041c565b6040516101589190610a70565b60405180910390f35b34801561016d57600080fd5b50610188600480360381019061018391906108f0565b610440565b604051610199959493929190610b24565b60405180910390f35b3480156101ae57600080fd5b506101b761052b565b6040516101c49190610b7e565b60405180910390f35b3480156101d957600080fd5b506101f460048036038101906101ef9190610c2a565b610531565b005b34801561020257600080fd5b5061020b610644565b6040516102189190610b7e565b60405180910390f35b34801561022d57600080fd5b5061023661064a565b6040516102439190610b7e565b60405180910390f35b610254610650565b005b34801561026257600080fd5b5061027d600480360381019061027891906108f0565b6106cf565b005b60008054906101000a900473ffffffffffffffffffffffffffffffffffffffff1673ffffffffffffffffffffffffffffffffffffffff163373ffffffffffffffffffffffffffffffffffffffff16146102d757600080fd5b600060046000838152602001908152602001600020905060026005546102fd9190610cfc565b81600301541161030c57600080fd5b8060020160149054906101000a900460ff161561032857600080fd5b8060020160009054906101000a900473ffffffffffffffffffffffffffffffffffffffff1673ffffffffffffffffffffffffffffffffffffffff166108fc82600101549081150290604051600060405180830381858888f19350505050158015610396573d6000803e3d6000fd5b5060018160020160146101000a81548160ff0219169083151502179055505050565b60016020528060005260406000206000915054906101000a900460ff1681565b60008060008060006002544760035460055460008054906101000a900473ffffffffffffffffffffffffffffffffffffffff16945094509450945094509091929394565b60008054906101000a900473ffffffffffffffffffffffffffffffffffffffff1681565b600460205280600052604060002060009150905080600001805461046390610d5c565b80601f016020809104026020016040519081016040528092919081815260200182805461048f90610d5c565b80156104dc5780601f106104b1576101008083540402835291602001916104dc565b820191906000526020600020905b8154815290600101906020018083116104bf57829003601f168201915b5050505050908060010154908060020160009054906101000a900473ffffffffffffffffffffffffffffffffffffffff16908060020160149054906101000a900460ff16908060030154905085565b60055481565b60008054906101000a900473ffffffffffffffffffffffffffffffffffffffff1673ffffffffffffffffffffffffffffffffffffffff163373ffffffffffffffffffffffffffffffffffffffff161461058957600080fd5b600060046000600360008154809291906105a290610d8d565b919050558152602001908152602001600020905084848260000191906105c992919061080d565b50828160010181905550818160020160006101000a81548173ffffffffffffffffffffffffffffffffffffffff021916908373ffffffffffffffffffffffffffffffffffffffff16021790555060008160020160146101000a81548160ff021916908315150217905550600081600301819055505050505050565b60025481565b60035481565b600254341161065e57600080fd5b60018060003373ffffffffffffffffffffffffffffffffffffffff1673ffffffffffffffffffffffffffffffffffffffff16815260200190815260200160002060006101000a81548160ff021916908315150217905550600560008154809291906106c890610d8d565b9190505550565b6000600460008381526020019081526020016000209050600160003373ffffffffffffffffffffffffffffffffffffffff1673ffffffffffffffffffffffffffffffffffffffff16815260200190815260200160002060009054906101000a900460ff1661073c57600080fd5b8060040160003373ffffffffffffffffffffffffffffffffffffffff1673ffffffffffffffffffffffffffffffffffffffff16815260200190815260200160002060009054906101000a900460ff161561079557600080fd5b60018160040160003373ffffffffffffffffffffffffffffffffffffffff1673ffffffffffffffffffffffffffffffffffffffff16815260200190815260200160002060006101000a81548160ff02191690831515021790555080600301600081548092919061080490610d8d565b91905055505050565b82805461081990610d5c565b90600052602060002090601f01602090048101928261083b5760008555610882565b82601f1061085457803560ff1916838001178555610882565b82800160010185558215610882579182015b82811115610881578235825591602001919060010190610866565b5b50905061088f9190610893565b5090565b5b808211156108ac576000816000905550600101610894565b5090565b600080fd5b600080fd5b6000819050919050565b6108cd816108ba565b81146108d857600080fd5b50565b6000813590506108ea816108c4565b92915050565b600060208284031215610906576109056108b0565b5b6000610914848285016108db565b91505092915050565b600073ffffffffffffffffffffffffffffffffffffffff82169050919050565b60006109488261091d565b9050919050565b6109588161093d565b811461096357600080fd5b50565b6000813590506109758161094f565b92915050565b600060208284031215610991576109906108b0565b5b600061099f84828501610966565b91505092915050565b60008115159050919050565b6109bd816109a8565b82525050565b60006020820190506109d860008301846109b4565b92915050565b6109e7816108ba565b82525050565b6109f68161093d565b82525050565b600060a082019050610a1160008301886109de565b610a1e60208301876109de565b610a2b60408301866109de565b610a3860608301856109de565b610a4560808301846109ed565b9695505050505050565b6000610a5a8261091d565b9050919050565b610a6a81610a4f565b82525050565b6000602082019050610a856000830184610a61565b92915050565b600081519050919050565b600082825260208201905092915050565b60005b83811015610ac5578082015181840152602081019050610aaa565b83811115610ad4576000848401525b50505050565b6000601f19601f8301169050919050565b6000610af682610a8b565b610b008185610a96565b9350610b10818560208601610aa7565b610b1981610ada565b840191505092915050565b600060a0820190508181036000830152610b3e8188610aeb565b9050610b4d60208301876109de565b610b5a6040830186610a61565b610b6760608301856109b4565b610b7460808301846109de565b9695505050505050565b6000602082019050610b9360008301846109de565b92915050565b600080fd5b600080fd5b600080fd5b60008083601f840112610bbe57610bbd610b99565b5b8235905067ffffffffffffffff811115610bdb57610bda610b9e565b5b602083019150836001820283011115610bf757610bf6610ba3565b5b9250929050565b610c0781610a4f565b8114610c1257600080fd5b50565b600081359050610c2481610bfe565b92915050565b60008060008060608587031215610c4457610c436108b0565b5b600085013567ffffffffffffffff811115610c6257610c616108b5565b5b610c6e87828801610ba8565b94509450506020610c81878288016108db565b9250506040610c9287828801610c15565b91505092959194509250565b7f4e487b7100000000000000000000000000000000000000000000000000000000600052601260045260246000fd5b7f4e487b7100000000000000000000000000000000000000000000000000000000600052601160045260246000fd5b6000610d07826108ba565b9150610d12836108ba565b925082610d2257610d21610c9e565b5b828204905092915050565b7f4e487b7100000000000000000000000000000000000000000000000000000000600052602260045260246000fd5b60006002820490506001821680610d7457607f821691505b602082108103610d8757610d86610d2d565b5b50919050565b6000610d98826108ba565b91507fffffffffffffffffffffffffffffffffffffffffffffffffffffffffffffffff8203610dca57610dc9610ccd565b5b60018201905091905056fea26469706673582212206e28f9cd4a2fae54a377fd2f74f6f0976b795f13e65252b3518044887f8fcc3e64736f6c634300080d0033","opcodes":"PUSH1 0x80 PUSH1 0x40 MSTORE CALLVALUE DUP1 ISZERO PUSH3 0x11 JUMPI PUSH1 0x0 DUP1 REVERT JUMPDEST POP PUSH1 0x40 MLOAD PUSH3 0xF8D CODESIZE SUB DUP1 PUSH3 0xF8D DUP4 CODECOPY DUP2 DUP2 ADD PUSH1 0x40 MSTORE DUP2 ADD SWAP1 PUSH3 0x37 SWAP2 SWAP1 PUSH3 0x12B JUMP JUMPDEST DUP2 PUSH1 0x2 DUP2 SWAP1 SSTORE POP DUP1 PUSH1 0x0 DUP1 PUSH2 0x100 EXP DUP2 SLOAD DUP2 PUSH20 0xFFFFFFFFFFFFFFFFFFFFFFFFFFFFFFFFFFFFFFFF MUL NOT AND SWAP1 DUP4 PUSH20 0xFFFFFFFFFFFFFFFFFFFFFFFFFFFFFFFFFFFFFFFF AND MUL OR SWAP1 SSTORE POP POP POP PUSH3 0x172 JUMP JUMPDEST PUSH1 0x0 DUP1 REVERT JUMPDEST PUSH1 0x0 DUP2 SWAP1 POP SWAP2 SWAP1 POP JUMP JUMPDEST PUSH3 0xA0 DUP2 PUSH3 0x8B JUMP JUMPDEST DUP2 EQ PUSH3 0xAC JUMPI PUSH1 0x0 DUP1 REVERT JUMPDEST POP JUMP JUMPDEST PUSH1 0x0 DUP2 MLOAD SWAP1 POP PUSH3 0xC0 DUP2 PUSH3 0x95 JUMP JUMPDEST SWAP3 SWAP2 POP POP JUMP JUMPDEST PUSH1 0x0 PUSH20 0xFFFFFFFFFFFFFFFFFFFFFFFFFFFFFFFFFFFFFFFF DUP3 AND SWAP1 POP SWAP2 SWAP1 POP JUMP JUMPDEST PUSH1 0x0 PUSH3 0xF3 DUP3 PUSH3 0xC6 JUMP JUMPDEST SWAP1 POP SWAP2 SWAP1 POP JUMP JUMPDEST PUSH3 0x105 DUP2 PUSH3 0xE6 JUMP JUMPDEST DUP2 EQ PUSH3 0x111 JUMPI PUSH1 0x0 DUP1 REVERT JUMPDEST POP JUMP JUMPDEST PUSH1 0x0 DUP2 MLOAD SWAP1 POP PUSH3 0x125 DUP2 PUSH3 0xFA JUMP JUMPDEST SWAP3 SWAP2 POP POP JUMP JUMPDEST PUSH1 0x0 DUP1 PUSH1 0x40 DUP4 DUP6 SUB SLT ISZERO PUSH3 0x145 JUMPI PUSH3 0x144 PUSH3 0x86 JUMP JUMPDEST JUMPDEST PUSH1 0x0 PUSH3 0x155 DUP6 DUP3 DUP7 ADD PUSH3 0xAF JUMP JUMPDEST SWAP3 POP POP PUSH1 0x20 PUSH3 0x168 DUP6 DUP3 DUP7 ADD PUSH3 0x114 JUMP JUMPDEST SWAP2 POP POP SWAP3 POP SWAP3 SWAP1 POP JUMP JUMPDEST PUSH2 0xE0B DUP1 PUSH3 0x182 PUSH1 0x0 CODECOPY PUSH1 0x0 RETURN INVALID PUSH1 0x80 PUSH1 0x40 MSTORE PUSH1 0x4 CALLDATASIZE LT PUSH2 0x9C JUMPI PUSH1 0x0 CALLDATALOAD PUSH1 0xE0 SHR DUP1 PUSH4 0x82FDE093 GT PUSH2 0x64 JUMPI DUP1 PUSH4 0x82FDE093 EQ PUSH2 0x1A2 JUMPI DUP1 PUSH4 0x8A9CFD55 EQ PUSH2 0x1CD JUMPI DUP1 PUSH4 0x937E09B1 EQ PUSH2 0x1F6 JUMPI DUP1 PUSH4 0x9FB42B1F EQ PUSH2 0x221 JUMPI DUP1 PUSH4 0xD7BB99BA EQ PUSH2 0x24C JUMPI DUP1 PUSH4 0xD7D1BBDB EQ PUSH2 0x256 JUMPI PUSH2 0x9C JUMP JUMPDEST DUP1 PUSH4 0x3441006 EQ PUSH2 0xA1 JUMPI DUP1 PUSH4 0xA144391 EQ PUSH2 0xCA JUMPI DUP1 PUSH4 0x4051DDAC EQ PUSH2 0x107 JUMPI DUP1 PUSH4 0x481C6A75 EQ PUSH2 0x136 JUMPI DUP1 PUSH4 0x81D12C58 EQ PUSH2 0x161 JUMPI JUMPDEST PUSH1 0x0 DUP1 REVERT JUMPDEST CALLVALUE DUP1 ISZERO PUSH2 0xAD JUMPI PUSH1 0x0 DUP1 REVERT JUMPDEST POP PUSH2 0xC8 PUSH1 0x4 DUP1 CALLDATASIZE SUB DUP2 ADD SWAP1 PUSH2 0xC3 SWAP2 SWAP1 PUSH2 0x8F0 JUMP JUMPDEST PUSH2 0x27F JUMP JUMPDEST STOP JUMPDEST CALLVALUE DUP1 ISZERO PUSH2 0xD6 JUMPI PUSH1 0x0 DUP1 REVERT JUMPDEST POP PUSH2 0xF1 PUSH1 0x4 DUP1 CALLDATASIZE SUB DUP2 ADD SWAP1 PUSH2 0xEC SWAP2 SWAP1 PUSH2 0x97B JUMP JUMPDEST PUSH2 0x3B8 JUMP JUMPDEST PUSH1 0x40 MLOAD PUSH2 0xFE SWAP2 SWAP1 PUSH2 0x9C3 JUMP JUMPDEST PUSH1 0x40 MLOAD DUP1 SWAP2 SUB SWAP1 RETURN JUMPDEST CALLVALUE DUP1 ISZERO PUSH2 0x113 JUMPI PUSH1 0x0 DUP1 REVERT JUMPDEST POP PUSH2 0x11C PUSH2 0x3D8 JUMP JUMPDEST PUSH1 0x40 MLOAD PUSH2 0x12D SWAP6 SWAP5 SWAP4 SWAP3 SWAP2 SWAP1 PUSH2 0x9FC JUMP JUMPDEST PUSH1 0x40 MLOAD DUP1 SWAP2 SUB SWAP1 RETURN JUMPDEST CALLVALUE DUP1 ISZERO PUSH2 0x142 JUMPI PUSH1 0x0 DUP1 REVERT JUMPDEST POP PUSH2 0x14B PUSH2 0x41C JUMP JUMPDEST PUSH1 0x40 MLOAD PUSH2 0x158 SWAP2 SWAP1 PUSH2 0xA70 JUMP JUMPDEST PUSH1 0x40 MLOAD DUP1 SWAP2 SUB SWAP1 RETURN JUMPDEST CALLVALUE DUP1 ISZERO PUSH2 0x16D JUMPI PUSH1 0x0 DUP1 REVERT JUMPDEST POP PUSH2 0x188 PUSH1 0x4 DUP1 CALLDATASIZE SUB DUP2 ADD SWAP1 PUSH2 0x183 SWAP2 SWAP1 PUSH2 0x8F0 JUMP JUMPDEST PUSH2 0x440 JUMP JUMPDEST PUSH1 0x40 MLOAD PUSH2 0x199 SWAP6 SWAP5 SWAP4 SWAP3 SWAP2 SWAP1 PUSH2 0xB24 JUMP JUMPDEST PUSH1 0x40 MLOAD DUP1 SWAP2 SUB SWAP1 RETURN JUMPDEST CALLVALUE DUP1 ISZERO PUSH2 0x1AE JUMPI PUSH1 0x0 DUP1 REVERT JUMPDEST POP PUSH2 0x1B7 PUSH2 0x52B JUMP JUMPDEST PUSH1 0x40 MLOAD PUSH2 0x1C4 SWAP2 SWAP1 PUSH2 0xB7E JUMP JUMPDEST PUSH1 0x40 MLOAD DUP1 SWAP2 SUB SWAP1 RETURN JUMPDEST CALLVALUE DUP1 ISZERO PUSH2 0x1D9 JUMPI PUSH1 0x0 DUP1 REVERT JUMPDEST POP PUSH2 0x1F4 PUSH1 0x4 DUP1 CALLDATASIZE SUB DUP2 ADD SWAP1 PUSH2 0x1EF SWAP2 SWAP1 PUSH2 0xC2A JUMP JUMPDEST PUSH2 0x531 JUMP JUMPDEST STOP JUMPDEST CALLVALUE DUP1 ISZERO PUSH2 0x202 JUMPI PUSH1 0x0 DUP1 REVERT JUMPDEST POP PUSH2 0x20B PUSH2 0x644 JUMP JUMPDEST PUSH1 0x40 MLOAD PUSH2 0x218 SWAP2 SWAP1 PUSH2 0xB7E JUMP JUMPDEST PUSH1 0x40 MLOAD DUP1 SWAP2 SUB SWAP1 RETURN JUMPDEST CALLVALUE DUP1 ISZERO PUSH2 0x22D JUMPI PUSH1 0x0 DUP1 REVERT JUMPDEST POP PUSH2 0x236 PUSH2 0x64A JUMP JUMPDEST PUSH1 0x40 MLOAD PUSH2 0x243 SWAP2 SWAP1 PUSH2 0xB7E JUMP JUMPDEST PUSH1 0x40 MLOAD DUP1 SWAP2 SUB SWAP1 RETURN JUMPDEST PUSH2 0x254 PUSH2 0x650 JUMP JUMPDEST STOP JUMPDEST CALLVALUE DUP1 ISZERO PUSH2 0x262 JUMPI PUSH1 0x0 DUP1 REVERT JUMPDEST POP PUSH2 0x27D PUSH1 0x4 DUP1 CALLDATASIZE SUB DUP2 ADD SWAP1 PUSH2 0x278 SWAP2 SWAP1 PUSH2 0x8F0 JUMP JUMPDEST PUSH2 0x6CF JUMP JUMPDEST STOP JUMPDEST PUSH1 0x0 DUP1 SLOAD SWAP1 PUSH2 0x100 EXP SWAP1 DIV PUSH20 0xFFFFFFFFFFFFFFFFFFFFFFFFFFFFFFFFFFFFFFFF AND PUSH20 0xFFFFFFFFFFFFFFFFFFFFFFFFFFFFFFFFFFFFFFFF AND CALLER PUSH20 0xFFFFFFFFFFFFFFFFFFFFFFFFFFFFFFFFFFFFFFFF AND EQ PUSH2 0x2D7 JUMPI PUSH1 0x0 DUP1 REVERT JUMPDEST PUSH1 0x0 PUSH1 0x4 PUSH1 0x0 DUP4 DUP2 MSTORE PUSH1 0x20 ADD SWAP1 DUP2 MSTORE PUSH1 0x20 ADD PUSH1 0x0 KECCAK256 SWAP1 POP PUSH1 0x2 PUSH1 0x5 SLOAD PUSH2 0x2FD SWAP2 SWAP1 PUSH2 0xCFC JUMP JUMPDEST DUP2 PUSH1 0x3 ADD SLOAD GT PUSH2 0x30C JUMPI PUSH1 0x0 DUP1 REVERT JUMPDEST DUP1 PUSH1 0x2 ADD PUSH1 0x14 SWAP1 SLOAD SWAP1 PUSH2 0x100 EXP SWAP1 DIV PUSH1 0xFF AND ISZERO PUSH2 0x328 JUMPI PUSH1 0x0 DUP1 REVERT JUMPDEST DUP1 PUSH1 0x2 ADD PUSH1 0x0 SWAP1 SLOAD SWAP1 PUSH2 0x100 EXP SWAP1 DIV PUSH20 0xFFFFFFFFFFFFFFFFFFFFFFFFFFFFFFFFFFFFFFFF AND PUSH20 0xFFFFFFFFFFFFFFFFFFFFFFFFFFFFFFFFFFFFFFFF AND PUSH2 0x8FC DUP3 PUSH1 0x1 ADD SLOAD SWAP1 DUP2 ISZERO MUL SWAP1 PUSH1 0x40 MLOAD PUSH1 0x0 PUSH1 0x40 MLOAD DUP1 DUP4 SUB DUP2 DUP6 DUP9 DUP9 CALL SWAP4 POP POP POP POP ISZERO DUP1 ISZERO PUSH2 0x396 JUMPI RETURNDATASIZE PUSH1 0x0 DUP1 RETURNDATACOPY RETURNDATASIZE PUSH1 0x0 REVERT JUMPDEST POP PUSH1 0x1 DUP2 PUSH1 0x2 ADD PUSH1 0x14 PUSH2 0x100 EXP DUP2 SLOAD DUP2 PUSH1 0xFF MUL NOT AND SWAP1 DUP4 ISZERO ISZERO MUL OR SWAP1 SSTORE POP POP POP JUMP JUMPDEST PUSH1 0x1 PUSH1 0x20 MSTORE DUP1 PUSH1 0x0 MSTORE PUSH1 0x40 PUSH1 0x0 KECCAK256 PUSH1 0x0 SWAP2 POP SLOAD SWAP1 PUSH2 0x100 EXP SWAP1 DIV PUSH1 0xFF AND DUP2 JUMP JUMPDEST PUSH1 0x0 DUP1 PUSH1 0x0 DUP1 PUSH1 0x0 PUSH1 0x2 SLOAD SELFBALANCE PUSH1 0x3 SLOAD PUSH1 0x5 SLOAD PUSH1 0x0 DUP1 SLOAD SWAP1 PUSH2 0x100 EXP SWAP1 DIV PUSH20 0xFFFFFFFFFFFFFFFFFFFFFFFFFFFFFFFFFFFFFFFF AND SWAP5 POP SWAP5 POP SWAP5 POP SWAP5 POP SWAP5 POP SWAP1 SWAP2 SWAP3 SWAP4 SWAP5 JUMP JUMPDEST PUSH1 0x0 DUP1 SLOAD SWAP1 PUSH2 0x100 EXP SWAP1 DIV PUSH20 0xFFFFFFFFFFFFFFFFFFFFFFFFFFFFFFFFFFFFFFFF AND DUP2 JUMP JUMPDEST PUSH1 0x4 PUSH1 0x20 MSTORE DUP1 PUSH1 0x0 MSTORE PUSH1 0x40 PUSH1 0x0 KECCAK256 PUSH1 0x0 SWAP2 POP SWAP1 POP DUP1 PUSH1 0x0 ADD DUP1 SLOAD PUSH2 0x463 SWAP1 PUSH2 0xD5C JUMP JUMPDEST DUP1 PUSH1 0x1F ADD PUSH1 0x20 DUP1 SWAP2 DIV MUL PUSH1 0x20 ADD PUSH1 0x40 MLOAD SWAP1 DUP2 ADD PUSH1 0x40 MSTORE DUP1 SWAP3 SWAP2 SWAP1 DUP2 DUP2 MSTORE PUSH1 0x20 ADD DUP3 DUP1 SLOAD PUSH2 0x48F SWAP1 PUSH2 0xD5C JUMP JUMPDEST DUP1 ISZERO PUSH2 0x4DC JUMPI DUP1 PUSH1 0x1F LT PUSH2 0x4B1 JUMPI PUSH2 0x100 DUP1 DUP4 SLOAD DIV MUL DUP4 MSTORE SWAP2 PUSH1 0x20 ADD SWAP2 PUSH2 0x4DC JUMP JUMPDEST DUP3 ADD SWAP2 SWAP1 PUSH1 0x0 MSTORE PUSH1 0x20 PUSH1 0x0 KECCAK256 SWAP1 JUMPDEST DUP2 SLOAD DUP2 MSTORE SWAP1 PUSH1 0x1 ADD SWAP1 PUSH1 0x20 ADD DUP1 DUP4 GT PUSH2 0x4BF JUMPI DUP3 SWAP1 SUB PUSH1 0x1F AND DUP3 ADD SWAP2 JUMPDEST POP POP POP POP POP SWAP1 DUP1 PUSH1 0x1 ADD SLOAD SWAP1 DUP1 PUSH1 0x2 ADD PUSH1 0x0 SWAP1 SLOAD SWAP1 PUSH2 0x100 EXP SWAP1 DIV PUSH20 0xFFFFFFFFFFFFFFFFFFFFFFFFFFFFFFFFFFFFFFFF AND SWAP1 DUP1 PUSH1 0x2 ADD PUSH1 0x14 SWAP1 SLOAD SWAP1 PUSH2 0x100 EXP SWAP1 DIV PUSH1 0xFF AND SWAP1 DUP1 PUSH1 0x3 ADD SLOAD SWAP1 POP DUP6 JUMP JUMPDEST PUSH1 0x5 SLOAD DUP2 JUMP JUMPDEST PUSH1 0x0 DUP1 SLOAD SWAP1 PUSH2 0x100 EXP SWAP1 DIV PUSH20 0xFFFFFFFFFFFFFFFFFFFFFFFFFFFFFFFFFFFFFFFF AND PUSH20 0xFFFFFFFFFFFFFFFFFFFFFFFFFFFFFFFFFFFFFFFF AND CALLER PUSH20 0xFFFFFFFFFFFFFFFFFFFFFFFFFFFFFFFFFFFFFFFF AND EQ PUSH2 0x589 JUMPI PUSH1 0x0 DUP1 REVERT JUMPDEST PUSH1 0x0 PUSH1 0x4 PUSH1 0x0 PUSH1 0x3 PUSH1 0x0 DUP2 SLOAD DUP1 SWAP3 SWAP2 SWAP1 PUSH2 0x5A2 SWAP1 PUSH2 0xD8D JUMP JUMPDEST SWAP2 SWAP1 POP SSTORE DUP2 MSTORE PUSH1 0x20 ADD SWAP1 DUP2 MSTORE PUSH1 0x20 ADD PUSH1 0x0 KECCAK256 SWAP1 POP DUP5 DUP5 DUP3 PUSH1 0x0 ADD SWAP2 SWAP1 PUSH2 0x5C9 SWAP3 SWAP2 SWAP1 PUSH2 0x80D JUMP JUMPDEST POP DUP3 DUP2 PUSH1 0x1 ADD DUP2 SWAP1 SSTORE POP DUP2 DUP2 PUSH1 0x2 ADD PUSH1 0x0 PUSH2 0x100 EXP DUP2 SLOAD DUP2 PUSH20 0xFFFFFFFFFFFFFFFFFFFFFFFFFFFFFFFFFFFFFFFF MUL NOT AND SWAP1 DUP4 PUSH20 0xFFFFFFFFFFFFFFFFFFFFFFFFFFFFFFFFFFFFFFFF AND MUL OR SWAP1 SSTORE POP PUSH1 0x0 DUP2 PUSH1 0x2 ADD PUSH1 0x14 PUSH2 0x100 EXP DUP2 SLOAD DUP2 PUSH1 0xFF MUL NOT AND SWAP1 DUP4 ISZERO ISZERO MUL OR SWAP1 SSTORE POP PUSH1 0x0 DUP2 PUSH1 0x3 ADD DUP2 SWAP1 SSTORE POP POP POP POP POP POP JUMP JUMPDEST PUSH1 0x2 SLOAD DUP2 JUMP JUMPDEST PUSH1 0x3 SLOAD DUP2 JUMP JUMPDEST PUSH1 0x2 SLOAD CALLVALUE GT PUSH2 0x65E JUMPI PUSH1 0x0 DUP1 REVERT JUMPDEST PUSH1 0x1 DUP1 PUSH1 0x0 CALLER PUSH20 0xFFFFFFFFFFFFFFFFFFFFFFFFFFFFFFFFFFFFFFFF AND PUSH20 0xFFFFFFFFFFFFFFFFFFFFFFFFFFFFFFFFFFFFFFFF AND DUP2 MSTORE PUSH1 0x20 ADD SWAP1 DUP2 MSTORE PUSH1 0x20 ADD PUSH1 0x0 KECCAK256 PUSH1 0x0 PUSH2 0x100 EXP DUP2 SLOAD DUP2 PUSH1 0xFF MUL NOT AND SWAP1 DUP4 ISZERO ISZERO MUL OR SWAP1 SSTORE POP PUSH1 0x5 PUSH1 0x0 DUP2 SLOAD DUP1 SWAP3 SWAP2 SWAP1 PUSH2 0x6C8 SWAP1 PUSH2 0xD8D JUMP JUMPDEST SWAP2 SWAP1 POP SSTORE POP JUMP JUMPDEST PUSH1 0x0 PUSH1 0x4 PUSH1 0x0 DUP4 DUP2 MSTORE PUSH1 0x20 ADD SWAP1 DUP2 MSTORE PUSH1 0x20 ADD PUSH1 0x0 KECCAK256 SWAP1 POP PUSH1 0x1 PUSH1 0x0 CALLER PUSH20 0xFFFFFFFFFFFFFFFFFFFFFFFFFFFFFFFFFFFFFFFF AND PUSH20 0xFFFFFFFFFFFFFFFFFFFFFFFFFFFFFFFFFFFFFFFF AND DUP2 MSTORE PUSH1 0x20 ADD SWAP1 DUP2 MSTORE PUSH1 0x20 ADD PUSH1 0x0 KECCAK256 PUSH1 0x0 SWAP1 SLOAD SWAP1 PUSH2 0x100 EXP SWAP1 DIV PUSH1 0xFF AND PUSH2 0x73C JUMPI PUSH1 0x0 DUP1 REVERT JUMPDEST DUP1 PUSH1 0x4 ADD PUSH1 0x0 CALLER PUSH20 0xFFFFFFFFFFFFFFFFFFFFFFFFFFFFFFFFFFFFFFFF AND PUSH20 0xFFFFFFFFFFFFFFFFFFFFFFFFFFFFFFFFFFFFFFFF AND DUP2 MSTORE PUSH1 0x20 ADD SWAP1 DUP2 MSTORE PUSH1 0x20 ADD PUSH1 0x0 KECCAK256 PUSH1 0x0 SWAP1 SLOAD SWAP1 PUSH2 0x100 EXP SWAP1 DIV PUSH1 0xFF AND ISZERO PUSH2 0x795 JUMPI PUSH1 0x0 DUP1 REVERT JUMPDEST PUSH1 0x1 DUP2 PUSH1 0x4 ADD PUSH1 0x0 CALLER PUSH20 0xFFFFFFFFFFFFFFFFFFFFFFFFFFFFFFFFFFFFFFFF AND PUSH20 0xFFFFFFFFFFFFFFFFFFFFFFFFFFFFFFFFFFFFFFFF AND DUP2 MSTORE PUSH1 0x20 ADD SWAP1 DUP2 MSTORE PUSH1 0x20 ADD PUSH1 0x0 KECCAK256 PUSH1 0x0 PUSH2 0x100 EXP DUP2 SLOAD DUP2 PUSH1 0xFF MUL NOT AND SWAP1 DUP4 ISZERO ISZERO MUL OR SWAP1 SSTORE POP DUP1 PUSH1 0x3 ADD PUSH1 0x0 DUP2 SLOAD DUP1 SWAP3 SWAP2 SWAP1 PUSH2 0x804 SWAP1 PUSH2 0xD8D JUMP JUMPDEST SWAP2 SWAP1 POP SSTORE POP POP POP JUMP JUMPDEST DUP3 DUP1 SLOAD PUSH2 0x819 SWAP1 PUSH2 0xD5C JUMP JUMPDEST SWAP1 PUSH1 0x0 MSTORE PUSH1 0x20 PUSH1 0x0 KECCAK256 SWAP1 PUSH1 0x1F ADD PUSH1 0x20 SWAP1 DIV DUP2 ADD SWAP3 DUP3 PUSH2 0x83B JUMPI PUSH1 0x0 DUP6 SSTORE PUSH2 0x882 JUMP JUMPDEST DUP3 PUSH1 0x1F LT PUSH2 0x854 JUMPI DUP1 CALLDATALOAD PUSH1 0xFF NOT AND DUP4 DUP1 ADD OR DUP6 SSTORE PUSH2 0x882 JUMP JUMPDEST DUP3 DUP1 ADD PUSH1 0x1 ADD DUP6 SSTORE DUP3 ISZERO PUSH2 0x882 JUMPI SWAP2 DUP3 ADD JUMPDEST DUP3 DUP2 GT ISZERO PUSH2 0x881 JUMPI DUP3 CALLDATALOAD DUP3 SSTORE SWAP2 PUSH1 0x20 ADD SWAP2 SWAP1 PUSH1 0x1 ADD SWAP1 PUSH2 0x866 JUMP JUMPDEST JUMPDEST POP SWAP1 POP PUSH2 0x88F SWAP2 SWAP1 PUSH2 0x893 JUMP JUMPDEST POP SWAP1 JUMP JUMPDEST JUMPDEST DUP1 DUP3 GT ISZERO PUSH2 0x8AC JUMPI PUSH1 0x0 DUP2 PUSH1 0x0 SWAP1 SSTORE POP PUSH1 0x1 ADD PUSH2 0x894 JUMP JUMPDEST POP SWAP1 JUMP JUMPDEST PUSH1 0x0 DUP1 REVERT JUMPDEST PUSH1 0x0 DUP1 REVERT JUMPDEST PUSH1 0x0 DUP2 SWAP1 POP SWAP2 SWAP1 POP JUMP JUMPDEST PUSH2 0x8CD DUP2 PUSH2 0x8BA JUMP JUMPDEST DUP2 EQ PUSH2 0x8D8 JUMPI PUSH1 0x0 DUP1 REVERT JUMPDEST POP JUMP JUMPDEST PUSH1 0x0 DUP2 CALLDATALOAD SWAP1 POP PUSH2 0x8EA DUP2 PUSH2 0x8C4 JUMP JUMPDEST SWAP3 SWAP2 POP POP JUMP JUMPDEST PUSH1 0x0 PUSH1 0x20 DUP3 DUP5 SUB SLT ISZERO PUSH2 0x906 JUMPI PUSH2 0x905 PUSH2 0x8B0 JUMP JUMPDEST JUMPDEST PUSH1 0x0 PUSH2 0x914 DUP5 DUP3 DUP6 ADD PUSH2 0x8DB JUMP JUMPDEST SWAP2 POP POP SWAP3 SWAP2 POP POP JUMP JUMPDEST PUSH1 0x0 PUSH20 0xFFFFFFFFFFFFFFFFFFFFFFFFFFFFFFFFFFFFFFFF DUP3 AND SWAP1 POP SWAP2 SWAP1 POP JUMP JUMPDEST PUSH1 0x0 PUSH2 0x948 DUP3 PUSH2 0x91D JUMP JUMPDEST SWAP1 POP SWAP2 SWAP1 POP JUMP JUMPDEST PUSH2 0x958 DUP2 PUSH2 0x93D JUMP JUMPDEST DUP2 EQ PUSH2 0x963 JUMPI PUSH1 0x0 DUP1 REVERT JUMPDEST POP JUMP JUMPDEST PUSH1 0x0 DUP2 CALLDATALOAD SWAP1 POP PUSH2 0x975 DUP2 PUSH2 0x94F JUMP JUMPDEST SWAP3 SWAP2 POP POP JUMP JUMPDEST PUSH1 0x0 PUSH1 0x20 DUP3 DUP5 SUB SLT ISZERO PUSH2 0x991 JUMPI PUSH2 0x990 PUSH2 0x8B0 JUMP JUMPDEST JUMPDEST PUSH1 0x0 PUSH2 0x99F DUP5 DUP3 DUP6 ADD PUSH2 0x966 JUMP JUMPDEST SWAP2 POP POP SWAP3 SWAP2 POP POP JUMP JUMPDEST PUSH1 0x0 DUP2 ISZERO ISZERO SWAP1 POP SWAP2 SWAP1 POP JUMP JUMPDEST PUSH2 0x9BD DUP2 PUSH2 0x9A8 JUMP JUMPDEST DUP3 MSTORE POP POP JUMP JUMPDEST PUSH1 0x0 PUSH1 0x20 DUP3 ADD SWAP1 POP PUSH2 0x9D8 PUSH1 0x0 DUP4 ADD DUP5 PUSH2 0x9B4 JUMP JUMPDEST SWAP3 SWAP2 POP POP JUMP JUMPDEST PUSH2 0x9E7 DUP2 PUSH2 0x8BA JUMP JUMPDEST DUP3 MSTORE POP POP JUMP JUMPDEST PUSH2 0x9F6 DUP2 PUSH2 0x93D JUMP JUMPDEST DUP3 MSTORE POP POP JUMP JUMPDEST PUSH1 0x0 PUSH1 0xA0 DUP3 ADD SWAP1 POP PUSH2 0xA11 PUSH1 0x0 DUP4 ADD DUP9 PUSH2 0x9DE JUMP JUMPDEST PUSH2 0xA1E PUSH1 0x20 DUP4 ADD DUP8 PUSH2 0x9DE JUMP JUMPDEST PUSH2 0xA2B PUSH1 0x40 DUP4 ADD DUP7 PUSH2 0x9DE JUMP JUMPDEST PUSH2 0xA38 PUSH1 0x60 DUP4 ADD DUP6 PUSH2 0x9DE JUMP JUMPDEST PUSH2 0xA45 PUSH1 0x80 DUP4 ADD DUP5 PUSH2 0x9ED JUMP JUMPDEST SWAP7 SWAP6 POP POP POP POP POP POP JUMP JUMPDEST PUSH1 0x0 PUSH2 0xA5A DUP3 PUSH2 0x91D JUMP JUMPDEST SWAP1 POP SWAP2 SWAP1 POP JUMP JUMPDEST PUSH2 0xA6A DUP2 PUSH2 0xA4F JUMP JUMPDEST DUP3 MSTORE POP POP JUMP JUMPDEST PUSH1 0x0 PUSH1 0x20 DUP3 ADD SWAP1 POP PUSH2 0xA85 PUSH1 0x0 DUP4 ADD DUP5 PUSH2 0xA61 JUMP JUMPDEST SWAP3 SWAP2 POP POP JUMP JUMPDEST PUSH1 0x0 DUP2 MLOAD SWAP1 POP SWAP2 SWAP1 POP JUMP JUMPDEST PUSH1 0x0 DUP3 DUP3 MSTORE PUSH1 0x20 DUP3 ADD SWAP1 POP SWAP3 SWAP2 POP POP JUMP JUMPDEST PUSH1 0x0 JUMPDEST DUP4 DUP2 LT ISZERO PUSH2 0xAC5 JUMPI DUP1 DUP3 ADD MLOAD DUP2 DUP5 ADD MSTORE PUSH1 0x20 DUP2 ADD SWAP1 POP PUSH2 0xAAA JUMP JUMPDEST DUP4 DUP2 GT ISZERO PUSH2 0xAD4 JUMPI PUSH1 0x0 DUP5 DUP5 ADD MSTORE JUMPDEST POP POP POP POP JUMP JUMPDEST PUSH1 0x0 PUSH1 0x1F NOT PUSH1 0x1F DUP4 ADD AND SWAP1 POP SWAP2 SWAP1 POP JUMP JUMPDEST PUSH1 0x0 PUSH2 0xAF6 DUP3 PUSH2 0xA8B JUMP JUMPDEST PUSH2 0xB00 DUP2 DUP6 PUSH2 0xA96 JUMP JUMPDEST SWAP4 POP PUSH2 0xB10 DUP2 DUP6 PUSH1 0x20 DUP7 ADD PUSH2 0xAA7 JUMP JUMPDEST PUSH2 0xB19 DUP2 PUSH2 0xADA JUMP JUMPDEST DUP5 ADD SWAP2 POP POP SWAP3 SWAP2 POP POP JUMP JUMPDEST PUSH1 0x0 PUSH1 0xA0 DUP3 ADD SWAP1 POP DUP2 DUP2 SUB PUSH1 0x0 DUP4 ADD MSTORE PUSH2 0xB3E DUP2 DUP9 PUSH2 0xAEB JUMP JUMPDEST SWAP1 POP PUSH2 0xB4D PUSH1 0x20 DUP4 ADD DUP8 PUSH2 0x9DE JUMP JUMPDEST PUSH2 0xB5A PUSH1 0x40 DUP4 ADD DUP7 PUSH2 0xA61 JUMP JUMPDEST PUSH2 0xB67 PUSH1 0x60 DUP4 ADD DUP6 PUSH2 0x9B4 JUMP JUMPDEST PUSH2 0xB74 PUSH1 0x80 DUP4 ADD DUP5 PUSH2 0x9DE JUMP JUMPDEST SWAP7 SWAP6 POP POP POP POP POP POP JUMP JUMPDEST PUSH1 0x0 PUSH1 0x20 DUP3 ADD SWAP1 POP PUSH2 0xB93 PUSH1 0x0 DUP4 ADD DUP5 PUSH2 0x9DE JUMP JUMPDEST SWAP3 SWAP2 POP POP JUMP JUMPDEST PUSH1 0x0 DUP1 REVERT JUMPDEST PUSH1 0x0 DUP1 REVERT JUMPDEST PUSH1 0x0 DUP1 REVERT JUMPDEST PUSH1 0x0 DUP1 DUP4 PUSH1 0x1F DUP5 ADD SLT PUSH2 0xBBE JUMPI PUSH2 0xBBD PUSH2 0xB99 JUMP JUMPDEST JUMPDEST DUP3 CALLDATALOAD SWAP1 POP PUSH8 0xFFFFFFFFFFFFFFFF DUP2 GT ISZERO PUSH2 0xBDB JUMPI PUSH2 0xBDA PUSH2 0xB9E JUMP JUMPDEST JUMPDEST PUSH1 0x20 DUP4 ADD SWAP2 POP DUP4 PUSH1 0x1 DUP3 MUL DUP4 ADD GT ISZERO PUSH2 0xBF7 JUMPI PUSH2 0xBF6 PUSH2 0xBA3 JUMP JUMPDEST JUMPDEST SWAP3 POP SWAP3 SWAP1 POP JUMP JUMPDEST PUSH2 0xC07 DUP2 PUSH2 0xA4F JUMP JUMPDEST DUP2 EQ PUSH2 0xC12 JUMPI PUSH1 0x0 DUP1 REVERT JUMPDEST POP JUMP JUMPDEST PUSH1 0x0 DUP2 CALLDATALOAD SWAP1 POP PUSH2 0xC24 DUP2 PUSH2 0xBFE JUMP JUMPDEST SWAP3 SWAP2 POP POP JUMP JUMPDEST PUSH1 0x0 DUP1 PUSH1 0x0 DUP1 PUSH1 0x60 DUP6 DUP8 SUB SLT ISZERO PUSH2 0xC44 JUMPI PUSH2 0xC43 PUSH2 0x8B0 JUMP JUMPDEST JUMPDEST PUSH1 0x0 DUP6 ADD CALLDATALOAD PUSH8 0xFFFFFFFFFFFFFFFF DUP2 GT ISZERO PUSH2 0xC62 JUMPI PUSH2 0xC61 PUSH2 0x8B5 JUMP JUMPDEST JUMPDEST PUSH2 0xC6E DUP8 DUP3 DUP9 ADD PUSH2 0xBA8 JUMP JUMPDEST SWAP5 POP SWAP5 POP POP PUSH1 0x20 PUSH2 0xC81 DUP8 DUP3 DUP9 ADD PUSH2 0x8DB JUMP JUMPDEST SWAP3 POP POP PUSH1 0x40 PUSH2 0xC92 DUP8 DUP3 DUP9 ADD PUSH2 0xC15 JUMP JUMPDEST SWAP2 POP POP SWAP3 SWAP6 SWAP2 SWAP5 POP SWAP3 POP JUMP JUMPDEST PUSH32 0x4E487B7100000000000000000000000000000000000000000000000000000000 PUSH1 0x0 MSTORE PUSH1 0x12 PUSH1 0x4 MSTORE PUSH1 0x24 PUSH1 0x0 REVERT JUMPDEST PUSH32 0x4E487B7100000000000000000000000000000000000000000000000000000000 PUSH1 0x0 MSTORE PUSH1 0x11 PUSH1 0x4 MSTORE PUSH1 0x24 PUSH1 0x0 REVERT JUMPDEST PUSH1 0x0 PUSH2 0xD07 DUP3 PUSH2 0x8BA JUMP JUMPDEST SWAP2 POP PUSH2 0xD12 DUP4 PUSH2 0x8BA JUMP JUMPDEST SWAP3 POP DUP3 PUSH2 0xD22 JUMPI PUSH2 0xD21 PUSH2 0xC9E JUMP JUMPDEST JUMPDEST DUP3 DUP3 DIV SWAP1 POP SWAP3 SWAP2 POP POP JUMP JUMPDEST PUSH32 0x4E487B7100000000000000000000000000000000000000000000000000000000 PUSH1 0x0 MSTORE PUSH1 0x22 PUSH1 0x4 MSTORE PUSH1 0x24 PUSH1 0x0 REVERT JUMPDEST PUSH1 0x0 PUSH1 0x2 DUP3 DIV SWAP1 POP PUSH1 0x1 DUP3 AND DUP1 PUSH2 0xD74 JUMPI PUSH1 0x7F DUP3 AND SWAP2 POP JUMPDEST PUSH1 0x20 DUP3 LT DUP2 SUB PUSH2 0xD87 JUMPI PUSH2 0xD86 PUSH2 0xD2D JUMP JUMPDEST JUMPDEST POP SWAP2 SWAP1 POP JUMP JUMPDEST PUSH1 0x0 PUSH2 0xD98 DUP3 PUSH2 0x8BA JUMP JUMPDEST SWAP2 POP PUSH32 0xFFFFFFFFFFFFFFFFFFFFFFFFFFFFFFFFFFFFFFFFFFFFFFFFFFFFFFFFFFFFFFFF DUP3 SUB PUSH2 0xDCA JUMPI PUSH2 0xDC9 PUSH2 0xCCD JUMP JUMPDEST JUMPDEST PUSH1 0x1 DUP3 ADD SWAP1 POP SWAP2 SWAP1 POP JUMP INVALID LOG2 PUSH5 0x6970667358 0x22 SLT KECCAK256 PUSH15 0x28F9CD4A2FAE54A377FD2F74F6F097 PUSH12 0x795F13E65252B3518044887F DUP16 0xCC RETURNDATACOPY PUSH5 0x736F6C6343 STOP ADDMOD 0xD STOP CALLER "},"gasEstimates":{"creation":{"codeDepositCost":"719000","executionCost":"infinite","totalCost":"infinite"},"external":{"approveRequest(uint256)":"infinite","approvers(address)":"2868","approversCount()":"2429","contribute()":"51043","createRequest(string,uint256,address)":"infinite","finalizeRequest(uint256)":"infinite","getSummary()":"infinite","manager()":"2578","minimumContribution()":"2473","numRequests()":"2495","requests(uint256)":"infinite"}},"methodIdentifiers":{"approveRequest(uint256)":"d7d1bbdb","approvers(address)":"0a144391","approversCount()":"82fde093","contribute()":"d7bb99ba","createRequest(string,uint256,address)":"8a9cfd55","finalizeRequest(uint256)":"03441006","getSummary()":"4051ddac","manager()":"481c6a75","minimumContribution()":"937e09b1","numRequests()":"9fb42b1f","requests(uint256)":"81d12c58"}},"storageLayout":{"storage":[{"astId":50,"contract":"Campaign.sol:Campaign","label":"manager","offset":0,"slot":"0","type":"t_address_payable"},{"astId":54,"contract":"Campaign.sol:Campaign","label":"approvers","offset":0,"slot":"1","type":"t_mapping(t_address,t_bool)"},{"astId":56,"contract":"Campaign.sol:Campaign","label":"minimumContribution","offset":0,"slot":"2","type":"t_uint256"},{"astId":73,"contract":"Campaign.sol:Campaign","label":"numRequests","offset":0,"slot":"3","type":"t_uint256"},{"astId":78,"contract":"Campaign.sol:Campaign","label":"requests","offset":0,"slot":"4","type":"t_mapping(t_uint256,t_struct(Request)71_storage)"},{"astId":80,"contract":"Campaign.sol:Campaign","label":"approversCount","offset":0,"slot":"5","type":"t_uint256"}],"types":{"t_address":{"encoding":"inplace","label":"address","numberOfBytes":"20"},"t_address_payable":{"encoding":"inplace","label":"address payable","numberOfBytes":"20"},"t_bool":{"encoding":"inplace","label":"bool","numberOfBytes":"1"},"t_mapping(t_address,t_bool)":{"encoding":"mapping","key":"t_address","label":"mapping(address => bool)","numberOfBytes":"32","value":"t_bool"},"t_mapping(t_uint256,t_struct(Request)71_storage)":{"encoding":"mapping","key":"t_uint256","label":"mapping(uint256 => struct Campaign.Request)","numberOfBytes":"32","value":"t_struct(Request)71_storage"},"t_string_storage":{"encoding":"bytes","label":"string","numberOfBytes":"32"},"t_struct(Request)71_storage":{"encoding":"inplace","label":"struct Campaign.Request","members":[{"astId":58,"contract":"Campaign.sol:Campaign","label":"description","offset":0,"slot":"0","type":"t_string_storage"},{"astId":60,"contract":"Campaign.sol:Campaign","label":"value","offset":0,"slot":"1","type":"t_uint256"},{"astId":62,"contract":"Campaign.sol:Campaign","label":"recipient","offset":0,"slot":"2","type":"t_address_payable"},{"astId":64,"contract":"Campaign.sol:Campaign","label":"complete","offset":20,"slot":"2","type":"t_bool"},{"astId":66,"contract":"Campaign.sol:Campaign","label":"approvalCount","offset":0,"slot":"3","type":"t_uint256"},{"astId":70,"contract":"Campaign.sol:Campaign","label":"approvals","offset":0,"slot":"4","type":"t_mapping(t_address,t_bool)"}],"numberOfBytes":"160"},"t_uint256":{"encoding":"inplace","label":"uint256","numberOfBytes":"32"}}},"userdoc":{"kind":"user","methods":{},"version":1}}